{
  "contractName": "CloneX",
  "abi": [
    {
      "inputs": [],
      "stateMutability": "nonpayable",
      "type": "constructor"
    },
    {
      "anonymous": false,
      "inputs": [
        {
          "indexed": true,
          "internalType": "address",
          "name": "owner",
          "type": "address"
        },
        {
          "indexed": true,
          "internalType": "address",
          "name": "approved",
          "type": "address"
        },
        {
          "indexed": true,
          "internalType": "uint256",
          "name": "tokenId",
          "type": "uint256"
        }
      ],
      "name": "Approval",
      "type": "event"
    },
    {
      "anonymous": false,
      "inputs": [
        {
          "indexed": true,
          "internalType": "address",
          "name": "owner",
          "type": "address"
        },
        {
          "indexed": true,
          "internalType": "address",
          "name": "operator",
          "type": "address"
        },
        {
          "indexed": false,
          "internalType": "bool",
          "name": "approved",
          "type": "bool"
        }
      ],
      "name": "ApprovalForAll",
      "type": "event"
    },
    {
      "anonymous": false,
      "inputs": [
        {
          "indexed": false,
          "internalType": "uint256",
          "name": "tokenId",
          "type": "uint256"
        },
        {
          "indexed": false,
          "internalType": "string",
          "name": "fileId",
          "type": "string"
        }
      ],
      "name": "CloneXRevealed",
      "type": "event"
    },
    {
      "anonymous": false,
      "inputs": [
        {
          "indexed": true,
          "internalType": "address",
          "name": "previousOwner",
          "type": "address"
        },
        {
          "indexed": true,
          "internalType": "address",
          "name": "newOwner",
          "type": "address"
        }
      ],
      "name": "OwnershipTransferred",
      "type": "event"
    },
    {
      "anonymous": false,
      "inputs": [
        {
          "indexed": true,
          "internalType": "address",
          "name": "from",
          "type": "address"
        },
        {
          "indexed": true,
          "internalType": "address",
          "name": "to",
          "type": "address"
        },
        {
          "indexed": true,
          "internalType": "uint256",
          "name": "tokenId",
          "type": "uint256"
        }
      ],
      "name": "Transfer",
      "type": "event"
    },
    {
      "inputs": [],
      "name": "_tokenUri",
      "outputs": [
        {
          "internalType": "string",
          "name": "",
          "type": "string"
        }
      ],
      "stateMutability": "view",
      "type": "function"
    },
    {
      "inputs": [
        {
          "internalType": "address",
          "name": "to",
          "type": "address"
        },
        {
          "internalType": "uint256",
          "name": "tokenId",
          "type": "uint256"
        }
      ],
      "name": "approve",
      "outputs": [],
      "stateMutability": "nonpayable",
      "type": "function"
    },
    {
      "inputs": [
        {
          "internalType": "address",
          "name": "owner",
          "type": "address"
        }
      ],
      "name": "balanceOf",
      "outputs": [
        {
          "internalType": "uint256",
          "name": "",
          "type": "uint256"
        }
      ],
      "stateMutability": "view",
      "type": "function"
    },
    {
      "inputs": [],
      "name": "contractLocked",
      "outputs": [
        {
          "internalType": "bool",
          "name": "",
          "type": "bool"
        }
      ],
      "stateMutability": "view",
      "type": "function"
    },
    {
      "inputs": [
        {
          "internalType": "uint256",
          "name": "tokenId",
          "type": "uint256"
        }
      ],
      "name": "getApproved",
      "outputs": [
        {
          "internalType": "address",
          "name": "",
          "type": "address"
        }
      ],
      "stateMutability": "view",
      "type": "function"
    },
    {
      "inputs": [
        {
          "internalType": "address",
          "name": "owner",
          "type": "address"
        },
        {
          "internalType": "address",
          "name": "operator",
          "type": "address"
        }
      ],
      "name": "isApprovedForAll",
      "outputs": [
        {
          "internalType": "bool",
          "name": "",
          "type": "bool"
        }
      ],
      "stateMutability": "view",
      "type": "function"
    },
    {
      "inputs": [],
      "name": "name",
      "outputs": [
        {
          "internalType": "string",
          "name": "",
          "type": "string"
        }
      ],
      "stateMutability": "view",
      "type": "function"
    },
    {
      "inputs": [],
      "name": "owner",
      "outputs": [
        {
          "internalType": "address",
          "name": "",
          "type": "address"
        }
      ],
      "stateMutability": "view",
      "type": "function"
    },
    {
      "inputs": [
        {
          "internalType": "uint256",
          "name": "tokenId",
          "type": "uint256"
        }
      ],
      "name": "ownerOf",
      "outputs": [
        {
          "internalType": "address",
          "name": "",
          "type": "address"
        }
      ],
      "stateMutability": "view",
      "type": "function"
    },
    {
      "inputs": [],
      "name": "renounceOwnership",
      "outputs": [],
      "stateMutability": "nonpayable",
      "type": "function"
    },
    {
      "inputs": [
        {
          "internalType": "address",
          "name": "from",
          "type": "address"
        },
        {
          "internalType": "address",
          "name": "to",
          "type": "address"
        },
        {
          "internalType": "uint256",
          "name": "tokenId",
          "type": "uint256"
        }
      ],
      "name": "safeTransferFrom",
      "outputs": [],
      "stateMutability": "nonpayable",
      "type": "function"
    },
    {
      "inputs": [
        {
          "internalType": "address",
          "name": "from",
          "type": "address"
        },
        {
          "internalType": "address",
          "name": "to",
          "type": "address"
        },
        {
          "internalType": "uint256",
          "name": "tokenId",
          "type": "uint256"
        },
        {
          "internalType": "bytes",
          "name": "_data",
          "type": "bytes"
        }
      ],
      "name": "safeTransferFrom",
      "outputs": [],
      "stateMutability": "nonpayable",
      "type": "function"
    },
    {
      "inputs": [
        {
          "internalType": "address",
          "name": "operator",
          "type": "address"
        },
        {
          "internalType": "bool",
          "name": "approved",
          "type": "bool"
        }
      ],
      "name": "setApprovalForAll",
      "outputs": [],
      "stateMutability": "nonpayable",
      "type": "function"
    },
    {
      "inputs": [],
      "name": "symbol",
      "outputs": [
        {
          "internalType": "string",
          "name": "",
          "type": "string"
        }
      ],
      "stateMutability": "view",
      "type": "function"
    },
    {
      "inputs": [
        {
          "internalType": "uint256",
          "name": "index",
          "type": "uint256"
        }
      ],
      "name": "tokenByIndex",
      "outputs": [
        {
          "internalType": "uint256",
          "name": "",
          "type": "uint256"
        }
      ],
      "stateMutability": "view",
      "type": "function"
    },
    {
      "inputs": [
        {
          "internalType": "address",
          "name": "owner",
          "type": "address"
        },
        {
          "internalType": "uint256",
          "name": "index",
          "type": "uint256"
        }
      ],
      "name": "tokenOfOwnerByIndex",
      "outputs": [
        {
          "internalType": "uint256",
          "name": "",
          "type": "uint256"
        }
      ],
      "stateMutability": "view",
      "type": "function"
    },
    {
      "inputs": [],
      "name": "totalSupply",
      "outputs": [
        {
          "internalType": "uint256",
          "name": "",
          "type": "uint256"
        }
      ],
      "stateMutability": "view",
      "type": "function"
    },
    {
      "inputs": [
        {
          "internalType": "address",
          "name": "from",
          "type": "address"
        },
        {
          "internalType": "address",
          "name": "to",
          "type": "address"
        },
        {
          "internalType": "uint256",
          "name": "tokenId",
          "type": "uint256"
        }
      ],
      "name": "transferFrom",
      "outputs": [],
      "stateMutability": "nonpayable",
      "type": "function"
    },
    {
      "inputs": [
        {
          "internalType": "address",
          "name": "newOwner",
          "type": "address"
        }
      ],
      "name": "transferOwnership",
      "outputs": [],
      "stateMutability": "nonpayable",
      "type": "function"
    },
    {
      "inputs": [
        {
          "internalType": "address",
          "name": "to",
          "type": "address"
        }
      ],
      "name": "mintTransfer",
      "outputs": [
        {
          "internalType": "uint256",
          "name": "",
          "type": "uint256"
        }
      ],
      "stateMutability": "nonpayable",
      "type": "function"
    },
    {
      "inputs": [
        {
          "internalType": "address",
          "name": "newAddress",
          "type": "address"
        }
      ],
      "name": "setRandomizerAddress",
      "outputs": [],
      "stateMutability": "nonpayable",
      "type": "function"
    },
    {
      "inputs": [
        {
          "internalType": "address",
          "name": "newAddress",
          "type": "address"
        }
      ],
      "name": "setMintvialAddress",
      "outputs": [],
      "stateMutability": "nonpayable",
      "type": "function"
    },
    {
      "inputs": [
        {
          "internalType": "string",
          "name": "newUri",
          "type": "string"
        }
      ],
      "name": "secureBaseUri",
      "outputs": [],
      "stateMutability": "nonpayable",
      "type": "function"
    },
    {
      "inputs": [],
      "name": "lockContract",
      "outputs": [],
      "stateMutability": "nonpayable",
      "type": "function"
    },
    {
      "inputs": [
        {
          "internalType": "address",
          "name": "_owner",
          "type": "address"
        }
      ],
      "name": "tokensOfOwner",
      "outputs": [
        {
          "internalType": "uint256[]",
          "name": "",
          "type": "uint256[]"
        }
      ],
      "stateMutability": "view",
      "type": "function"
    },
    {
      "inputs": [
        {
          "internalType": "uint256",
          "name": "tokenId",
          "type": "uint256"
        }
      ],
      "name": "tokenURI",
      "outputs": [
        {
          "internalType": "string",
          "name": "",
          "type": "string"
        }
      ],
      "stateMutability": "view",
      "type": "function"
    },
    {
      "inputs": [
        {
          "internalType": "bytes4",
          "name": "interfaceId",
          "type": "bytes4"
        }
      ],
      "name": "supportsInterface",
      "outputs": [
        {
          "internalType": "bool",
          "name": "",
          "type": "bool"
        }
      ],
      "stateMutability": "view",
      "type": "function"
    }
  ],
  "bytecode": "0x60c0604052602060808190527f68747470733a2f2f636c6f6e65782d6173736574732e7274666b742e636f6d2f60a09081526200004091600f919062000149565b506010805460ff191690553480156200005857600080fd5b50604080518082018252600680825265086d8dedccab60d31b6020808401828152855180870190965292855284015281519192916200009a9160009162000149565b508051620000b090600190602084019062000149565b505050620000cd620000c7620000ea60201b60201c565b620000ee565b620000e4600c6200014060201b62000eb01760201c565b6200022c565b3390565b600b80546001600160a01b038381166001600160a01b0319831681179093556040519116919082907f8be0079c531659141344cd1fd0a4f28419497f9722a3daafe3b4186f6b6457e090600090a35050565b80546001019055565b8280546200015790620001ef565b90600052602060002090601f0160209004810192826200017b5760008555620001c6565b82601f106200019657805160ff1916838001178555620001c6565b82800160010185558215620001c6579182015b82811115620001c6578251825591602001919060010190620001a9565b50620001d4929150620001d8565b5090565b5b80821115620001d45760008155600101620001d9565b600181811c908216806200020457607f821691505b602082108114156200022657634e487b7160e01b600052602260045260246000fd5b50919050565b61224c806200023c6000396000f3fe608060405234801561001057600080fd5b50600436106101a95760003560e01c8063753868e3116100f9578063b88d4fde11610097578063df6552b911610071578063df6552b914610377578063e985e9c51461037f578063f1abd7de146103bb578063f2fde38b146103ce57600080fd5b8063b88d4fde1461033e578063c46b0d8414610351578063c87b56dd1461036457600080fd5b8063937f2608116100d3578063937f2608146102fd57806395d89b4114610310578063a22cb46514610318578063ad6c99621461032b57600080fd5b8063753868e3146102c45780638462151c146102cc5780638da5cb5b146102ec57600080fd5b80632f745c59116101665780634f6ccce7116101405780634f6ccce7146102835780636352211e1461029657806370a08231146102a9578063715018a6146102bc57600080fd5b80632f745c5914610250578063324cb3cb1461026357806342842e0e1461027057600080fd5b806301ffc9a7146101ae57806306fdde03146101d6578063081812fc146101eb578063095ea7b31461021657806318160ddd1461022b57806323b872dd1461023d575b600080fd5b6101c16101bc366004611d73565b6103e1565b60405190151581526020015b60405180910390f35b6101de6103f2565b6040516101cd9190611f62565b6101fe6101f9366004611e6d565b610484565b6040516001600160a01b0390911681526020016101cd565b610229610224366004611d49565b61051e565b005b6008545b6040519081526020016101cd565b61022961024b366004611c55565b610634565b61022f61025e366004611d49565b610665565b6010546101c19060ff1681565b61022961027e366004611c55565b6106fb565b61022f610291366004611e6d565b610716565b6101fe6102a4366004611e6d565b6107a9565b61022f6102b7366004611c07565b610820565b6102296108a7565b6102296108dd565b6102df6102da366004611c07565b610916565b6040516101cd9190611f1e565b600b546001600160a01b03166101fe565b61022f61030b366004611c07565b6109d5565b6101de610b2a565b610229610326366004611d0d565b610b39565b610229610339366004611c07565b610bfe565b61022961034c366004611c91565b610c4a565b61022961035f366004611dad565b610c82565b6101de610372366004611e6d565b610d30565b6101de610d3b565b6101c161038d366004611c22565b6001600160a01b03918216600090815260056020908152604080832093909416825291909152205460ff1690565b6102296103c9366004611c07565b610dc9565b6102296103dc366004611c07565b610e15565b60006103ec82610eb9565b92915050565b6060600080546104019061212e565b80601f016020809104026020016040519081016040528092919081815260200182805461042d9061212e565b801561047a5780601f1061044f5761010080835404028352916020019161047a565b820191906000526020600020905b81548152906001019060200180831161045d57829003601f168201915b5050505050905090565b6000818152600260205260408120546001600160a01b03166105025760405162461bcd60e51b815260206004820152602c60248201527f4552433732313a20617070726f76656420717565727920666f72206e6f6e657860448201526b34b9ba32b73a103a37b5b2b760a11b60648201526084015b60405180910390fd5b506000908152600460205260409020546001600160a01b031690565b6000610529826107a9565b9050806001600160a01b0316836001600160a01b031614156105975760405162461bcd60e51b815260206004820152602160248201527f4552433732313a20617070726f76616c20746f2063757272656e74206f776e656044820152603960f91b60648201526084016104f9565b336001600160a01b03821614806105b357506105b3813361038d565b6106255760405162461bcd60e51b815260206004820152603860248201527f4552433732313a20617070726f76652063616c6c6572206973206e6f74206f7760448201527f6e6572206e6f7220617070726f76656420666f7220616c6c000000000000000060648201526084016104f9565b61062f8383610ede565b505050565b61063e3382610f4c565b61065a5760405162461bcd60e51b81526004016104f990611ffc565b61062f83838361103f565b600061067083610820565b82106106d25760405162461bcd60e51b815260206004820152602b60248201527f455243373231456e756d657261626c653a206f776e657220696e646578206f7560448201526a74206f6620626f756e647360a81b60648201526084016104f9565b506001600160a01b03919091166000908152600660209081526040808320938352929052205490565b61062f83838360405180602001604052806000815250610c4a565b600061072160085490565b82106107845760405162461bcd60e51b815260206004820152602c60248201527f455243373231456e756d657261626c653a20676c6f62616c20696e646578206f60448201526b7574206f6620626f756e647360a01b60648201526084016104f9565b60088281548110610797576107976121d4565b90600052602060002001549050919050565b6000818152600260205260408120546001600160a01b0316806103ec5760405162461bcd60e51b815260206004820152602960248201527f4552433732313a206f776e657220717565727920666f72206e6f6e657869737460448201526832b73a103a37b5b2b760b91b60648201526084016104f9565b60006001600160a01b03821661088b5760405162461bcd60e51b815260206004820152602a60248201527f4552433732313a2062616c616e636520717565727920666f7220746865207a65604482015269726f206164647265737360b01b60648201526084016104f9565b506001600160a01b031660009081526003602052604090205490565b600b546001600160a01b031633146108d15760405162461bcd60e51b81526004016104f990611fc7565b6108db60006111ea565b565b600b546001600160a01b031633146109075760405162461bcd60e51b81526004016104f990611fc7565b6010805460ff19166001179055565b6060600061092383610820565b9050806109445760408051600080825260208201909252905b509392505050565b60008167ffffffffffffffff81111561095f5761095f6121ea565b604051908082528060200260200182016040528015610988578160200160208202803683370190505b50905060005b8281101561093c576109a08582610665565b8282815181106109b2576109b26121d4565b6020908102919091010152806109c781612163565b91505061098e565b50919050565b600e546000906001600160a01b03163314610a235760405162461bcd60e51b815260206004820152600e60248201526d139bdd08185d5d1a1bdc9a5e995960921b60448201526064016104f9565b600d546001600160a01b03166000816314ff5ea3610a40600c5490565b6040518263ffffffff1660e01b8152600401610a5e91815260200190565b60006040518083038186803b158015610a7657600080fd5b505afa158015610a8a573d6000803e3d6000fd5b505050506040513d6000823e601f3d908101601f19168201604052610ab29190810190611df6565b90506000610abf600c5490565b9050610ad385610ace600c5490565b61123c565b7f2ce54db2c0bc64dc675f5fae90636ec2f0c88dbd8e7c6a19c9caca9193741b15610afd600c5490565b83604051610b0c92919061204d565b60405180910390a1610b22600c80546001019055565b949350505050565b6060600180546104019061212e565b6001600160a01b038216331415610b925760405162461bcd60e51b815260206004820152601960248201527f4552433732313a20617070726f766520746f2063616c6c65720000000000000060448201526064016104f9565b3360008181526005602090815260408083206001600160a01b03871680855290835292819020805460ff191686151590811790915590519081529192917f17307eab39ab6107e8899845ad3d59bd9653f200f220920489ca2b5937696c31910160405180910390a35050565b600b546001600160a01b03163314610c285760405162461bcd60e51b81526004016104f990611fc7565b600e80546001600160a01b0319166001600160a01b0392909216919091179055565b610c543383610f4c565b610c705760405162461bcd60e51b81526004016104f990611ffc565b610c7c84848484611256565b50505050565b600b546001600160a01b03163314610cac5760405162461bcd60e51b81526004016104f990611fc7565b60105460ff1615610d195760405162461bcd60e51b815260206004820152603160248201527f436f6e747261637420686173206265656e206c6f636b656420616e64205552496044820152700818d85b89dd0818994818da185b99d959607a1b60648201526084016104f9565b8051610d2c90600f906020840190611b14565b5050565b60606103ec82611289565b600f8054610d489061212e565b80601f0160208091040260200160405190810160405280929190818152602001828054610d749061212e565b8015610dc15780601f10610d9657610100808354040283529160200191610dc1565b820191906000526020600020905b815481529060010190602001808311610da457829003601f168201915b505050505081565b600b546001600160a01b03163314610df35760405162461bcd60e51b81526004016104f990611fc7565b600d80546001600160a01b0319166001600160a01b0392909216919091179055565b600b546001600160a01b03163314610e3f5760405162461bcd60e51b81526004016104f990611fc7565b6001600160a01b038116610ea45760405162461bcd60e51b815260206004820152602660248201527f4f776e61626c653a206e6577206f776e657220697320746865207a65726f206160448201526564647265737360d01b60648201526084016104f9565b610ead816111ea565b50565b80546001019055565b60006001600160e01b0319821663780e9d6360e01b14806103ec57506103ec826113fb565b600081815260046020526040902080546001600160a01b0319166001600160a01b0384169081179091558190610f13826107a9565b6001600160a01b03167f8c5be1e5ebec7d5bd14f71427d1e84f3dd0314c0f7b2291e5b200ac8c7c3b92560405160405180910390a45050565b6000818152600260205260408120546001600160a01b0316610fc55760405162461bcd60e51b815260206004820152602c60248201527f4552433732313a206f70657261746f7220717565727920666f72206e6f6e657860448201526b34b9ba32b73a103a37b5b2b760a11b60648201526084016104f9565b6000610fd0836107a9565b9050806001600160a01b0316846001600160a01b0316148061100b5750836001600160a01b031661100084610484565b6001600160a01b0316145b80610b2257506001600160a01b0380821660009081526005602090815260408083209388168352929052205460ff16610b22565b826001600160a01b0316611052826107a9565b6001600160a01b0316146110ba5760405162461bcd60e51b815260206004820152602960248201527f4552433732313a207472616e73666572206f6620746f6b656e2074686174206960448201526839903737ba1037bbb760b91b60648201526084016104f9565b6001600160a01b03821661111c5760405162461bcd60e51b8152602060048201526024808201527f4552433732313a207472616e7366657220746f20746865207a65726f206164646044820152637265737360e01b60648201526084016104f9565b61112783838361144b565b611132600082610ede565b6001600160a01b038316600090815260036020526040812080546001929061115b9084906120eb565b90915550506001600160a01b03821660009081526003602052604081208054600192906111899084906120bf565b909155505060008181526002602052604080822080546001600160a01b0319166001600160a01b0386811691821790925591518493918716917fddf252ad1be2c89b69c2b068fc378daa952ba7f163c4a11628f55a4df523b3ef91a4505050565b600b80546001600160a01b038381166001600160a01b0319831681179093556040519116919082907f8be0079c531659141344cd1fd0a4f28419497f9722a3daafe3b4186f6b6457e090600090a35050565b610d2c828260405180602001604052806000815250611456565b61126184848461103f565b61126d84848484611489565b610c7c5760405162461bcd60e51b81526004016104f990611f75565b6000818152600260205260409020546060906001600160a01b031661130a5760405162461bcd60e51b815260206004820152603160248201527f45524337323155524953746f726167653a2055524920717565727920666f72206044820152703737b732bc34b9ba32b73a103a37b5b2b760791b60648201526084016104f9565b6000828152600a6020526040812080546113239061212e565b80601f016020809104026020016040519081016040528092919081815260200182805461134f9061212e565b801561139c5780601f106113715761010080835404028352916020019161139c565b820191906000526020600020905b81548152906001019060200180831161137f57829003601f168201915b5050505050905060006113ad611596565b90508051600014156113c0575092915050565b8151156113f25780826040516020016113da929190611eb2565b60405160208183030381529060405292505050919050565b610b22846115a5565b60006001600160e01b031982166380ac58cd60e01b148061142c57506001600160e01b03198216635b5e139f60e01b145b806103ec57506301ffc9a760e01b6001600160e01b03198316146103ec565b61062f838383611680565b6114608383611738565b61146d6000848484611489565b61062f5760405162461bcd60e51b81526004016104f990611f75565b60006001600160a01b0384163b1561158b57604051630a85bd0160e11b81526001600160a01b0385169063150b7a02906114cd903390899088908890600401611ee1565b602060405180830381600087803b1580156114e757600080fd5b505af1925050508015611517575060408051601f3d908101601f1916820190925261151491810190611d90565b60015b611571573d808015611545576040519150601f19603f3d011682016040523d82523d6000602084013e61154a565b606091505b5080516115695760405162461bcd60e51b81526004016104f990611f75565b805181602001fd5b6001600160e01b031916630a85bd0160e11b149050610b22565b506001949350505050565b6060600f80546104019061212e565b6000818152600260205260409020546060906001600160a01b03166116245760405162461bcd60e51b815260206004820152602f60248201527f4552433732314d657461646174613a2055524920717565727920666f72206e6f60448201526e3732bc34b9ba32b73a103a37b5b2b760891b60648201526084016104f9565b600061162e611596565b9050600081511161164e5760405180602001604052806000815250611679565b8061165884611886565b604051602001611669929190611eb2565b6040516020818303038152906040525b9392505050565b6001600160a01b0383166116db576116d681600880546000838152600960205260408120829055600182018355919091527ff3f7a9fe364faab93b216da50a3214154f22a0a2b415b23a84c8169e8b636ee30155565b6116fe565b816001600160a01b0316836001600160a01b0316146116fe576116fe8382611984565b6001600160a01b0382166117155761062f81611a21565b826001600160a01b0316826001600160a01b03161461062f5761062f8282611ad0565b6001600160a01b03821661178e5760405162461bcd60e51b815260206004820181905260248201527f4552433732313a206d696e7420746f20746865207a65726f206164647265737360448201526064016104f9565b6000818152600260205260409020546001600160a01b0316156117f35760405162461bcd60e51b815260206004820152601c60248201527f4552433732313a20746f6b656e20616c7265616479206d696e7465640000000060448201526064016104f9565b6117ff6000838361144b565b6001600160a01b03821660009081526003602052604081208054600192906118289084906120bf565b909155505060008181526002602052604080822080546001600160a01b0319166001600160a01b03861690811790915590518392907fddf252ad1be2c89b69c2b068fc378daa952ba7f163c4a11628f55a4df523b3ef908290a45050565b6060816118aa5750506040805180820190915260018152600360fc1b602082015290565b8160005b81156118d457806118be81612163565b91506118cd9050600a836120d7565b91506118ae565b60008167ffffffffffffffff8111156118ef576118ef6121ea565b6040519080825280601f01601f191660200182016040528015611919576020820181803683370190505b5090505b8415610b225761192e6001836120eb565b915061193b600a8661217e565b6119469060306120bf565b60f81b81838151811061195b5761195b6121d4565b60200101906001600160f81b031916908160001a90535061197d600a866120d7565b945061191d565b6000600161199184610820565b61199b91906120eb565b6000838152600760205260409020549091508082146119ee576001600160a01b03841660009081526006602090815260408083208584528252808320548484528184208190558352600790915290208190555b5060009182526007602090815260408084208490556001600160a01b039094168352600681528383209183525290812055565b600854600090611a33906001906120eb565b60008381526009602052604081205460088054939450909284908110611a5b57611a5b6121d4565b906000526020600020015490508060088381548110611a7c57611a7c6121d4565b6000918252602080832090910192909255828152600990915260408082208490558582528120556008805480611ab457611ab46121be565b6001900381819060005260206000200160009055905550505050565b6000611adb83610820565b6001600160a01b039093166000908152600660209081526040808320868452825280832085905593825260079052919091209190915550565b828054611b209061212e565b90600052602060002090601f016020900481019282611b425760008555611b88565b82601f10611b5b57805160ff1916838001178555611b88565b82800160010185558215611b88579182015b82811115611b88578251825591602001919060010190611b6d565b50611b94929150611b98565b5090565b5b80821115611b945760008155600101611b99565b6000611bc0611bbb84612097565b612066565b9050828152838383011115611bd457600080fd5b828260208301376000602084830101529392505050565b80356001600160a01b0381168114611c0257600080fd5b919050565b600060208284031215611c1957600080fd5b61167982611beb565b60008060408385031215611c3557600080fd5b611c3e83611beb565b9150611c4c60208401611beb565b90509250929050565b600080600060608486031215611c6a57600080fd5b611c7384611beb565b9250611c8160208501611beb565b9150604084013590509250925092565b60008060008060808587031215611ca757600080fd5b611cb085611beb565b9350611cbe60208601611beb565b925060408501359150606085013567ffffffffffffffff811115611ce157600080fd5b8501601f81018713611cf257600080fd5b611d0187823560208401611bad565b91505092959194509250565b60008060408385031215611d2057600080fd5b611d2983611beb565b915060208301358015158114611d3e57600080fd5b809150509250929050565b60008060408385031215611d5c57600080fd5b611d6583611beb565b946020939093013593505050565b600060208284031215611d8557600080fd5b813561167981612200565b600060208284031215611da257600080fd5b815161167981612200565b600060208284031215611dbf57600080fd5b813567ffffffffffffffff811115611dd657600080fd5b8201601f81018413611de757600080fd5b610b2284823560208401611bad565b600060208284031215611e0857600080fd5b815167ffffffffffffffff811115611e1f57600080fd5b8201601f81018413611e3057600080fd5b8051611e3e611bbb82612097565b818152856020838501011115611e5357600080fd5b611e64826020830160208601612102565b95945050505050565b600060208284031215611e7f57600080fd5b5035919050565b60008151808452611e9e816020860160208601612102565b601f01601f19169290920160200192915050565b60008351611ec4818460208801612102565b835190830190611ed8818360208801612102565b01949350505050565b6001600160a01b0385811682528416602082015260408101839052608060608201819052600090611f1490830184611e86565b9695505050505050565b6020808252825182820181905260009190848201906040850190845b81811015611f5657835183529284019291840191600101611f3a565b50909695505050505050565b6020815260006116796020830184611e86565b60208082526032908201527f4552433732313a207472616e7366657220746f206e6f6e20455243373231526560408201527131b2b4bb32b91034b6b83632b6b2b73a32b960711b606082015260800190565b6020808252818101527f4f776e61626c653a2063616c6c6572206973206e6f7420746865206f776e6572604082015260600190565b60208082526031908201527f4552433732313a207472616e736665722063616c6c6572206973206e6f74206f6040820152701ddb995c881b9bdc88185c1c1c9bdd9959607a1b606082015260800190565b828152604060208201526000610b226040830184611e86565b604051601f8201601f1916810167ffffffffffffffff8111828210171561208f5761208f6121ea565b604052919050565b600067ffffffffffffffff8211156120b1576120b16121ea565b50601f01601f191660200190565b600082198211156120d2576120d2612192565b500190565b6000826120e6576120e66121a8565b500490565b6000828210156120fd576120fd612192565b500390565b60005b8381101561211d578181015183820152602001612105565b83811115610c7c5750506000910152565b600181811c9082168061214257607f821691505b602082108114156109cf57634e487b7160e01b600052602260045260246000fd5b600060001982141561217757612177612192565b5060010190565b60008261218d5761218d6121a8565b500690565b634e487b7160e01b600052601160045260246000fd5b634e487b7160e01b600052601260045260246000fd5b634e487b7160e01b600052603160045260246000fd5b634e487b7160e01b600052603260045260246000fd5b634e487b7160e01b600052604160045260246000fd5b6001600160e01b031981168114610ead57600080fdfea26469706673582212201fcd74b012fc0496fd672c7afdf20b6cf5b92197dedb7579650cb413fe52812364736f6c63430008060033",
  "immutableReferences": {},
  "source": "// SPDX-License-Identifier: MIT\n\n/*\n    RTFKT Legal Overview [https://rtfkt.com/legaloverview]\n    1. RTFKT Platform Terms of Services [Document #1, https://rtfkt.com/tos]\n    2. End Use License Terms\n    A. Digital Collectible Terms (RTFKT-Owned Content) [Document #2-A, https://rtfkt.com/legal-2A]\n    B. Digital Collectible Terms (Third Party Content) [Document #2-B, https://rtfkt.com/legal-2B]\n    C. Digital Collectible Limited Commercial Use License Terms (RTFKT-Owned Content) [Document #2-C, https://rtfkt.com/legal-2C]\n    \n    3. Policies or other documentation\n    A. RTFKT Privacy Policy [Document #3-A, https://rtfkt.com/privacy]\n    B. NFT Issuance and Marketing Policy [Document #3-B, https://rtfkt.com/legal-3B]\n    C. Transfer Fees [Document #3C, https://rtfkt.com/legal-3C]\n    C. 1. Commercialization Registration [https://rtfkt.typeform.com/to/u671kiRl]\n    \n    4. General notices\n    A. Murakami Short Verbiage  User Experience Notice [Document #X-1, https://rtfkt.com/legal-X1]\n*/\n\npragma solidity ^0.8.2;\n\nimport \"@openzeppelin/contracts/token/ERC721/ERC721.sol\";\nimport \"@openzeppelin/contracts/token/ERC721/extensions/ERC721Enumerable.sol\";\nimport \"@openzeppelin/contracts/token/ERC721/extensions/ERC721URIStorage.sol\";\nimport \"@openzeppelin/contracts/access/Ownable.sol\";\nimport \"@openzeppelin/contracts/utils/Counters.sol\";\n\nabstract contract CloneXRandomizer {\n    function getTokenId(uint256 tokenId) public view virtual returns(string memory);\n}\n\ncontract CloneX is ERC721, ERC721Enumerable, ERC721URIStorage, Ownable {\n    using Counters for Counters.Counter;\n\n    Counters.Counter private _tokenIdCounter;\n\n    constructor() ERC721(\"CloneX\", \"CloneX\") {\n        _tokenIdCounter.increment(); // Making sure we start at token ID 1\n    }\n    \n    event CloneXRevealed(uint256 tokenId, string fileId); // Sending the event for offchain script to transform the right file\n    \n    address randomizerAddress; // Approved randomizer contract\n    address mintvialAddress; // Approved mintvial contract\n    string public _tokenUri = \"https://clonex-assets.rtfkt.com/\"; // Initial base URI\n    \n    bool public contractLocked = false;\n\n    function mintTransfer(address to) public returns(uint256) {\n        require(msg.sender == mintvialAddress, \"Not authorized\");\n        \n        CloneXRandomizer tokenAttribution = CloneXRandomizer(randomizerAddress);\n        \n        string memory realId = tokenAttribution.getTokenId(_tokenIdCounter.current());\n        uint256 mintedId =  _tokenIdCounter.current();\n        \n        _safeMint(to, _tokenIdCounter.current());\n        emit CloneXRevealed(_tokenIdCounter.current(), realId);\n        _tokenIdCounter.increment();\n        return mintedId;\n    }\n\n    // Change the randomizer address contract\n    function setRandomizerAddress(address newAddress) public onlyOwner {\n        randomizerAddress = newAddress;\n    }\n    \n    // Change the mintvial address contract\n    function setMintvialAddress(address newAddress) public onlyOwner { \n        mintvialAddress = newAddress;\n    }\n    \n    function secureBaseUri(string memory newUri) public onlyOwner {\n        require(contractLocked == false, \"Contract has been locked and URI can't be changed\");\n        _tokenUri = newUri;\n    }\n    \n    function lockContract() public onlyOwner {\n        contractLocked = true;   \n    }\n    \n\t/*\n\t * Helper function\n\t */\n\tfunction tokensOfOwner(address _owner) external view returns (uint256[] memory) {\n\t\tuint256 tokenCount = balanceOf(_owner);\n\t\tif (tokenCount == 0) return new uint256[](0);\n\t\telse {\n\t\t\tuint256[] memory result = new uint256[](tokenCount);\n\t\t\tuint256 index;\n\t\t\tfor (index = 0; index < tokenCount; index++) {\n\t\t\t\tresult[index] = tokenOfOwnerByIndex(_owner, index);\n\t\t\t}\n\t\t\treturn result;\n\t\t}\n\t}\n\n    /** OVERRIDES */\n    function _baseURI() internal view override returns (string memory) {\n        return _tokenUri;\n    }\n    \n\tfunction _beforeTokenTransfer(address from, address to, uint256 tokenId) internal override(ERC721, ERC721Enumerable) {\n        super._beforeTokenTransfer(from, to, tokenId);\n    }\n\n    function _burn(uint256 tokenId) internal override(ERC721, ERC721URIStorage) {\n        super._burn(tokenId);\n    }\n\n    function tokenURI(uint256 tokenId) public view override(ERC721, ERC721URIStorage) returns (string memory) {\n        return super.tokenURI(tokenId);\n    }\n\n    function supportsInterface(bytes4 interfaceId) public view override(ERC721, ERC721Enumerable) returns (bool) {\n        return super.supportsInterface(interfaceId);\n    }\n}",
  "sourcePath": "C:/Users/Alex-Desktop/Desktop/arbitrum/contracts/BoredApeKennelClub.sol",
  "compiler": {
    "name": "solc",
    "version": "0.8.6+commit.11564f7e.Emscripten.clang"
  },
  "schemaVersion": "3.3.4",
  "updatedAt": "2022-03-03T01:06:59.418Z",
  "devdoc": {
    "kind": "dev",
    "methods": {
      "approve(address,uint256)": {
        "details": "See {IERC721-approve}."
      },
      "balanceOf(address)": {
        "details": "See {IERC721-balanceOf}."
      },
      "getApproved(uint256)": {
        "details": "See {IERC721-getApproved}."
      },
      "isApprovedForAll(address,address)": {
        "details": "See {IERC721-isApprovedForAll}."
      },
      "name()": {
        "details": "See {IERC721Metadata-name}."
      },
      "owner()": {
        "details": "Returns the address of the current owner."
      },
      "ownerOf(uint256)": {
        "details": "See {IERC721-ownerOf}."
      },
      "renounceOwnership()": {
        "details": "Leaves the contract without owner. It will not be possible to call `onlyOwner` functions anymore. Can only be called by the current owner. NOTE: Renouncing ownership will leave the contract without an owner, thereby removing any functionality that is only available to the owner."
      },
      "safeTransferFrom(address,address,uint256)": {
        "details": "See {IERC721-safeTransferFrom}."
      },
      "safeTransferFrom(address,address,uint256,bytes)": {
        "details": "See {IERC721-safeTransferFrom}."
      },
      "setApprovalForAll(address,bool)": {
        "details": "See {IERC721-setApprovalForAll}."
      },
      "symbol()": {
        "details": "See {IERC721Metadata-symbol}."
      },
      "tokenByIndex(uint256)": {
        "details": "See {IERC721Enumerable-tokenByIndex}."
      },
      "tokenOfOwnerByIndex(address,uint256)": {
        "details": "See {IERC721Enumerable-tokenOfOwnerByIndex}."
      },
      "totalSupply()": {
        "details": "See {IERC721Enumerable-totalSupply}."
      },
      "transferFrom(address,address,uint256)": {
        "details": "See {IERC721-transferFrom}."
      },
      "transferOwnership(address)": {
        "details": "Transfers ownership of the contract to a new account (`newOwner`). Can only be called by the current owner."
      }
    },
    "version": 1
  },
  "userdoc": {
    "kind": "user",
    "methods": {},
    "version": 1
  }
}