{
  "contractName": "MutantApeYachtClub",
  "abi": [
    {
      "inputs": [
        {
          "internalType": "string",
          "name": "name",
          "type": "string"
        },
        {
          "internalType": "string",
          "name": "symbol",
          "type": "string"
        },
        {
          "internalType": "address",
          "name": "baycAddress",
          "type": "address"
        },
        {
          "internalType": "address",
          "name": "baccAddress",
          "type": "address"
        }
      ],
      "stateMutability": "nonpayable",
      "type": "constructor"
    },
    {
      "anonymous": false,
      "inputs": [
        {
          "indexed": true,
          "internalType": "address",
          "name": "owner",
          "type": "address"
        },
        {
          "indexed": true,
          "internalType": "address",
          "name": "approved",
          "type": "address"
        },
        {
          "indexed": true,
          "internalType": "uint256",
          "name": "tokenId",
          "type": "uint256"
        }
      ],
      "name": "Approval",
      "type": "event"
    },
    {
      "anonymous": false,
      "inputs": [
        {
          "indexed": true,
          "internalType": "address",
          "name": "owner",
          "type": "address"
        },
        {
          "indexed": true,
          "internalType": "address",
          "name": "operator",
          "type": "address"
        },
        {
          "indexed": false,
          "internalType": "bool",
          "name": "approved",
          "type": "bool"
        }
      ],
      "name": "ApprovalForAll",
      "type": "event"
    },
    {
      "anonymous": false,
      "inputs": [
        {
          "indexed": true,
          "internalType": "uint256",
          "name": "_currentPrice",
          "type": "uint256"
        },
        {
          "indexed": true,
          "internalType": "uint256",
          "name": "_timeElapsed",
          "type": "uint256"
        }
      ],
      "name": "MutantPublicSalePaused",
      "type": "event"
    },
    {
      "anonymous": false,
      "inputs": [
        {
          "indexed": true,
          "internalType": "uint256",
          "name": "_saleDuration",
          "type": "uint256"
        },
        {
          "indexed": true,
          "internalType": "uint256",
          "name": "_saleStartTime",
          "type": "uint256"
        }
      ],
      "name": "MutantPublicSaleStart",
      "type": "event"
    },
    {
      "anonymous": false,
      "inputs": [
        {
          "indexed": true,
          "internalType": "address",
          "name": "previousOwner",
          "type": "address"
        },
        {
          "indexed": true,
          "internalType": "address",
          "name": "newOwner",
          "type": "address"
        }
      ],
      "name": "OwnershipTransferred",
      "type": "event"
    },
    {
      "anonymous": false,
      "inputs": [
        {
          "indexed": true,
          "internalType": "uint256",
          "name": "_mintedMutantsStartingIndex",
          "type": "uint256"
        },
        {
          "indexed": true,
          "internalType": "uint256",
          "name": "_megaMutantsStartingIndex",
          "type": "uint256"
        }
      ],
      "name": "StartingIndicesSet",
      "type": "event"
    },
    {
      "anonymous": false,
      "inputs": [
        {
          "indexed": true,
          "internalType": "address",
          "name": "from",
          "type": "address"
        },
        {
          "indexed": true,
          "internalType": "address",
          "name": "to",
          "type": "address"
        },
        {
          "indexed": true,
          "internalType": "uint256",
          "name": "tokenId",
          "type": "uint256"
        }
      ],
      "name": "Transfer",
      "type": "event"
    },
    {
      "inputs": [],
      "name": "MAYC_PROVENANCE",
      "outputs": [
        {
          "internalType": "string",
          "name": "",
          "type": "string"
        }
      ],
      "stateMutability": "view",
      "type": "function"
    },
    {
      "inputs": [],
      "name": "NUM_MEGA_MUTANTS",
      "outputs": [
        {
          "internalType": "uint256",
          "name": "",
          "type": "uint256"
        }
      ],
      "stateMutability": "view",
      "type": "function"
    },
    {
      "inputs": [],
      "name": "PS_MAX_MUTANTS",
      "outputs": [
        {
          "internalType": "uint256",
          "name": "",
          "type": "uint256"
        }
      ],
      "stateMutability": "view",
      "type": "function"
    },
    {
      "inputs": [],
      "name": "PS_MAX_MUTANT_PURCHASE",
      "outputs": [
        {
          "internalType": "uint256",
          "name": "",
          "type": "uint256"
        }
      ],
      "stateMutability": "view",
      "type": "function"
    },
    {
      "inputs": [],
      "name": "PS_MUTANT_ENDING_PRICE",
      "outputs": [
        {
          "internalType": "uint256",
          "name": "",
          "type": "uint256"
        }
      ],
      "stateMutability": "view",
      "type": "function"
    },
    {
      "inputs": [],
      "name": "SERUM_MUTATION_OFFSET",
      "outputs": [
        {
          "internalType": "uint256",
          "name": "",
          "type": "uint256"
        }
      ],
      "stateMutability": "view",
      "type": "function"
    },
    {
      "inputs": [
        {
          "internalType": "address",
          "name": "to",
          "type": "address"
        },
        {
          "internalType": "uint256",
          "name": "tokenId",
          "type": "uint256"
        }
      ],
      "name": "approve",
      "outputs": [],
      "stateMutability": "nonpayable",
      "type": "function"
    },
    {
      "inputs": [
        {
          "internalType": "address",
          "name": "owner",
          "type": "address"
        }
      ],
      "name": "balanceOf",
      "outputs": [
        {
          "internalType": "uint256",
          "name": "",
          "type": "uint256"
        }
      ],
      "stateMutability": "view",
      "type": "function"
    },
    {
      "inputs": [],
      "name": "collectionStartingIndexBlock",
      "outputs": [
        {
          "internalType": "uint256",
          "name": "",
          "type": "uint256"
        }
      ],
      "stateMutability": "view",
      "type": "function"
    },
    {
      "inputs": [
        {
          "internalType": "uint256",
          "name": "tokenId",
          "type": "uint256"
        }
      ],
      "name": "getApproved",
      "outputs": [
        {
          "internalType": "address",
          "name": "",
          "type": "address"
        }
      ],
      "stateMutability": "view",
      "type": "function"
    },
    {
      "inputs": [
        {
          "internalType": "address",
          "name": "owner",
          "type": "address"
        },
        {
          "internalType": "address",
          "name": "operator",
          "type": "address"
        }
      ],
      "name": "isApprovedForAll",
      "outputs": [
        {
          "internalType": "bool",
          "name": "",
          "type": "bool"
        }
      ],
      "stateMutability": "view",
      "type": "function"
    },
    {
      "inputs": [],
      "name": "megaMutantsStartingIndex",
      "outputs": [
        {
          "internalType": "uint256",
          "name": "",
          "type": "uint256"
        }
      ],
      "stateMutability": "view",
      "type": "function"
    },
    {
      "inputs": [],
      "name": "mintedMutantsStartingIndex",
      "outputs": [
        {
          "internalType": "uint256",
          "name": "",
          "type": "uint256"
        }
      ],
      "stateMutability": "view",
      "type": "function"
    },
    {
      "inputs": [],
      "name": "name",
      "outputs": [
        {
          "internalType": "string",
          "name": "",
          "type": "string"
        }
      ],
      "stateMutability": "view",
      "type": "function"
    },
    {
      "inputs": [],
      "name": "numMutantsMinted",
      "outputs": [
        {
          "internalType": "uint256",
          "name": "",
          "type": "uint256"
        }
      ],
      "stateMutability": "view",
      "type": "function"
    },
    {
      "inputs": [],
      "name": "owner",
      "outputs": [
        {
          "internalType": "address",
          "name": "",
          "type": "address"
        }
      ],
      "stateMutability": "view",
      "type": "function"
    },
    {
      "inputs": [
        {
          "internalType": "uint256",
          "name": "tokenId",
          "type": "uint256"
        }
      ],
      "name": "ownerOf",
      "outputs": [
        {
          "internalType": "address",
          "name": "",
          "type": "address"
        }
      ],
      "stateMutability": "view",
      "type": "function"
    },
    {
      "inputs": [],
      "name": "publicSaleActive",
      "outputs": [
        {
          "internalType": "bool",
          "name": "",
          "type": "bool"
        }
      ],
      "stateMutability": "view",
      "type": "function"
    },
    {
      "inputs": [],
      "name": "publicSaleDuration",
      "outputs": [
        {
          "internalType": "uint256",
          "name": "",
          "type": "uint256"
        }
      ],
      "stateMutability": "view",
      "type": "function"
    },
    {
      "inputs": [],
      "name": "publicSaleMutantStartingPrice",
      "outputs": [
        {
          "internalType": "uint256",
          "name": "",
          "type": "uint256"
        }
      ],
      "stateMutability": "view",
      "type": "function"
    },
    {
      "inputs": [],
      "name": "publicSaleStartTime",
      "outputs": [
        {
          "internalType": "uint256",
          "name": "",
          "type": "uint256"
        }
      ],
      "stateMutability": "view",
      "type": "function"
    },
    {
      "inputs": [],
      "name": "renounceOwnership",
      "outputs": [],
      "stateMutability": "nonpayable",
      "type": "function"
    },
    {
      "inputs": [
        {
          "internalType": "address",
          "name": "from",
          "type": "address"
        },
        {
          "internalType": "address",
          "name": "to",
          "type": "address"
        },
        {
          "internalType": "uint256",
          "name": "tokenId",
          "type": "uint256"
        }
      ],
      "name": "safeTransferFrom",
      "outputs": [],
      "stateMutability": "nonpayable",
      "type": "function"
    },
    {
      "inputs": [
        {
          "internalType": "address",
          "name": "from",
          "type": "address"
        },
        {
          "internalType": "address",
          "name": "to",
          "type": "address"
        },
        {
          "internalType": "uint256",
          "name": "tokenId",
          "type": "uint256"
        },
        {
          "internalType": "bytes",
          "name": "_data",
          "type": "bytes"
        }
      ],
      "name": "safeTransferFrom",
      "outputs": [],
      "stateMutability": "nonpayable",
      "type": "function"
    },
    {
      "inputs": [],
      "name": "serumMutationActive",
      "outputs": [
        {
          "internalType": "bool",
          "name": "",
          "type": "bool"
        }
      ],
      "stateMutability": "view",
      "type": "function"
    },
    {
      "inputs": [
        {
          "internalType": "address",
          "name": "operator",
          "type": "address"
        },
        {
          "internalType": "bool",
          "name": "approved",
          "type": "bool"
        }
      ],
      "name": "setApprovalForAll",
      "outputs": [],
      "stateMutability": "nonpayable",
      "type": "function"
    },
    {
      "inputs": [
        {
          "internalType": "bytes4",
          "name": "interfaceId",
          "type": "bytes4"
        }
      ],
      "name": "supportsInterface",
      "outputs": [
        {
          "internalType": "bool",
          "name": "",
          "type": "bool"
        }
      ],
      "stateMutability": "view",
      "type": "function"
    },
    {
      "inputs": [],
      "name": "symbol",
      "outputs": [
        {
          "internalType": "string",
          "name": "",
          "type": "string"
        }
      ],
      "stateMutability": "view",
      "type": "function"
    },
    {
      "inputs": [
        {
          "internalType": "uint256",
          "name": "index",
          "type": "uint256"
        }
      ],
      "name": "tokenByIndex",
      "outputs": [
        {
          "internalType": "uint256",
          "name": "",
          "type": "uint256"
        }
      ],
      "stateMutability": "view",
      "type": "function"
    },
    {
      "inputs": [
        {
          "internalType": "address",
          "name": "owner",
          "type": "address"
        },
        {
          "internalType": "uint256",
          "name": "index",
          "type": "uint256"
        }
      ],
      "name": "tokenOfOwnerByIndex",
      "outputs": [
        {
          "internalType": "uint256",
          "name": "",
          "type": "uint256"
        }
      ],
      "stateMutability": "view",
      "type": "function"
    },
    {
      "inputs": [
        {
          "internalType": "uint256",
          "name": "tokenId",
          "type": "uint256"
        }
      ],
      "name": "tokenURI",
      "outputs": [
        {
          "internalType": "string",
          "name": "",
          "type": "string"
        }
      ],
      "stateMutability": "view",
      "type": "function"
    },
    {
      "inputs": [],
      "name": "totalSupply",
      "outputs": [
        {
          "internalType": "uint256",
          "name": "",
          "type": "uint256"
        }
      ],
      "stateMutability": "view",
      "type": "function"
    },
    {
      "inputs": [
        {
          "internalType": "address",
          "name": "from",
          "type": "address"
        },
        {
          "internalType": "address",
          "name": "to",
          "type": "address"
        },
        {
          "internalType": "uint256",
          "name": "tokenId",
          "type": "uint256"
        }
      ],
      "name": "transferFrom",
      "outputs": [],
      "stateMutability": "nonpayable",
      "type": "function"
    },
    {
      "inputs": [
        {
          "internalType": "address",
          "name": "newOwner",
          "type": "address"
        }
      ],
      "name": "transferOwnership",
      "outputs": [],
      "stateMutability": "nonpayable",
      "type": "function"
    },
    {
      "inputs": [
        {
          "internalType": "uint256",
          "name": "saleDuration",
          "type": "uint256"
        },
        {
          "internalType": "uint256",
          "name": "saleStartPrice",
          "type": "uint256"
        }
      ],
      "name": "startPublicSale",
      "outputs": [],
      "stateMutability": "nonpayable",
      "type": "function"
    },
    {
      "inputs": [],
      "name": "pausePublicSale",
      "outputs": [],
      "stateMutability": "nonpayable",
      "type": "function"
    },
    {
      "inputs": [],
      "name": "getRemainingSaleTime",
      "outputs": [
        {
          "internalType": "uint256",
          "name": "",
          "type": "uint256"
        }
      ],
      "stateMutability": "view",
      "type": "function"
    },
    {
      "inputs": [],
      "name": "getMintPrice",
      "outputs": [
        {
          "internalType": "uint256",
          "name": "",
          "type": "uint256"
        }
      ],
      "stateMutability": "view",
      "type": "function"
    },
    {
      "inputs": [],
      "name": "withdraw",
      "outputs": [],
      "stateMutability": "nonpayable",
      "type": "function"
    },
    {
      "inputs": [
        {
          "internalType": "uint256",
          "name": "numMutants",
          "type": "uint256"
        }
      ],
      "name": "mintMutants",
      "outputs": [],
      "stateMutability": "payable",
      "type": "function"
    },
    {
      "inputs": [
        {
          "internalType": "uint256",
          "name": "serumTypeId",
          "type": "uint256"
        },
        {
          "internalType": "uint256",
          "name": "apeId",
          "type": "uint256"
        }
      ],
      "name": "mutateApeWithSerum",
      "outputs": [],
      "stateMutability": "nonpayable",
      "type": "function"
    },
    {
      "inputs": [
        {
          "internalType": "uint256",
          "name": "apeId",
          "type": "uint256"
        },
        {
          "internalType": "uint8",
          "name": "serumTypeId",
          "type": "uint8"
        }
      ],
      "name": "getMutantIdForApeAndSerumCombination",
      "outputs": [
        {
          "internalType": "uint256",
          "name": "",
          "type": "uint256"
        }
      ],
      "stateMutability": "view",
      "type": "function"
    },
    {
      "inputs": [
        {
          "internalType": "uint8",
          "name": "serumType",
          "type": "uint8"
        },
        {
          "internalType": "uint256",
          "name": "apeId",
          "type": "uint256"
        }
      ],
      "name": "hasApeBeenMutatedWithType",
      "outputs": [
        {
          "internalType": "bool",
          "name": "",
          "type": "bool"
        }
      ],
      "stateMutability": "view",
      "type": "function"
    },
    {
      "inputs": [
        {
          "internalType": "uint256",
          "name": "tokenId",
          "type": "uint256"
        }
      ],
      "name": "isMinted",
      "outputs": [
        {
          "internalType": "bool",
          "name": "",
          "type": "bool"
        }
      ],
      "stateMutability": "view",
      "type": "function"
    },
    {
      "inputs": [],
      "name": "totalApesMutated",
      "outputs": [
        {
          "internalType": "uint256",
          "name": "",
          "type": "uint256"
        }
      ],
      "stateMutability": "view",
      "type": "function"
    },
    {
      "inputs": [
        {
          "internalType": "string",
          "name": "uri",
          "type": "string"
        }
      ],
      "name": "setBaseURI",
      "outputs": [],
      "stateMutability": "nonpayable",
      "type": "function"
    },
    {
      "inputs": [],
      "name": "togglePublicSaleActive",
      "outputs": [],
      "stateMutability": "nonpayable",
      "type": "function"
    },
    {
      "inputs": [],
      "name": "toggleSerumMutationActive",
      "outputs": [],
      "stateMutability": "nonpayable",
      "type": "function"
    },
    {
      "inputs": [],
      "name": "setStartingIndices",
      "outputs": [],
      "stateMutability": "nonpayable",
      "type": "function"
    }
  ],
  "bytecode": "0x60c06040526014805461ffff19166175301790553480156200002057600080fd5b506040516200358538038062003585833981016040819052620000439162000286565b8351849084906200005c9060009060208501906200010c565b508051620000729060019060208401906200010c565b5050506200008f62000089620000b660201b60201c565b620000ba565b6001600b556001600160601b0319606092831b8116608052911b1660a05250620003689050565b3390565b600a80546001600160a01b038381166001600160a01b0319831681179093556040519116919082907f8be0079c531659141344cd1fd0a4f28419497f9722a3daafe3b4186f6b6457e090600090a35050565b8280546200011a9062000315565b90600052602060002090601f0160209004810192826200013e576000855562000189565b82601f106200015957805160ff191683800117855562000189565b8280016001018555821562000189579182015b82811115620001895782518255916020019190600101906200016c565b50620001979291506200019b565b5090565b5b808211156200019757600081556001016200019c565b80516001600160a01b0381168114620001ca57600080fd5b919050565b600082601f830112620001e157600080fd5b81516001600160401b0380821115620001fe57620001fe62000352565b604051601f8301601f19908116603f0116810190828211818310171562000229576200022962000352565b816040528381526020925086838588010111156200024657600080fd5b600091505b838210156200026a57858201830151818301840152908201906200024b565b838211156200027c5760008385830101525b9695505050505050565b600080600080608085870312156200029d57600080fd5b84516001600160401b0380821115620002b557600080fd5b620002c388838901620001cf565b95506020870151915080821115620002da57600080fd5b50620002e987828801620001cf565b935050620002fa60408601620001b2565b91506200030a60608601620001b2565b905092959194509250565b600181811c908216806200032a57607f821691505b602082108114156200034c57634e487b7160e01b600052602260045260246000fd5b50919050565b634e487b7160e01b600052604160045260246000fd5b60805160601c60a05160601c6131ea6200039b60003960008181611a830152611d3e0152600061198001526131ea6000f3fe6080604052600436106102ad5760003560e01c8063715018a611610175578063c87b56dd116100dc578063e43437c811610095578063e985e9c51161006f578063e985e9c514610776578063ee211233146107bf578063f2fde38b146107df578063fd48354e146107ff57600080fd5b8063e43437c814610740578063e6f0df8c1461050f578063e73a9a251461075657600080fd5b8063c87b56dd146106a6578063c973d72d146106c6578063d0b77feb146106dc578063e1c3ad0c146106f1578063e2d9f68514610710578063e3764a8b1461072557600080fd5b8063b23142e21161012e578063b23142e21461060e578063b88d4fde14610624578063bc8893b414610644578063bd5e5e0c1461065e578063c0bb92ea1461067e578063c15e24bc1461069357600080fd5b8063715018a61461057b578063725ae16c146105905780638da5cb5b146105a657806395d89b41146105c4578063a22cb465146105d9578063a7f93ebd146105f957600080fd5b806333c41a901161021957806355f804b3116101d257806355f804b3146104da578063567ac4f6146104fa57806361169ea81461050f5780636352211e146105255780636bb7b1d91461054557806370a082311461055b57600080fd5b806333c41a90146104305780633a12e933146104505780633ccfd60b1461047057806342842e0e1461048557806348cd4f08146104a55780634f6ccce7146104ba57600080fd5b80630c41f4971161026b5780630c41f4971461039b5780630c894cfe146103b057806318160ddd146103c557806323b872dd146103da5780632f2eda31146103fa5780632f745c591461041057600080fd5b8062dbabc7146102b257806301ffc9a7146102c957806306fdde03146102fe578063081812fc14610320578063095ea7b3146103585780630af7f2b814610378575b600080fd5b3480156102be57600080fd5b506102c7610815565b005b3480156102d557600080fd5b506102e96102e4366004612ce8565b610a81565b60405190151581526020015b60405180910390f35b34801561030a57600080fd5b50610313610aac565b6040516102f59190612e9f565b34801561032c57600080fd5b5061034061033b366004612d6b565b610b3e565b6040516001600160a01b0390911681526020016102f5565b34801561036457600080fd5b506102c7610373366004612cbc565b610bc6565b34801561038457600080fd5b5061038d601481565b6040519081526020016102f5565b3480156103a757600080fd5b506102c7610cdc565b3480156103bc57600080fd5b506102c7610d74565b3480156103d157600080fd5b5060085461038d565b3480156103e657600080fd5b506102c76103f5366004612bc8565b610db2565b34801561040657600080fd5b5061038d60115481565b34801561041c57600080fd5b5061038d61042b366004612cbc565b610de3565b34801561043c57600080fd5b506102e961044b366004612d6b565b610e79565b34801561045c57600080fd5b506102c761046b366004612d9d565b610edf565b34801561047c57600080fd5b506102c7610fa8565b34801561049157600080fd5b506102c76104a0366004612bc8565b610ff1565b3480156104b157600080fd5b5061038d61100c565b3480156104c657600080fd5b5061038d6104d5366004612d6b565b611029565b3480156104e657600080fd5b506102c76104f5366004612d22565b6110bc565b34801561050657600080fd5b5061038d6110fd565b34801561051b57600080fd5b5061038d61271081565b34801561053157600080fd5b50610340610540366004612d6b565b611177565b34801561055157600080fd5b5061038d600f5481565b34801561056757600080fd5b5061038d610576366004612b55565b6111ee565b34801561058757600080fd5b506102c7611275565b34801561059c57600080fd5b5061038d60125481565b3480156105b257600080fd5b50600a546001600160a01b0316610340565b3480156105d057600080fd5b506103136112ab565b3480156105e557600080fd5b506102c76105f4366004612c89565b6112ba565b34801561060557600080fd5b5061038d61137f565b34801561061a57600080fd5b5061038d60135481565b34801561063057600080fd5b506102c761063f366004612c09565b611419565b34801561065057600080fd5b506010546102e99060ff1681565b34801561066a57600080fd5b5061038d610679366004612dbf565b611451565b34801561068a57600080fd5b5061038d600881565b6102c76106a1366004612d6b565b611527565b3480156106b257600080fd5b506103136106c1366004612d6b565b611784565b3480156106d257600080fd5b5061038d600c5481565b3480156106e857600080fd5b506102c761184e565b3480156106fd57600080fd5b506010546102e990610100900460ff1681565b34801561071c57600080fd5b50610313611895565b34801561073157600080fd5b5061038d662386f26fc1000081565b34801561074c57600080fd5b5061038d600d5481565b34801561076257600080fd5b506102c7610771366004612d9d565b6118b1565b34801561078257600080fd5b506102e9610791366004612b8f565b6001600160a01b03918216600090815260056020908152604080832093909416825291909152205460ff1690565b3480156107cb57600080fd5b506102e96107da366004612deb565b611db6565b3480156107eb57600080fd5b506102c76107fa366004612b55565b611dfd565b34801561080b57600080fd5b5061038d600e5481565b6012541561087f5760405162461bcd60e51b815260206004820152602c60248201527f4d696e746564204d7574616e7473207374617274696e6720696e64657820697360448201526b08185b1c9958591e481cd95d60a21b60648201526084015b60405180910390fd5b601354156108e25760405162461bcd60e51b815260206004820152602a60248201527f4d656761204d7574616e7473207374617274696e6720696e64657820697320616044820152691b1c9958591e481cd95d60b21b6064820152608401610876565b6011546109315760405162461bcd60e51b815260206004820181905260248201527f5374617274696e6720696e64657820626c6f636b206d757374206265207365746044820152606401610876565b600061093b611e95565b9050600e54811015801561095157506000600f54115b6109ab5760405162461bcd60e51b815260206004820152602560248201527f496e76616c6964207365745374617274696e67496e646963657320636f6e646960448201526474696f6e7360d81b6064820152608401610876565b6109b9601154612710611eb3565b6012556011546109ca906008611eb3565b60135560115460ff906109dd904361300c565b1115610a15576109f96109f160014361300c565b612710611eb3565b601255610a11610a0a60014361300c565b6008611eb3565b6013555b601254610a325760128054906000610a2c836130ac565b91905055505b601354610a4f5760138054906000610a49836130ac565b91905055505b6013546012546040517f78350484f1ffcc8f055a7c88028cb214465df9c18d7d2b8c6584ab2389c4bceb90600090a350565b60006001600160e01b0319821663780e9d6360e01b1480610aa65750610aa682611ec0565b92915050565b606060008054610abb9061304f565b80601f0160208091040260200160405190810160405280929190818152602001828054610ae79061304f565b8015610b345780601f10610b0957610100808354040283529160200191610b34565b820191906000526020600020905b815481529060010190602001808311610b1757829003601f168201915b5050505050905090565b6000610b4982611f10565b610baa5760405162461bcd60e51b815260206004820152602c60248201527f4552433732313a20617070726f76656420717565727920666f72206e6f6e657860448201526b34b9ba32b73a103a37b5b2b760a11b6064820152608401610876565b506000908152600460205260409020546001600160a01b031690565b6000610bd182611177565b9050806001600160a01b0316836001600160a01b03161415610c3f5760405162461bcd60e51b815260206004820152602160248201527f4552433732313a20617070726f76616c20746f2063757272656e74206f776e656044820152603960f91b6064820152608401610876565b336001600160a01b0382161480610c5b5750610c5b8133610791565b610ccd5760405162461bcd60e51b815260206004820152603860248201527f4552433732313a20617070726f76652063616c6c6572206973206e6f74206f7760448201527f6e6572206e6f7220617070726f76656420666f7220616c6c00000000000000006064820152608401610876565b610cd78383611f2d565b505050565b600a546001600160a01b03163314610d065760405162461bcd60e51b815260040161087690612f3b565b60105460ff16610d285760405162461bcd60e51b815260040161087690612f04565b6000610d3261137f565b6010805460ff191690559050610d46611e95565b60405182907f11be19c514ca2377de0ba482bedfd33a9a262050819cf2b8bc52c04298447f3090600090a350565b600a546001600160a01b03163314610d9e5760405162461bcd60e51b815260040161087690612f3b565b6010805460ff19811660ff90911615179055565b610dbc3382611f9b565b610dd85760405162461bcd60e51b815260040161087690612f70565b610cd7838383612081565b6000610dee836111ee565b8210610e505760405162461bcd60e51b815260206004820152602b60248201527f455243373231456e756d657261626c653a206f776e657220696e646578206f7560448201526a74206f6620626f756e647360a81b6064820152608401610876565b506001600160a01b03919091166000908152600660209081526040808320938352929052205490565b60006175378210610ed65760405162461bcd60e51b815260206004820152602160248201527f746f6b656e4964206f75747369646520636f6c6c656374696f6e20626f756e646044820152607360f81b6064820152608401610876565b610aa682611f10565b600a546001600160a01b03163314610f095760405162461bcd60e51b815260040161087690612f3b565b60105460ff1615610f5c5760405162461bcd60e51b815260206004820152601d60248201527f5075626c69632073616c652068617320616c726561647920626567756e0000006044820152606401610876565b600e829055600c81905542600f8190556010805460ff1916600117905560405183907fe7a2bd41b03361b062f9a965bb9dab248ea91b878e26faf49eabd35df4a2c4d190600090a35050565b600a546001600160a01b03163314610fd25760405162461bcd60e51b815260040161087690612f3b565b47610fee610fe8600a546001600160a01b031690565b8261222c565b50565b610cd783838360405180602001604052806000815250611419565b6000600d5461101a60085490565b611024919061300c565b905090565b600061103460085490565b82106110975760405162461bcd60e51b815260206004820152602c60248201527f455243373231456e756d657261626c653a20676c6f62616c20696e646578206f60448201526b7574206f6620626f756e647360a01b6064820152608401610876565b600882815481106110aa576110aa61311d565b90600052602060002001549050919050565b600a546001600160a01b031633146110e65760405162461bcd60e51b815260040161087690612f3b565b80516110f9906016906020840190612a39565b5050565b600080600f54116111505760405162461bcd60e51b815260206004820152601e60248201527f5075626c69632073616c65206861736e277420737461727465642079657400006044820152606401610876565b600e5461115b611e95565b106111665750600090565b42600e54600f5461101a9190612fc1565b6000818152600260205260408120546001600160a01b031680610aa65760405162461bcd60e51b815260206004820152602960248201527f4552433732313a206f776e657220717565727920666f72206e6f6e657869737460448201526832b73a103a37b5b2b760b91b6064820152608401610876565b60006001600160a01b0382166112595760405162461bcd60e51b815260206004820152602a60248201527f4552433732313a2062616c616e636520717565727920666f7220746865207a65604482015269726f206164647265737360b01b6064820152608401610876565b506001600160a01b031660009081526003602052604090205490565b600a546001600160a01b0316331461129f5760405162461bcd60e51b815260040161087690612f3b565b6112a96000612345565b565b606060018054610abb9061304f565b6001600160a01b0382163314156113135760405162461bcd60e51b815260206004820152601960248201527f4552433732313a20617070726f766520746f2063616c6c6572000000000000006044820152606401610876565b3360008181526005602090815260408083206001600160a01b03871680855290835292819020805460ff191686151590811790915590519081529192917f17307eab39ab6107e8899845ad3d59bd9653f200f220920489ca2b5937696c31910160405180910390a35050565b60105460009060ff166113a45760405162461bcd60e51b815260040161087690612f04565b60006113ae611e95565b9050600e5481106113c757662386f26fc1000091505090565b600e54600c54600091906113db848361300c565b6113e59190612fed565b6113ef9190612fd9565b9050662386f26fc10000811161140c57662386f26fc1000061140e565b805b9250505090565b5090565b6114233383611f9b565b61143f5760405162461bcd60e51b815260040161087690612f70565b61144b84848484612397565b50505050565b60008060458360ff1614156114bb5750600083815260156020526040902054806114b65760405162461bcd60e51b8152602060048201526016602482015275125b9d985b1a5908135151d048135d5d185b9d08125960521b6044820152606401610876565b6114cb565b6114c88360ff16856123ca565b90505b6114d481611f10565b6115205760405162461bcd60e51b815260206004820152601c60248201527f517565727920666f72206e6f6e6578697374656e74206d7574616e74000000006044820152606401610876565b9392505050565b60105460ff166115495760405162461bcd60e51b815260040161087690612f04565b6002600b54141561159c5760405162461bcd60e51b815260206004820152601f60248201527f5265656e7472616e637947756172643a207265656e7472616e742063616c6c006044820152606401610876565b6002600b55600d54612710906115b3908390612fc1565b11156116015760405162461bcd60e51b815260206004820152601f60248201527f4d696e74696e6720776f756c6420657863656564206d617820737570706c79006044820152606401610876565b600081116116515760405162461bcd60e51b815260206004820152601d60248201527f4d757374206d696e74206174206c65617374206f6e65206d7574616e740000006044820152606401610876565b60148111156116a25760405162461bcd60e51b815260206004820181905260248201527f526571756573746564206e756d6265722065786365656473206d6178696d756d6044820152606401610876565b6000816116ad61137f565b6116b79190612fed565b9050348111156117095760405162461bcd60e51b815260206004820152601f60248201527f45746865722076616c75652073656e74206973206e6f7420636f7272656374006044820152606401610876565b60125461171557436011555b60005b8281101561175f57600d5461271081101561174c57600d805490600061173d836130ac565b919050555061174c338261244b565b5080611757816130ac565b915050611718565b508034111561177b5761177b33611776833461300c565b61222c565b50506001600b55565b606061178f82611f10565b6117f35760405162461bcd60e51b815260206004820152602f60248201527f4552433732314d657461646174613a2055524920717565727920666f72206e6f60448201526e3732bc34b9ba32b73a103a37b5b2b760891b6064820152608401610876565b60006117fd612465565b9050600081511161181d5760405180602001604052806000815250611520565b8061182784612474565b604051602001611838929190612e33565b6040516020818303038152906040529392505050565b600a546001600160a01b031633146118785760405162461bcd60e51b815260040161087690612f3b565b6010805461ff001981166101009182900460ff1615909102179055565b6040518060600160405280604081526020016131756040913981565b6002600b5414156119045760405162461bcd60e51b815260206004820152601f60248201527f5265656e7472616e637947756172643a207265656e7472616e742063616c6c006044820152606401610876565b6002600b55601054610100900460ff166119605760405162461bcd60e51b815260206004820152601c60248201527f536572756d204d75746174696f6e206973206e6f7420616374697665000000006044820152606401610876565b6040516331a9108f60e11b81526004810182905233906001600160a01b037f00000000000000000000000000000000000000000000000000000000000000001690636352211e9060240160206040518083038186803b1580156119c257600080fd5b505afa1580156119d6573d6000803e3d6000fd5b505050506040513d601f19601f820116820180604052508101906119fa9190612b72565b6001600160a01b031614611a655760405162461bcd60e51b815260206004820152602c60248201527f4d757374206f776e207468652061706520796f7527726520617474656d70746960448201526b6e6720746f206d757461746560a01b6064820152608401610876565b604051627eeac760e11b8152336004820152602481018390526000907f00000000000000000000000000000000000000000000000000000000000000006001600160a01b03169062fdd58e9060440160206040518083038186803b158015611acc57600080fd5b505afa158015611ae0573d6000803e3d6000fd5b505050506040513d601f19601f82011682018060405250810190611b049190612d84565b11611b6c5760405162461bcd60e51b815260206004820152603260248201527f4d757374206f776e206174206c65617374206f6e65206f66207468697320736560448201527172756d207479706520746f206d757461746560701b6064820152608401610876565b60006045831415611cac5760145461753761ffff9091161115611bed5760405162461bcd60e51b815260206004820152603360248201527f576f756c642065786365656420737570706c79206f6620736572756d2d6d7574604482015272617461626c65204d454741204d5554414e545360681b6064820152608401610876565b60008281526015602052604090205415611c5e5760405162461bcd60e51b815260206004820152602c60248201527f41706520616c7265616479206d7574617465642077697468204d454741204d5560448201526b544154494f4e20534552554d60a01b6064820152608401610876565b5060148054600083815260156020526040812061ffff928316908190558354909392169190611c8c8361308a565b91906101000a81548161ffff021916908361ffff16021790555050611d22565b611cb683836123ca565b9050611cc181611f10565b15611d225760405162461bcd60e51b815260206004820152602b60248201527f41706520616c7265616479206d7574617465642077697468207468697320747960448201526a7065206f6620736572756d60a81b6064820152608401610876565b6040516370ff9ea360e01b8152600481018490523360248201527f00000000000000000000000000000000000000000000000000000000000000006001600160a01b0316906370ff9ea390604401600060405180830381600087803b158015611d8a57600080fd5b505af1158015611d9e573d6000803e3d6000fd5b50505050611dac338261244b565b50506001600b5550565b600060458360ff161415611ddb57506000818152601560205260409020541515610aa6565b6000611dea8460ff16846123ca565b9050611df581611f10565b949350505050565b600a546001600160a01b03163314611e275760405162461bcd60e51b815260040161087690612f3b565b6001600160a01b038116611e8c5760405162461bcd60e51b815260206004820152602660248201527f4f776e61626c653a206e6577206f776e657220697320746865207a65726f206160448201526564647265737360d01b6064820152608401610876565b610fee81612345565b600080600f5411611ea65750600090565b600f54611024904261300c565b60006115208284406130c7565b60006001600160e01b031982166380ac58cd60e01b1480611ef157506001600160e01b03198216635b5e139f60e01b145b80610aa657506301ffc9a760e01b6001600160e01b0319831614610aa6565b6000908152600260205260409020546001600160a01b0316151590565b600081815260046020526040902080546001600160a01b0319166001600160a01b0384169081179091558190611f6282611177565b6001600160a01b03167f8c5be1e5ebec7d5bd14f71427d1e84f3dd0314c0f7b2291e5b200ac8c7c3b92560405160405180910390a45050565b6000611fa682611f10565b6120075760405162461bcd60e51b815260206004820152602c60248201527f4552433732313a206f70657261746f7220717565727920666f72206e6f6e657860448201526b34b9ba32b73a103a37b5b2b760a11b6064820152608401610876565b600061201283611177565b9050806001600160a01b0316846001600160a01b0316148061204d5750836001600160a01b031661204284610b3e565b6001600160a01b0316145b80611df557506001600160a01b0380821660009081526005602090815260408083209388168352929052205460ff16611df5565b826001600160a01b031661209482611177565b6001600160a01b0316146120fc5760405162461bcd60e51b815260206004820152602960248201527f4552433732313a207472616e73666572206f6620746f6b656e2074686174206960448201526839903737ba1037bbb760b91b6064820152608401610876565b6001600160a01b03821661215e5760405162461bcd60e51b8152602060048201526024808201527f4552433732313a207472616e7366657220746f20746865207a65726f206164646044820152637265737360e01b6064820152608401610876565b612169838383612572565b612174600082611f2d565b6001600160a01b038316600090815260036020526040812080546001929061219d90849061300c565b90915550506001600160a01b03821660009081526003602052604081208054600192906121cb908490612fc1565b909155505060008181526002602052604080822080546001600160a01b0319166001600160a01b0386811691821790925591518493918716917fddf252ad1be2c89b69c2b068fc378daa952ba7f163c4a11628f55a4df523b3ef91a4505050565b8047101561227c5760405162461bcd60e51b815260206004820152601d60248201527f416464726573733a20696e73756666696369656e742062616c616e63650000006044820152606401610876565b6000826001600160a01b03168260405160006040518083038185875af1925050503d80600081146122c9576040519150601f19603f3d011682016040523d82523d6000602084013e6122ce565b606091505b5050905080610cd75760405162461bcd60e51b815260206004820152603a60248201527f416464726573733a20756e61626c6520746f2073656e642076616c75652c207260448201527f6563697069656e74206d617920686176652072657665727465640000000000006064820152608401610876565b600a80546001600160a01b038381166001600160a01b0319831681179093556040519116919082907f8be0079c531659141344cd1fd0a4f28419497f9722a3daafe3b4186f6b6457e090600090a35050565b6123a2848484612081565b6123ae8484848461262a565b61144b5760405162461bcd60e51b815260040161087690612eb2565b600060458314156124285760405162461bcd60e51b815260206004820152602260248201527f4d656761206d7574616e742049442063616e27742062652063616c63756c6174604482015261195960f21b6064820152608401610876565b61271083612437600285612fed565b6124419190612fc1565b6115209190612fc1565b6110f9828260405180602001604052806000815250612737565b606060168054610abb9061304f565b6060816124985750506040805180820190915260018152600360fc1b602082015290565b8160005b81156124c257806124ac816130ac565b91506124bb9050600a83612fd9565b915061249c565b60008167ffffffffffffffff8111156124dd576124dd613133565b6040519080825280601f01601f191660200182016040528015612507576020820181803683370190505b5090505b8415611df55761251c60018361300c565b9150612529600a866130c7565b612534906030612fc1565b60f81b8183815181106125495761254961311d565b60200101906001600160f81b031916908160001a90535061256b600a86612fd9565b945061250b565b6001600160a01b0383166125cd576125c881600880546000838152600960205260408120829055600182018355919091527ff3f7a9fe364faab93b216da50a3214154f22a0a2b415b23a84c8169e8b636ee30155565b6125f0565b816001600160a01b0316836001600160a01b0316146125f0576125f0838261276a565b6001600160a01b03821661260757610cd781612807565b826001600160a01b0316826001600160a01b031614610cd757610cd782826128b6565b60006001600160a01b0384163b1561272c57604051630a85bd0160e11b81526001600160a01b0385169063150b7a029061266e903390899088908890600401612e62565b602060405180830381600087803b15801561268857600080fd5b505af19250505080156126b8575060408051601f3d908101601f191682019092526126b591810190612d05565b60015b612712573d8080156126e6576040519150601f19603f3d011682016040523d82523d6000602084013e6126eb565b606091505b50805161270a5760405162461bcd60e51b815260040161087690612eb2565b805181602001fd5b6001600160e01b031916630a85bd0160e11b149050611df5565b506001949350505050565b61274183836128fa565b61274e600084848461262a565b610cd75760405162461bcd60e51b815260040161087690612eb2565b60006001612777846111ee565b612781919061300c565b6000838152600760205260409020549091508082146127d4576001600160a01b03841660009081526006602090815260408083208584528252808320548484528184208190558352600790915290208190555b5060009182526007602090815260408084208490556001600160a01b039094168352600681528383209183525290812055565b6008546000906128199060019061300c565b600083815260096020526040812054600880549394509092849081106128415761284161311d565b9060005260206000200154905080600883815481106128625761286261311d565b600091825260208083209091019290925582815260099091526040808220849055858252812055600880548061289a5761289a613107565b6001900381819060005260206000200160009055905550505050565b60006128c1836111ee565b6001600160a01b039093166000908152600660209081526040808320868452825280832085905593825260079052919091209190915550565b6001600160a01b0382166129505760405162461bcd60e51b815260206004820181905260248201527f4552433732313a206d696e7420746f20746865207a65726f20616464726573736044820152606401610876565b61295981611f10565b156129a65760405162461bcd60e51b815260206004820152601c60248201527f4552433732313a20746f6b656e20616c7265616479206d696e746564000000006044820152606401610876565b6129b260008383612572565b6001600160a01b03821660009081526003602052604081208054600192906129db908490612fc1565b909155505060008181526002602052604080822080546001600160a01b0319166001600160a01b03861690811790915590518392907fddf252ad1be2c89b69c2b068fc378daa952ba7f163c4a11628f55a4df523b3ef908290a45050565b828054612a459061304f565b90600052602060002090601f016020900481019282612a675760008555612aad565b82601f10612a8057805160ff1916838001178555612aad565b82800160010185558215612aad579182015b82811115612aad578251825591602001919060010190612a92565b506114159291505b808211156114155760008155600101612ab5565b600067ffffffffffffffff80841115612ae457612ae4613133565b604051601f8501601f19908116603f01168101908282118183101715612b0c57612b0c613133565b81604052809350858152868686011115612b2557600080fd5b858560208301376000602087830101525050509392505050565b803560ff81168114612b5057600080fd5b919050565b600060208284031215612b6757600080fd5b813561152081613149565b600060208284031215612b8457600080fd5b815161152081613149565b60008060408385031215612ba257600080fd5b8235612bad81613149565b91506020830135612bbd81613149565b809150509250929050565b600080600060608486031215612bdd57600080fd5b8335612be881613149565b92506020840135612bf881613149565b929592945050506040919091013590565b60008060008060808587031215612c1f57600080fd5b8435612c2a81613149565b93506020850135612c3a81613149565b925060408501359150606085013567ffffffffffffffff811115612c5d57600080fd5b8501601f81018713612c6e57600080fd5b612c7d87823560208401612ac9565b91505092959194509250565b60008060408385031215612c9c57600080fd5b8235612ca781613149565b915060208301358015158114612bbd57600080fd5b60008060408385031215612ccf57600080fd5b8235612cda81613149565b946020939093013593505050565b600060208284031215612cfa57600080fd5b81356115208161315e565b600060208284031215612d1757600080fd5b81516115208161315e565b600060208284031215612d3457600080fd5b813567ffffffffffffffff811115612d4b57600080fd5b8201601f81018413612d5c57600080fd5b611df584823560208401612ac9565b600060208284031215612d7d57600080fd5b5035919050565b600060208284031215612d9657600080fd5b5051919050565b60008060408385031215612db057600080fd5b50508035926020909101359150565b60008060408385031215612dd257600080fd5b82359150612de260208401612b3f565b90509250929050565b60008060408385031215612dfe57600080fd5b612cda83612b3f565b60008151808452612e1f816020860160208601613023565b601f01601f19169290920160200192915050565b60008351612e45818460208801613023565b835190830190612e59818360208801613023565b01949350505050565b6001600160a01b0385811682528416602082015260408101839052608060608201819052600090612e9590830184612e07565b9695505050505050565b6020815260006115206020830184612e07565b60208082526032908201527f4552433732313a207472616e7366657220746f206e6f6e20455243373231526560408201527131b2b4bb32b91034b6b83632b6b2b73a32b960711b606082015260800190565b60208082526019908201527f5075626c69632073616c65206973206e6f742061637469766500000000000000604082015260600190565b6020808252818101527f4f776e61626c653a2063616c6c6572206973206e6f7420746865206f776e6572604082015260600190565b60208082526031908201527f4552433732313a207472616e736665722063616c6c6572206973206e6f74206f6040820152701ddb995c881b9bdc88185c1c1c9bdd9959607a1b606082015260800190565b60008219821115612fd457612fd46130db565b500190565b600082612fe857612fe86130f1565b500490565b6000816000190483118215151615613007576130076130db565b500290565b60008282101561301e5761301e6130db565b500390565b60005b8381101561303e578181015183820152602001613026565b8381111561144b5750506000910152565b600181811c9082168061306357607f821691505b6020821081141561308457634e487b7160e01b600052602260045260246000fd5b50919050565b600061ffff808316818114156130a2576130a26130db565b6001019392505050565b60006000198214156130c0576130c06130db565b5060010190565b6000826130d6576130d66130f1565b500690565b634e487b7160e01b600052601160045260246000fd5b634e487b7160e01b600052601260045260246000fd5b634e487b7160e01b600052603160045260246000fd5b634e487b7160e01b600052603260045260246000fd5b634e487b7160e01b600052604160045260246000fd5b6001600160a01b0381168114610fee57600080fd5b6001600160e01b031981168114610fee57600080fdfe63613731353163633433366461306463336133643636323639346638633964613561653339613733353566616261616663303065366161353830393237313735a264697066735822122071964564762855d23d36340fedb709c3432d0a1a490892955267aa979b80222264736f6c63430008060033",
  "immutableReferences": {
    "100": [
      {
        "length": 32,
        "start": 6528
      }
    ],
    "103": [
      {
        "length": 32,
        "start": 6787
      },
      {
        "length": 32,
        "start": 7486
      }
    ]
  },
  "source": "// SPDX-License-Identifier: MIT\npragma solidity 0.8.6;\n\nimport \"@openzeppelin/contracts/token/ERC721/extensions/ERC721Enumerable.sol\";\nimport \"@openzeppelin/contracts/access/Ownable.sol\";\nimport \"@openzeppelin/contracts/security/Pausable.sol\";\nimport \"@openzeppelin/contracts/security/ReentrancyGuard.sol\";\nimport \"@openzeppelin/contracts/utils/Strings.sol\";\nimport \"./Bayc.sol\";\nimport \"./Bacc.sol\";\n\n//      |||||\\          |||||\\               |||||\\           |||||\\\n//      ||||| |         ||||| |              ||||| |          ||||| |\n//       \\__|||||\\  |||||\\___\\|               \\__|||||\\   |||||\\___\\|\n//          ||||| | ||||| |                      ||||| |  ||||| |\n//           \\__|||||\\___\\|       Y u g a         \\__|||||\\___\\|\n//              ||||| |             L a b s          ||||| |\n//          |||||\\___\\|                          |||||\\___\\|\n//          ||||| |                              ||||| |\n//           \\__|||||||||||\\                      \\__|||||||||||\\\n//              ||||||||||| |                        ||||||||||| |\n//               \\_________\\|                         \\_________\\|\n\ncontract MutantApeYachtClub is ERC721Enumerable, Ownable, ReentrancyGuard {\n    // Provenance hash for all mutants (Minted, Mutated Ape, MEGA)\n    string public constant MAYC_PROVENANCE = \"ca7151cc436da0dc3a3d662694f8c9da5ae39a7355fabaafc00e6aa580927175\";\n    \n    // IDs 0 - 9999: Minted Mutants\n    // IDs 10000 - 29999: Mutated Apes\n    // IDs 30000 - 3007: MEGA Mutants\n    uint8 private constant NUM_MUTANT_TYPES = 2;\n    uint256 private constant MEGA_MUTATION_TYPE = 69;\n    uint256 public constant NUM_MEGA_MUTANTS = 8;\n    uint16 private constant MAX_MEGA_MUTATION_ID = 30007;\n    uint256 public constant SERUM_MUTATION_OFFSET = 10000;\n\n    uint256 public constant PS_MAX_MUTANT_PURCHASE = 20;\n    // Max supply of Minted Mutants\n    uint256 public constant PS_MAX_MUTANTS = 10000;\n    // Public sale final price - 0.01 ETH\n    uint256 public constant PS_MUTANT_ENDING_PRICE = 10000000000000000;\n\n    // Public sale starting price - mutable, in case we need to pause\n    // and restart the sale\n    uint256 public publicSaleMutantStartingPrice;\n\n    // Supply of Minted Mutants (not Mutated Apes)\n    uint256 public numMutantsMinted;\n\n    // Public sale params\n    uint256 public publicSaleDuration;\n    uint256 public publicSaleStartTime;\n\n    // Sale switches\n    bool public publicSaleActive;\n    bool public serumMutationActive;\n\n    // Starting index block for the entire collection\n    uint256 public collectionStartingIndexBlock;\n    // Starting index for Minted Mutants\n    uint256 public mintedMutantsStartingIndex;\n    // Starting index for MEGA Mutants\n    uint256 public megaMutantsStartingIndex;\n\n    uint16 private currentMegaMutationId = 30000;\n    mapping(uint256 => uint256) private megaMutationIdsByApe;\n\n    string private baseURI;\n    Bayc private immutable bayc;\n    Bacc private immutable bacc;\n\n    event MutantPublicSaleStart(\n        uint256 indexed _saleDuration,\n        uint256 indexed _saleStartTime\n    );\n    event MutantPublicSalePaused(\n        uint256 indexed _currentPrice,\n        uint256 indexed _timeElapsed\n    );\n    event StartingIndicesSet(\n        uint256 indexed _mintedMutantsStartingIndex,\n        uint256 indexed _megaMutantsStartingIndex\n    );\n\n    modifier whenPublicSaleActive() {\n        require(publicSaleActive, \"Public sale is not active\");\n        _;\n    }\n\n    modifier startingIndicesNotSet() {\n        require(\n            mintedMutantsStartingIndex == 0,\n            \"Minted Mutants starting index is already set\"\n        );\n        require(\n            megaMutantsStartingIndex == 0,\n            \"Mega Mutants starting index is already set\"\n        );\n        _;\n    }\n\n    constructor(\n        string memory name,\n        string memory symbol,\n        address baycAddress,\n        address baccAddress\n    ) ERC721(name, symbol) {\n        bayc = Bayc(baycAddress);\n        bacc = Bacc(baccAddress);\n    }\n\n    function startPublicSale(uint256 saleDuration, uint256 saleStartPrice)\n        external\n        onlyOwner\n    {\n        require(!publicSaleActive, \"Public sale has already begun\");\n        publicSaleDuration = saleDuration;\n        publicSaleMutantStartingPrice = saleStartPrice;\n        publicSaleStartTime = block.timestamp;\n        publicSaleActive = true;\n        emit MutantPublicSaleStart(saleDuration, publicSaleStartTime);\n    }\n\n    function pausePublicSale() external onlyOwner whenPublicSaleActive {\n        uint256 currentSalePrice = getMintPrice();\n        publicSaleActive = false;\n        emit MutantPublicSalePaused(currentSalePrice, getElapsedSaleTime());\n    }\n\n    function getElapsedSaleTime() internal view returns (uint256) {\n        return\n            publicSaleStartTime > 0 ? block.timestamp - publicSaleStartTime : 0;\n    }\n\n    function getRemainingSaleTime() external view returns (uint256) {\n        require(publicSaleStartTime > 0, \"Public sale hasn't started yet\");\n        if (getElapsedSaleTime() >= publicSaleDuration) {\n            return 0;\n        }\n\n        return (publicSaleStartTime + publicSaleDuration) - block.timestamp;\n    }\n\n    function getMintPrice() public view whenPublicSaleActive returns (uint256) {\n        uint256 elapsed = getElapsedSaleTime();\n        if (elapsed >= publicSaleDuration) {\n            return PS_MUTANT_ENDING_PRICE;\n        } else {\n            uint256 currentPrice = ((publicSaleDuration - elapsed) *\n                publicSaleMutantStartingPrice) / publicSaleDuration;\n            return\n                currentPrice > PS_MUTANT_ENDING_PRICE\n                    ? currentPrice\n                    : PS_MUTANT_ENDING_PRICE;\n        }\n    }\n\n    function withdraw() external onlyOwner {\n        uint256 balance = address(this).balance;\n        Address.sendValue(payable(owner()), balance);\n    }\n\n    function mintMutants(uint256 numMutants)\n        external\n        payable\n        whenPublicSaleActive\n        nonReentrant\n    {\n        require(\n            numMutantsMinted + numMutants <= PS_MAX_MUTANTS,\n            \"Minting would exceed max supply\"\n        );\n        require(numMutants > 0, \"Must mint at least one mutant\");\n        require(\n            numMutants <= PS_MAX_MUTANT_PURCHASE,\n            \"Requested number exceeds maximum\"\n        );\n\n        uint256 costToMint = getMintPrice() * numMutants;\n        require(costToMint <= msg.value, \"Ether value sent is not correct\");\n        \n        if (mintedMutantsStartingIndex == 0) {\n            collectionStartingIndexBlock = block.number;\n        }\n\n        for (uint256 i = 0; i < numMutants; i++) {\n            uint256 mintIndex = numMutantsMinted;\n            if (numMutantsMinted < PS_MAX_MUTANTS) {\n                numMutantsMinted++;\n                _safeMint(msg.sender, mintIndex);\n            }\n        }\n\n        if (msg.value > costToMint) {\n            Address.sendValue(payable(msg.sender), msg.value - costToMint);\n        }\n    }\n    \n    function mutateApeWithSerum(uint256 serumTypeId, uint256 apeId)\n        external\n        nonReentrant\n    {\n        require(serumMutationActive, \"Serum Mutation is not active\");\n        require(\n            bayc.ownerOf(apeId) == msg.sender,\n            \"Must own the ape you're attempting to mutate\"\n        );\n        require(\n            bacc.balanceOf(msg.sender, serumTypeId) > 0,\n            \"Must own at least one of this serum type to mutate\"\n        );\n\n        uint256 mutantId;\n\n        if (serumTypeId == MEGA_MUTATION_TYPE) {\n            require(\n                currentMegaMutationId <= MAX_MEGA_MUTATION_ID,\n                \"Would exceed supply of serum-mutatable MEGA MUTANTS\"\n            );\n            require(\n                megaMutationIdsByApe[apeId] == 0,\n                \"Ape already mutated with MEGA MUTATION SERUM\"\n            );\n\n            mutantId = currentMegaMutationId;\n            megaMutationIdsByApe[apeId] = mutantId;\n            currentMegaMutationId++;\n        } else {\n            mutantId = getMutantId(serumTypeId, apeId);\n            require(\n                !_exists(mutantId),\n                \"Ape already mutated with this type of serum\"\n            );\n        }\n\n        bacc.burnSerumForAddress(serumTypeId, msg.sender);\n        _safeMint(msg.sender, mutantId);\n    }\n\n    function getMutantIdForApeAndSerumCombination(\n        uint256 apeId,\n        uint8 serumTypeId\n    ) external view returns (uint256) {\n        uint256 mutantId;\n        if (serumTypeId == MEGA_MUTATION_TYPE) {\n            mutantId = megaMutationIdsByApe[apeId];\n            require(mutantId > 0, \"Invalid MEGA Mutant Id\");\n        } else {\n            mutantId = getMutantId(serumTypeId, apeId);\n        }\n\n        require(_exists(mutantId), \"Query for nonexistent mutant\");\n\n        return mutantId;\n    }\n\n    function hasApeBeenMutatedWithType(uint8 serumType, uint256 apeId)\n        external\n        view\n        returns (bool)\n    {\n        if (serumType == MEGA_MUTATION_TYPE) {\n            return megaMutationIdsByApe[apeId] > 0;\n        }\n\n        uint256 mutantId = getMutantId(serumType, apeId);\n        return _exists(mutantId);\n    }\n\n    function getMutantId(uint256 serumType, uint256 apeId)\n        internal\n        pure\n        returns (uint256)\n    {\n        require(\n            serumType != MEGA_MUTATION_TYPE,\n            \"Mega mutant ID can't be calculated\"\n        );\n        return (apeId * NUM_MUTANT_TYPES) + serumType + SERUM_MUTATION_OFFSET;\n    }\n\n    function isMinted(uint256 tokenId) external view returns (bool) {\n        require(\n            tokenId < MAX_MEGA_MUTATION_ID,\n            \"tokenId outside collection bounds\"\n        );\n        return _exists(tokenId);\n    }\n\n    function totalApesMutated() external view returns (uint256) {\n        return totalSupply() - numMutantsMinted;\n    }\n\n    function _baseURI() internal view override returns (string memory) {\n        return baseURI;\n    }\n\n    function setBaseURI(string memory uri) external onlyOwner {\n        baseURI = uri;\n    }\n\n    function togglePublicSaleActive() external onlyOwner {\n        publicSaleActive = !publicSaleActive;\n    }\n\n    function toggleSerumMutationActive() external onlyOwner {\n        serumMutationActive = !serumMutationActive;\n    }\n\n    function calculateStartingIndex(uint256 blockNumber, uint256 collectionSize)\n        internal\n        view\n        returns (uint256)\n    {\n        return uint256(blockhash(blockNumber)) % collectionSize;\n    }\n    \n    function setStartingIndices() external startingIndicesNotSet {\n        require(\n            collectionStartingIndexBlock != 0,\n            \"Starting index block must be set\"\n        );\n        uint256 elapsed = getElapsedSaleTime();\n        require(\n            elapsed >= publicSaleDuration && publicSaleStartTime > 0,\n            \"Invalid setStartingIndices conditions\"\n        );\n\n        mintedMutantsStartingIndex = calculateStartingIndex(\n            collectionStartingIndexBlock,\n            PS_MAX_MUTANTS\n        );\n\n        megaMutantsStartingIndex = calculateStartingIndex(\n            collectionStartingIndexBlock,\n            NUM_MEGA_MUTANTS\n        );\n        \n        if ((block.number - collectionStartingIndexBlock) > 255) {\n            mintedMutantsStartingIndex = calculateStartingIndex(\n                block.number - 1,\n                PS_MAX_MUTANTS\n            );\n\n            megaMutantsStartingIndex = calculateStartingIndex(\n                block.number - 1,\n                NUM_MEGA_MUTANTS\n            );\n        }\n\n        // Prevent default sequence\n        if (mintedMutantsStartingIndex == 0) {\n            mintedMutantsStartingIndex++;\n        }\n        if (megaMutantsStartingIndex == 0) {\n            megaMutantsStartingIndex++;\n        }\n\n        emit StartingIndicesSet(\n            mintedMutantsStartingIndex,\n            megaMutantsStartingIndex\n        );\n    }\n}",
  "sourcePath": "C:/Users/Alex-Desktop/Desktop/arbitrum/contracts/MutantApeYachtClub.sol",
  "compiler": {
    "name": "solc",
    "version": "0.8.6+commit.11564f7e.Emscripten.clang"
  },
  "schemaVersion": "3.3.4",
  "updatedAt": "2022-03-02T22:57:36.240Z",
  "devdoc": {
    "kind": "dev",
    "methods": {
      "approve(address,uint256)": {
        "details": "See {IERC721-approve}."
      },
      "balanceOf(address)": {
        "details": "See {IERC721-balanceOf}."
      },
      "getApproved(uint256)": {
        "details": "See {IERC721-getApproved}."
      },
      "isApprovedForAll(address,address)": {
        "details": "See {IERC721-isApprovedForAll}."
      },
      "name()": {
        "details": "See {IERC721Metadata-name}."
      },
      "owner()": {
        "details": "Returns the address of the current owner."
      },
      "ownerOf(uint256)": {
        "details": "See {IERC721-ownerOf}."
      },
      "renounceOwnership()": {
        "details": "Leaves the contract without owner. It will not be possible to call `onlyOwner` functions anymore. Can only be called by the current owner. NOTE: Renouncing ownership will leave the contract without an owner, thereby removing any functionality that is only available to the owner."
      },
      "safeTransferFrom(address,address,uint256)": {
        "details": "See {IERC721-safeTransferFrom}."
      },
      "safeTransferFrom(address,address,uint256,bytes)": {
        "details": "See {IERC721-safeTransferFrom}."
      },
      "setApprovalForAll(address,bool)": {
        "details": "See {IERC721-setApprovalForAll}."
      },
      "supportsInterface(bytes4)": {
        "details": "See {IERC165-supportsInterface}."
      },
      "symbol()": {
        "details": "See {IERC721Metadata-symbol}."
      },
      "tokenByIndex(uint256)": {
        "details": "See {IERC721Enumerable-tokenByIndex}."
      },
      "tokenOfOwnerByIndex(address,uint256)": {
        "details": "See {IERC721Enumerable-tokenOfOwnerByIndex}."
      },
      "tokenURI(uint256)": {
        "details": "See {IERC721Metadata-tokenURI}."
      },
      "totalSupply()": {
        "details": "See {IERC721Enumerable-totalSupply}."
      },
      "transferFrom(address,address,uint256)": {
        "details": "See {IERC721-transferFrom}."
      },
      "transferOwnership(address)": {
        "details": "Transfers ownership of the contract to a new account (`newOwner`). Can only be called by the current owner."
      }
    },
    "version": 1
  },
  "userdoc": {
    "kind": "user",
    "methods": {},
    "version": 1
  }
}