{
  "contractName": "Delegated",
  "abi": [
    {
      "inputs": [],
      "stateMutability": "nonpayable",
      "type": "constructor"
    },
    {
      "anonymous": false,
      "inputs": [
        {
          "indexed": true,
          "internalType": "address",
          "name": "previousOwner",
          "type": "address"
        },
        {
          "indexed": true,
          "internalType": "address",
          "name": "newOwner",
          "type": "address"
        }
      ],
      "name": "OwnershipTransferred",
      "type": "event"
    },
    {
      "inputs": [],
      "name": "owner",
      "outputs": [
        {
          "internalType": "address",
          "name": "",
          "type": "address"
        }
      ],
      "stateMutability": "view",
      "type": "function"
    },
    {
      "inputs": [],
      "name": "renounceOwnership",
      "outputs": [],
      "stateMutability": "nonpayable",
      "type": "function"
    },
    {
      "inputs": [
        {
          "internalType": "address",
          "name": "addr",
          "type": "address"
        }
      ],
      "name": "isDelegate",
      "outputs": [
        {
          "internalType": "bool",
          "name": "",
          "type": "bool"
        }
      ],
      "stateMutability": "view",
      "type": "function"
    },
    {
      "inputs": [
        {
          "internalType": "address",
          "name": "addr",
          "type": "address"
        },
        {
          "internalType": "bool",
          "name": "isDelegate_",
          "type": "bool"
        }
      ],
      "name": "setDelegate",
      "outputs": [],
      "stateMutability": "nonpayable",
      "type": "function"
    },
    {
      "inputs": [
        {
          "internalType": "address",
          "name": "newOwner",
          "type": "address"
        }
      ],
      "name": "transferOwnership",
      "outputs": [],
      "stateMutability": "nonpayable",
      "type": "function"
    }
  ],
  "bytecode": "0x608060405234801561001057600080fd5b5061001a3361005e565b60018060006100316000546001600160a01b031690565b6001600160a01b031681526020810191909152604001600020805460ff19169115159190911790556100ae565b600080546001600160a01b038381166001600160a01b0319831681178455604051919092169283917f8be0079c531659141344cd1fd0a4f28419497f9722a3daafe3b4186f6b6457e09190a35050565b6103d5806100bd6000396000f3fe608060405234801561001057600080fd5b50600436106100575760003560e01c8063077796271461005c5780634a994eef14610084578063715018a6146100995780638da5cb5b146100a1578063f2fde38b146100bc575b600080fd5b61006f61006a36600461030c565b6100cf565b60405190151581526020015b60405180910390f35b61009761009236600461032e565b610126565b005b61009761017b565b6000546040516001600160a01b03909116815260200161007b565b6100976100ca36600461030c565b6101b1565b600080546001600160a01b031633146101035760405162461bcd60e51b81526004016100fa9061036a565b60405180910390fd5b506001600160a01b03811660009081526001602052604090205460ff165b919050565b6000546001600160a01b031633146101505760405162461bcd60e51b81526004016100fa9061036a565b6001600160a01b03919091166000908152600160205260409020805460ff1916911515919091179055565b6000546001600160a01b031633146101a55760405162461bcd60e51b81526004016100fa9061036a565b6101af600061020d565b565b6000546001600160a01b031633146101db5760405162461bcd60e51b81526004016100fa9061036a565b6001600160a01b0381166000908152600160208190526040909120805460ff1916909117905561020a8161025d565b50565b600080546001600160a01b038381166001600160a01b0319831681178455604051919092169283917f8be0079c531659141344cd1fd0a4f28419497f9722a3daafe3b4186f6b6457e09190a35050565b6000546001600160a01b031633146102875760405162461bcd60e51b81526004016100fa9061036a565b6001600160a01b0381166102ec5760405162461bcd60e51b815260206004820152602660248201527f4f776e61626c653a206e6577206f776e657220697320746865207a65726f206160448201526564647265737360d01b60648201526084016100fa565b61020a8161020d565b80356001600160a01b038116811461012157600080fd5b60006020828403121561031e57600080fd5b610327826102f5565b9392505050565b6000806040838503121561034157600080fd5b61034a836102f5565b91506020830135801515811461035f57600080fd5b809150509250929050565b6020808252818101527f4f776e61626c653a2063616c6c6572206973206e6f7420746865206f776e657260408201526060019056fea264697066735822122041f94ab69dbcd6ac21214cd0f8eca4026ac72e012db1b71b7987f19085b74f8164736f6c634300080c0033",
  "immutableReferences": {},
  "source": "// SPDX-License-Identifier: BSD-3-Clause\r\n\r\npragma solidity ^0.8.0;\r\n\r\n/***********************\r\n* @author: squeebo_nft *\r\n************************/\r\n\r\nimport \"@openzeppelin/contracts/access/Ownable.sol\";\r\n\r\ncontract Delegated is Ownable {\r\n  mapping(address => bool) internal _delegates;\r\n\r\n  constructor(){\r\n    _delegates[owner()] = true;\r\n  }\r\n\r\n  modifier onlyDelegates {\r\n    require(_delegates[msg.sender], \"Invalid delegate\" );\r\n    _;\r\n  }\r\n\r\n  //onlyOwner\r\n  function isDelegate( address addr ) external view onlyOwner returns ( bool ){\r\n    return _delegates[addr];\r\n  }\r\n\r\n  function setDelegate( address addr, bool isDelegate_ ) external onlyOwner{\r\n    _delegates[addr] = isDelegate_;\r\n  }\r\n\r\n  function transferOwnership(address newOwner) public virtual override onlyOwner {\r\n    _delegates[newOwner] = true;\r\n    super.transferOwnership( newOwner );\r\n  }\r\n}",
  "sourcePath": "C:\\Users\\Alex-Desktop\\Desktop\\nftswap\\smart-contracts\\contracts\\Delegated.sol",
  "compiler": {
    "name": "solc",
    "version": "0.8.12+commit.f00d7308.Emscripten.clang"
  },
  "schemaVersion": "3.4.5",
  "updatedAt": "2022-03-19T01:28:50.558Z",
  "devdoc": {
    "kind": "dev",
    "methods": {
      "owner()": {
        "details": "Returns the address of the current owner."
      },
      "renounceOwnership()": {
        "details": "Leaves the contract without owner. It will not be possible to call `onlyOwner` functions anymore. Can only be called by the current owner. NOTE: Renouncing ownership will leave the contract without an owner, thereby removing any functionality that is only available to the owner."
      },
      "transferOwnership(address)": {
        "details": "Transfers ownership of the contract to a new account (`newOwner`). Can only be called by the current owner."
      }
    },
    "version": 1
  },
  "userdoc": {
    "kind": "user",
    "methods": {},
    "version": 1
  }
}