{
  "contractName": "NftSwap",
  "abi": [
    {
      "inputs": [],
      "stateMutability": "nonpayable",
      "type": "constructor"
    },
    {
      "anonymous": false,
      "inputs": [
        {
          "indexed": false,
          "internalType": "address",
          "name": "nftAddress",
          "type": "address"
        },
        {
          "indexed": false,
          "internalType": "uint256",
          "name": "price",
          "type": "uint256"
        }
      ],
      "name": "AddNft",
      "type": "event"
    },
    {
      "anonymous": false,
      "inputs": [
        {
          "indexed": true,
          "internalType": "address",
          "name": "owner",
          "type": "address"
        },
        {
          "indexed": true,
          "internalType": "address",
          "name": "spender",
          "type": "address"
        },
        {
          "indexed": false,
          "internalType": "uint256",
          "name": "value",
          "type": "uint256"
        }
      ],
      "name": "Approval",
      "type": "event"
    },
    {
      "anonymous": false,
      "inputs": [
        {
          "indexed": true,
          "internalType": "address",
          "name": "user",
          "type": "address"
        },
        {
          "components": [
            {
              "internalType": "address",
              "name": "nftAddress",
              "type": "address"
            },
            {
              "internalType": "uint256",
              "name": "tokenId",
              "type": "uint256"
            }
          ],
          "indexed": false,
          "internalType": "struct NftSwap.swap[]",
          "name": "nfts",
          "type": "tuple[]"
        }
      ],
      "name": "DepositNfts",
      "type": "event"
    },
    {
      "anonymous": false,
      "inputs": [
        {
          "indexed": true,
          "internalType": "address",
          "name": "previousOwner",
          "type": "address"
        },
        {
          "indexed": true,
          "internalType": "address",
          "name": "newOwner",
          "type": "address"
        }
      ],
      "name": "OwnershipTransferred",
      "type": "event"
    },
    {
      "anonymous": false,
      "inputs": [
        {
          "indexed": false,
          "internalType": "uint256",
          "name": "fee",
          "type": "uint256"
        }
      ],
      "name": "SetOwnerFee",
      "type": "event"
    },
    {
      "anonymous": false,
      "inputs": [
        {
          "components": [
            {
              "internalType": "address",
              "name": "nftAddress",
              "type": "address"
            },
            {
              "internalType": "uint256",
              "name": "price",
              "type": "uint256"
            }
          ],
          "indexed": false,
          "internalType": "struct NftSwap.collection[]",
          "name": "",
          "type": "tuple[]"
        }
      ],
      "name": "SetPrices",
      "type": "event"
    },
    {
      "anonymous": false,
      "inputs": [
        {
          "indexed": false,
          "internalType": "uint256",
          "name": "fee",
          "type": "uint256"
        }
      ],
      "name": "SetStakersFee",
      "type": "event"
    },
    {
      "anonymous": false,
      "inputs": [
        {
          "indexed": true,
          "internalType": "address",
          "name": "user",
          "type": "address"
        },
        {
          "indexed": false,
          "internalType": "uint256",
          "name": "amount",
          "type": "uint256"
        }
      ],
      "name": "Stake",
      "type": "event"
    },
    {
      "anonymous": false,
      "inputs": [
        {
          "indexed": true,
          "internalType": "address",
          "name": "user",
          "type": "address"
        },
        {
          "components": [
            {
              "internalType": "address",
              "name": "nftAddress",
              "type": "address"
            },
            {
              "internalType": "uint256",
              "name": "tokenId",
              "type": "uint256"
            }
          ],
          "indexed": false,
          "internalType": "struct NftSwap.swap[]",
          "name": "inboundNfts",
          "type": "tuple[]"
        },
        {
          "components": [
            {
              "internalType": "address",
              "name": "nftAddress",
              "type": "address"
            },
            {
              "internalType": "uint256",
              "name": "tokenId",
              "type": "uint256"
            }
          ],
          "indexed": false,
          "internalType": "struct NftSwap.swap[]",
          "name": "outboundNfts",
          "type": "tuple[]"
        }
      ],
      "name": "SwapNfts",
      "type": "event"
    },
    {
      "anonymous": false,
      "inputs": [
        {
          "indexed": true,
          "internalType": "address",
          "name": "from",
          "type": "address"
        },
        {
          "indexed": true,
          "internalType": "address",
          "name": "to",
          "type": "address"
        },
        {
          "indexed": false,
          "internalType": "uint256",
          "name": "value",
          "type": "uint256"
        }
      ],
      "name": "Transfer",
      "type": "event"
    },
    {
      "anonymous": false,
      "inputs": [
        {
          "indexed": true,
          "internalType": "address",
          "name": "user",
          "type": "address"
        },
        {
          "indexed": false,
          "internalType": "uint256",
          "name": "amount",
          "type": "uint256"
        }
      ],
      "name": "Unstake",
      "type": "event"
    },
    {
      "anonymous": false,
      "inputs": [
        {
          "indexed": true,
          "internalType": "address",
          "name": "user",
          "type": "address"
        },
        {
          "components": [
            {
              "internalType": "address",
              "name": "nftAddress",
              "type": "address"
            },
            {
              "internalType": "uint256",
              "name": "tokenId",
              "type": "uint256"
            }
          ],
          "indexed": false,
          "internalType": "struct NftSwap.swap[]",
          "name": "nfts",
          "type": "tuple[]"
        }
      ],
      "name": "WithdrawNfts",
      "type": "event"
    },
    {
      "inputs": [],
      "name": "PRECISION_FACTOR",
      "outputs": [
        {
          "internalType": "uint256",
          "name": "",
          "type": "uint256"
        }
      ],
      "stateMutability": "view",
      "type": "function",
      "constant": true
    },
    {
      "inputs": [
        {
          "internalType": "address",
          "name": "owner",
          "type": "address"
        },
        {
          "internalType": "address",
          "name": "spender",
          "type": "address"
        }
      ],
      "name": "allowance",
      "outputs": [
        {
          "internalType": "uint256",
          "name": "",
          "type": "uint256"
        }
      ],
      "stateMutability": "view",
      "type": "function",
      "constant": true
    },
    {
      "inputs": [
        {
          "internalType": "address",
          "name": "spender",
          "type": "address"
        },
        {
          "internalType": "uint256",
          "name": "amount",
          "type": "uint256"
        }
      ],
      "name": "approve",
      "outputs": [
        {
          "internalType": "bool",
          "name": "",
          "type": "bool"
        }
      ],
      "stateMutability": "nonpayable",
      "type": "function"
    },
    {
      "inputs": [
        {
          "internalType": "address",
          "name": "account",
          "type": "address"
        }
      ],
      "name": "balanceOf",
      "outputs": [
        {
          "internalType": "uint256",
          "name": "",
          "type": "uint256"
        }
      ],
      "stateMutability": "view",
      "type": "function",
      "constant": true
    },
    {
      "inputs": [],
      "name": "decimals",
      "outputs": [
        {
          "internalType": "uint8",
          "name": "",
          "type": "uint8"
        }
      ],
      "stateMutability": "view",
      "type": "function",
      "constant": true
    },
    {
      "inputs": [
        {
          "internalType": "address",
          "name": "spender",
          "type": "address"
        },
        {
          "internalType": "uint256",
          "name": "subtractedValue",
          "type": "uint256"
        }
      ],
      "name": "decreaseAllowance",
      "outputs": [
        {
          "internalType": "bool",
          "name": "",
          "type": "bool"
        }
      ],
      "stateMutability": "nonpayable",
      "type": "function"
    },
    {
      "inputs": [
        {
          "internalType": "address",
          "name": "spender",
          "type": "address"
        },
        {
          "internalType": "uint256",
          "name": "addedValue",
          "type": "uint256"
        }
      ],
      "name": "increaseAllowance",
      "outputs": [
        {
          "internalType": "bool",
          "name": "",
          "type": "bool"
        }
      ],
      "stateMutability": "nonpayable",
      "type": "function"
    },
    {
      "inputs": [
        {
          "internalType": "address",
          "name": "addr",
          "type": "address"
        }
      ],
      "name": "isDelegate",
      "outputs": [
        {
          "internalType": "bool",
          "name": "",
          "type": "bool"
        }
      ],
      "stateMutability": "view",
      "type": "function",
      "constant": true
    },
    {
      "inputs": [],
      "name": "name",
      "outputs": [
        {
          "internalType": "string",
          "name": "",
          "type": "string"
        }
      ],
      "stateMutability": "view",
      "type": "function",
      "constant": true
    },
    {
      "inputs": [],
      "name": "owner",
      "outputs": [
        {
          "internalType": "address",
          "name": "",
          "type": "address"
        }
      ],
      "stateMutability": "view",
      "type": "function",
      "constant": true
    },
    {
      "inputs": [],
      "name": "ownerFee",
      "outputs": [
        {
          "internalType": "uint256",
          "name": "",
          "type": "uint256"
        }
      ],
      "stateMutability": "view",
      "type": "function",
      "constant": true
    },
    {
      "inputs": [],
      "name": "renounceOwnership",
      "outputs": [],
      "stateMutability": "nonpayable",
      "type": "function"
    },
    {
      "inputs": [
        {
          "internalType": "address",
          "name": "addr",
          "type": "address"
        },
        {
          "internalType": "bool",
          "name": "isDelegate_",
          "type": "bool"
        }
      ],
      "name": "setDelegate",
      "outputs": [],
      "stateMutability": "nonpayable",
      "type": "function"
    },
    {
      "inputs": [
        {
          "internalType": "address",
          "name": "",
          "type": "address"
        }
      ],
      "name": "shares",
      "outputs": [
        {
          "internalType": "uint256",
          "name": "",
          "type": "uint256"
        }
      ],
      "stateMutability": "view",
      "type": "function",
      "constant": true
    },
    {
      "inputs": [],
      "name": "stakersFee",
      "outputs": [
        {
          "internalType": "uint256",
          "name": "",
          "type": "uint256"
        }
      ],
      "stateMutability": "view",
      "type": "function",
      "constant": true
    },
    {
      "inputs": [],
      "name": "symbol",
      "outputs": [
        {
          "internalType": "string",
          "name": "",
          "type": "string"
        }
      ],
      "stateMutability": "view",
      "type": "function",
      "constant": true
    },
    {
      "inputs": [],
      "name": "totalCreditStaked",
      "outputs": [
        {
          "internalType": "uint256",
          "name": "",
          "type": "uint256"
        }
      ],
      "stateMutability": "view",
      "type": "function",
      "constant": true
    },
    {
      "inputs": [],
      "name": "totalShares",
      "outputs": [
        {
          "internalType": "uint256",
          "name": "",
          "type": "uint256"
        }
      ],
      "stateMutability": "view",
      "type": "function",
      "constant": true
    },
    {
      "inputs": [],
      "name": "totalSupply",
      "outputs": [
        {
          "internalType": "uint256",
          "name": "",
          "type": "uint256"
        }
      ],
      "stateMutability": "view",
      "type": "function",
      "constant": true
    },
    {
      "inputs": [
        {
          "internalType": "address",
          "name": "to",
          "type": "address"
        },
        {
          "internalType": "uint256",
          "name": "amount",
          "type": "uint256"
        }
      ],
      "name": "transfer",
      "outputs": [
        {
          "internalType": "bool",
          "name": "",
          "type": "bool"
        }
      ],
      "stateMutability": "nonpayable",
      "type": "function"
    },
    {
      "inputs": [
        {
          "internalType": "address",
          "name": "from",
          "type": "address"
        },
        {
          "internalType": "address",
          "name": "to",
          "type": "address"
        },
        {
          "internalType": "uint256",
          "name": "amount",
          "type": "uint256"
        }
      ],
      "name": "transferFrom",
      "outputs": [
        {
          "internalType": "bool",
          "name": "",
          "type": "bool"
        }
      ],
      "stateMutability": "nonpayable",
      "type": "function"
    },
    {
      "inputs": [
        {
          "internalType": "address",
          "name": "newOwner",
          "type": "address"
        }
      ],
      "name": "transferOwnership",
      "outputs": [],
      "stateMutability": "nonpayable",
      "type": "function"
    },
    {
      "inputs": [
        {
          "internalType": "address",
          "name": "nftAddress",
          "type": "address"
        }
      ],
      "name": "getPrice",
      "outputs": [
        {
          "internalType": "uint256",
          "name": "",
          "type": "uint256"
        }
      ],
      "stateMutability": "view",
      "type": "function",
      "constant": true
    },
    {
      "inputs": [
        {
          "internalType": "address",
          "name": "nftAddress",
          "type": "address"
        },
        {
          "internalType": "uint256",
          "name": "price",
          "type": "uint256"
        }
      ],
      "name": "addNft",
      "outputs": [],
      "stateMutability": "nonpayable",
      "type": "function"
    },
    {
      "inputs": [
        {
          "components": [
            {
              "internalType": "address",
              "name": "nftAddress",
              "type": "address"
            },
            {
              "internalType": "uint256",
              "name": "price",
              "type": "uint256"
            }
          ],
          "internalType": "struct NftSwap.collection[]",
          "name": "newPrices",
          "type": "tuple[]"
        }
      ],
      "name": "setPrices",
      "outputs": [],
      "stateMutability": "nonpayable",
      "type": "function"
    },
    {
      "inputs": [
        {
          "components": [
            {
              "internalType": "address",
              "name": "nftAddress",
              "type": "address"
            },
            {
              "internalType": "uint256",
              "name": "tokenId",
              "type": "uint256"
            }
          ],
          "internalType": "struct NftSwap.swap[]",
          "name": "nfts",
          "type": "tuple[]"
        }
      ],
      "name": "depositNfts",
      "outputs": [],
      "stateMutability": "nonpayable",
      "type": "function"
    },
    {
      "inputs": [
        {
          "components": [
            {
              "internalType": "address",
              "name": "nftAddress",
              "type": "address"
            },
            {
              "internalType": "uint256",
              "name": "tokenId",
              "type": "uint256"
            }
          ],
          "internalType": "struct NftSwap.swap[]",
          "name": "nfts",
          "type": "tuple[]"
        }
      ],
      "name": "withdrawNfts",
      "outputs": [],
      "stateMutability": "nonpayable",
      "type": "function"
    },
    {
      "inputs": [
        {
          "components": [
            {
              "internalType": "address",
              "name": "nftAddress",
              "type": "address"
            },
            {
              "internalType": "uint256",
              "name": "tokenId",
              "type": "uint256"
            }
          ],
          "internalType": "struct NftSwap.swap[]",
          "name": "inboundNfts",
          "type": "tuple[]"
        },
        {
          "components": [
            {
              "internalType": "address",
              "name": "nftAddress",
              "type": "address"
            },
            {
              "internalType": "uint256",
              "name": "tokenId",
              "type": "uint256"
            }
          ],
          "internalType": "struct NftSwap.swap[]",
          "name": "outboundNfts",
          "type": "tuple[]"
        }
      ],
      "name": "swapNfts",
      "outputs": [],
      "stateMutability": "nonpayable",
      "type": "function"
    },
    {
      "inputs": [
        {
          "internalType": "uint256",
          "name": "amount",
          "type": "uint256"
        }
      ],
      "name": "stake",
      "outputs": [],
      "stateMutability": "nonpayable",
      "type": "function"
    },
    {
      "inputs": [
        {
          "internalType": "uint256",
          "name": "amount",
          "type": "uint256"
        }
      ],
      "name": "unstake",
      "outputs": [],
      "stateMutability": "nonpayable",
      "type": "function"
    },
    {
      "inputs": [
        {
          "internalType": "uint256",
          "name": "fee",
          "type": "uint256"
        }
      ],
      "name": "setOwnerFee",
      "outputs": [],
      "stateMutability": "nonpayable",
      "type": "function"
    },
    {
      "inputs": [
        {
          "internalType": "uint256",
          "name": "fee",
          "type": "uint256"
        }
      ],
      "name": "setStakersFee",
      "outputs": [],
      "stateMutability": "nonpayable",
      "type": "function"
    }
  ],
  "bytecode": "0x608060405260006007556000600855670de0b6b3a7640000600a556064600b556064600c553480156200003157600080fd5b50604080518082018252600e81526d13999d14ddd85c0810dc99591a5d60921b6020808301918252835180850190945260048452634e46544360e01b908401528151919291620000849160039162000154565b5080516200009a90600490602084019062000154565b505050620000b7620000b1620000fe60201b60201c565b62000102565b600160066000620000d06005546001600160a01b031690565b6001600160a01b031681526020810191909152604001600020805460ff191691151591909117905562000237565b3390565b600580546001600160a01b038381166001600160a01b0319831681179093556040519116919082907f8be0079c531659141344cd1fd0a4f28419497f9722a3daafe3b4186f6b6457e090600090a35050565b8280546200016290620001fa565b90600052602060002090601f016020900481019282620001865760008555620001d1565b82601f10620001a157805160ff1916838001178555620001d1565b82800160010185558215620001d1579182015b82811115620001d1578251825591602001919060010190620001b4565b50620001df929150620001e3565b5090565b5b80821115620001df5760008155600101620001e4565b600181811c908216806200020f57607f821691505b602082108114156200023157634e487b7160e01b600052602260045260246000fd5b50919050565b611bd180620002476000396000f3fe608060405234801561001057600080fd5b50600436106101f05760003560e01c80638461fb821161010f578063a9059cbb116100a2578063d5b2a01a11610071578063d5b2a01a1461042a578063dd62ed3e14610433578063f2fde38b1461046c578063fbf0ade11461047f57600080fd5b8063a9059cbb146103d5578063c13156db146103e8578063ccd34cd5146103fb578063ce7c2ac21461040a57600080fd5b8063a315d7aa116100de578063a315d7aa14610393578063a3f369581461039c578063a457c2d7146103af578063a694fc3a146103c257600080fd5b80638461fb82146103545780638da5cb5b1461035d57806395d89b41146103785780639af335c81461038057600080fd5b806336e7b36c116101875780634a994eef116101565780634a994eef146102fd57806356ea92001461031057806370a0823114610323578063715018a61461034c57600080fd5b806336e7b36c146102a557806339509351146102b85780633a98ef39146102cb57806341976e09146102d457600080fd5b806323b872dd116101c357806323b872dd1461025b57806328b0eb0f1461026e5780632e17de7814610283578063313ce5671461029657600080fd5b806306fdde03146101f55780630777962714610213578063095ea7b31461023657806318160ddd14610249575b600080fd5b6101fd610492565b60405161020a91906116e7565b60405180910390f35b610226610221366004611753565b610524565b604051901515815260200161020a565b610226610244366004611775565b61057d565b6002545b60405190815260200161020a565b61022661026936600461179f565b610595565b61028161027c366004611775565b6105b9565b005b6102816102913660046117db565b610640565b6040516012815260200161020a565b6102816102b3366004611840565b61072d565b6102266102c6366004611775565b610919565b61024d60085481565b61024d6102e2366004611753565b6001600160a01b03166000908152600d602052604090205490565b61028161030b366004611882565b610958565b61028161031e3660046118be565b6109ad565b61024d610331366004611753565b6001600160a01b031660009081526020819052604090205490565b610281610a0e565b61024d60075481565b6005546040516001600160a01b03909116815260200161020a565b6101fd610a44565b61028161038e3660046117db565b610a53565b61024d600c5481565b6102816103aa366004611840565b610abe565b6102266103bd366004611775565b610bac565b6102816103d03660046117db565b610c3e565b6102266103e3366004611775565b610cdc565b6102816103f6366004611840565b610cea565b61024d670de0b6b3a764000081565b61024d610418366004611753565b60096020526000908152604090205481565b61024d600b5481565b61024d61044136600461192a565b6001600160a01b03918216600090815260016020908152604080832093909416825291909152205490565b61028161047a366004611753565b610f80565b61028161048d3660046117db565b610fd9565b6060600380546104a19061195d565b80601f01602080910402602001604051908101604052809291908181526020018280546104cd9061195d565b801561051a5780601f106104ef5761010080835404028352916020019161051a565b820191906000526020600020905b8154815290600101906020018083116104fd57829003601f168201915b5050505050905090565b6005546000906001600160a01b0316331461055a5760405162461bcd60e51b815260040161055190611998565b60405180910390fd5b506001600160a01b03811660009081526006602052604090205460ff165b919050565b60003361058b81858561103d565b5060019392505050565b6000336105a3858285611162565b6105ae8585856111f4565b506001949350505050565b3360009081526006602052604090205460ff166105e85760405162461bcd60e51b8152600401610551906119cd565b6001600160a01b0382166000818152600d6020908152604091829020849055815192835282018390527f2e04cb047065feea07c5cd7af3f7a18d744c96791ad52415ffd3c4a9e22ff17e910160405180910390a15050565b600061064b826113c2565b336000908152600960205260409020549091508111156106ad5760405162461bcd60e51b815260206004820152601d60248201527f4e6f7420656e6f756768206372656469747320746f20756e7374616b650000006044820152606401610551565b6106b73383610cdc565b5080600860008282546106ca9190611a0d565b909155505033600090815260096020526040812080548392906106ee908490611a0d565b909155505060405181815233907f85082129d87b2fe11527cb1b3b7a520aeb5aa6913f88a3d8757fe40d1db02fdd906020015b60405180910390a25050565b8060005b818110156108d0576000600d600086868581811061075157610751611a24565b6107679260206040909202019081019150611753565b6001600160a01b03166001600160a01b03168152602001908152602001600020549050806107aa336001600160a01b031660009081526020819052604090205490565b116107f75760405162461bcd60e51b815260206004820152601c60248201527f4e6f7420656e6f756768206372656469747320696e2077616c6c6574000000006044820152606401610551565b84848381811061080957610809611a24565b61081f9260206040909202019081019150611753565b6001600160a01b03166323b872dd303388888781811061084157610841611a24565b6040805160e088901b6001600160e01b03191681526001600160a01b039687166004820152949095166024850152909302016020013560448201526064019050600060405180830381600087803b15801561089b57600080fd5b505af11580156108af573d6000803e3d6000fd5b505050506108bd33826113d8565b50806108c881611a3a565b915050610731565b50336001600160a01b03167f596404a44f5b6078f850adee2adaccc56a908772a7cdc256e946cbca60725211848460405161090c929190611ab2565b60405180910390a2505050565b3360008181526001602090815260408083206001600160a01b038716845290915281205490919061058b9082908690610953908790611ace565b61103d565b6005546001600160a01b031633146109825760405162461bcd60e51b815260040161055190611998565b6001600160a01b03919091166000908152600660205260409020805460ff1916911515919091179055565b6109b78484610cea565b6109c1828261072d565b336001600160a01b03167f8a6f883e7f9954987b34fefe2baac26dac80fdb1ff4c24a64f6ec36015fdc5d785858585604051610a009493929190611ae6565b60405180910390a250505050565b6005546001600160a01b03163314610a385760405162461bcd60e51b815260040161055190611998565b610a42600061151e565b565b6060600480546104a19061195d565b3360009081526006602052604090205460ff16610a825760405162461bcd60e51b8152600401610551906119cd565b600c8190556040518181527ffb55dc7b61b8c51d1ba03eb79318a0faf38a1c6256be9e06addb72a5d4ce4394906020015b60405180910390a150565b3360009081526006602052604090205460ff16610aed5760405162461bcd60e51b8152600401610551906119cd565b8060005b81811015610b6d57838382818110610b0b57610b0b611a24565b90506040020160200135600d6000868685818110610b2b57610b2b611a24565b610b419260206040909202019081019150611753565b6001600160a01b0316815260208101919091526040016000205580610b6581611a3a565b915050610af1565b507f22f4bcd7ff362f37f6972bcc6fb902af2e9b67be2fb88cfea1b37fcc82faf4228383604051610b9f929190611b18565b60405180910390a1505050565b3360008181526001602090815260408083206001600160a01b038716845290915281205490919083811015610c315760405162461bcd60e51b815260206004820152602560248201527f45524332303a2064656372656173656420616c6c6f77616e63652062656c6f77604482015264207a65726f60d81b6064820152608401610551565b6105ae828686840361103d565b610c49333083610595565b508060076000828254610c5c9190611ace565b9091555060009050610c6d826113c2565b90508060086000828254610c819190611ace565b90915550503360009081526009602052604081208054839290610ca5908490611ace565b909155505060405181815233907febedb8b3c678666e7f36970bc8f57abf6d8fa2e828c0da91ea5b75bf68ed101a90602001610721565b60003361058b8185856111f4565b600081815b81811015610e70576000600d6000878785818110610d0f57610d0f611a24565b610d259260206040909202019081019150611753565b6001600160a01b03166001600160a01b031681526020019081526020016000205411610d5057600080fd5b848482818110610d6257610d62611a24565b610d789260206040909202019081019150611753565b6001600160a01b03166323b872dd3330888886818110610d9a57610d9a611a24565b6040805160e088901b6001600160e01b03191681526001600160a01b039687166004820152949095166024850152909302016020013560448201526064019050600060405180830381600087803b158015610df457600080fd5b505af1158015610e08573d6000803e3d6000fd5b50505050600d6000868684818110610e2257610e22611a24565b610e389260206040909202019081019150611753565b6001600160a01b03168152602081019190915260400160002054610e5c9084611ace565b925080610e6881611a3a565b915050610cef565b506000612710600b5484610e849190611b5a565b610e8e9190611b79565b90506000612710600c5485610ea39190611b5a565b610ead9190611b79565b9050600081610ebc8487611a0d565b610ec69190611a0d565b9050610ed23382611570565b610eed610ee76005546001600160a01b031690565b84611570565b60075415610f2457600754610f029083611b79565b610f0d906001611ace565b600a6000828254610f1e9190611b5a565b90915550505b8160076000828254610f369190611ace565b909155505060405133907fa4d12430846bf9c9dddc072db3261eeb2ff13175f4d2905c55cb4941af66bf2490610f6f908a908a90611ab2565b60405180910390a250505050505050565b6005546001600160a01b03163314610faa5760405162461bcd60e51b815260040161055190611998565b6001600160a01b0381166000908152600660205260409020805460ff19166001179055610fd68161164f565b50565b3360009081526006602052604090205460ff166110085760405162461bcd60e51b8152600401610551906119cd565b600b8190556040518181527f72c5623f8d22f3997f6a7c3fb655eee4b71c167aaeab9539bee7713ce01e9b7990602001610ab3565b6001600160a01b03831661109f5760405162461bcd60e51b8152602060048201526024808201527f45524332303a20617070726f76652066726f6d20746865207a65726f206164646044820152637265737360e01b6064820152608401610551565b6001600160a01b0382166111005760405162461bcd60e51b815260206004820152602260248201527f45524332303a20617070726f766520746f20746865207a65726f206164647265604482015261737360f01b6064820152608401610551565b6001600160a01b0383811660008181526001602090815260408083209487168084529482529182902085905590518481527f8c5be1e5ebec7d5bd14f71427d1e84f3dd0314c0f7b2291e5b200ac8c7c3b92591015b60405180910390a3505050565b6001600160a01b0383811660009081526001602090815260408083209386168352929052205460001981146111ee57818110156111e15760405162461bcd60e51b815260206004820152601d60248201527f45524332303a20696e73756666696369656e7420616c6c6f77616e63650000006044820152606401610551565b6111ee848484840361103d565b50505050565b6001600160a01b0383166112585760405162461bcd60e51b815260206004820152602560248201527f45524332303a207472616e736665722066726f6d20746865207a65726f206164604482015264647265737360d81b6064820152608401610551565b6001600160a01b0382166112ba5760405162461bcd60e51b815260206004820152602360248201527f45524332303a207472616e7366657220746f20746865207a65726f206164647260448201526265737360e81b6064820152608401610551565b6001600160a01b038316600090815260208190526040902054818110156113325760405162461bcd60e51b815260206004820152602660248201527f45524332303a207472616e7366657220616d6f756e7420657863656564732062604482015265616c616e636560d01b6064820152608401610551565b6001600160a01b03808516600090815260208190526040808220858503905591851681529081208054849290611369908490611ace565b92505081905550826001600160a01b0316846001600160a01b03167fddf252ad1be2c89b69c2b068fc378daa952ba7f163c4a11628f55a4df523b3ef846040516113b591815260200190565b60405180910390a36111ee565b6000600a54826113d29190611b79565b92915050565b6001600160a01b0382166114385760405162461bcd60e51b815260206004820152602160248201527f45524332303a206275726e2066726f6d20746865207a65726f206164647265736044820152607360f81b6064820152608401610551565b6001600160a01b038216600090815260208190526040902054818110156114ac5760405162461bcd60e51b815260206004820152602260248201527f45524332303a206275726e20616d6f756e7420657863656564732062616c616e604482015261636560f01b6064820152608401610551565b6001600160a01b03831660009081526020819052604081208383039055600280548492906114db908490611a0d565b90915550506040518281526000906001600160a01b038516907fddf252ad1be2c89b69c2b068fc378daa952ba7f163c4a11628f55a4df523b3ef90602001611155565b600580546001600160a01b038381166001600160a01b0319831681179093556040519116919082907f8be0079c531659141344cd1fd0a4f28419497f9722a3daafe3b4186f6b6457e090600090a35050565b6001600160a01b0382166115c65760405162461bcd60e51b815260206004820152601f60248201527f45524332303a206d696e7420746f20746865207a65726f2061646472657373006044820152606401610551565b80600260008282546115d89190611ace565b90915550506001600160a01b03821660009081526020819052604081208054839290611605908490611ace565b90915550506040518181526001600160a01b038316906000907fddf252ad1be2c89b69c2b068fc378daa952ba7f163c4a11628f55a4df523b3ef9060200160405180910390a35050565b6005546001600160a01b031633146116795760405162461bcd60e51b815260040161055190611998565b6001600160a01b0381166116de5760405162461bcd60e51b815260206004820152602660248201527f4f776e61626c653a206e6577206f776e657220697320746865207a65726f206160448201526564647265737360d01b6064820152608401610551565b610fd68161151e565b600060208083528351808285015260005b81811015611714578581018301518582016040015282016116f8565b81811115611726576000604083870101525b50601f01601f1916929092016040019392505050565b80356001600160a01b038116811461057857600080fd5b60006020828403121561176557600080fd5b61176e8261173c565b9392505050565b6000806040838503121561178857600080fd5b6117918361173c565b946020939093013593505050565b6000806000606084860312156117b457600080fd5b6117bd8461173c565b92506117cb6020850161173c565b9150604084013590509250925092565b6000602082840312156117ed57600080fd5b5035919050565b60008083601f84011261180657600080fd5b50813567ffffffffffffffff81111561181e57600080fd5b6020830191508360208260061b850101111561183957600080fd5b9250929050565b6000806020838503121561185357600080fd5b823567ffffffffffffffff81111561186a57600080fd5b611876858286016117f4565b90969095509350505050565b6000806040838503121561189557600080fd5b61189e8361173c565b9150602083013580151581146118b357600080fd5b809150509250929050565b600080600080604085870312156118d457600080fd5b843567ffffffffffffffff808211156118ec57600080fd5b6118f8888389016117f4565b9096509450602087013591508082111561191157600080fd5b5061191e878288016117f4565b95989497509550505050565b6000806040838503121561193d57600080fd5b6119468361173c565b91506119546020840161173c565b90509250929050565b600181811c9082168061197157607f821691505b6020821081141561199257634e487b7160e01b600052602260045260246000fd5b50919050565b6020808252818101527f4f776e61626c653a2063616c6c6572206973206e6f7420746865206f776e6572604082015260600190565b60208082526010908201526f496e76616c69642064656c656761746560801b604082015260600190565b634e487b7160e01b600052601160045260246000fd5b600082821015611a1f57611a1f6119f7565b500390565b634e487b7160e01b600052603260045260246000fd5b6000600019821415611a4e57611a4e6119f7565b5060010190565b6001600160a01b03611a668261173c565b168252602090810135910152565b81835260208301925060008160005b84811015611aa857611a958683611a55565b6040958601959190910190600101611a83565b5093949350505050565b602081526000611ac6602083018486611a74565b949350505050565b60008219821115611ae157611ae16119f7565b500190565b604081526000611afa604083018688611a74565b8281036020840152611b0d818587611a74565b979650505050505050565b602080825281018290526000604080830185835b86811015611b4e57611b3e8383611a55565b9183019190830190600101611b2c565b50909695505050505050565b6000816000190483118215151615611b7457611b746119f7565b500290565b600082611b9657634e487b7160e01b600052601260045260246000fd5b50049056fea2646970667358221220c74344b79d4168291abaaf1e0eb0ff5732a3f6fd76e5edc3770c07a7edcb26ac64736f6c634300080c0033",
  "immutableReferences": {},
  "source": "// SPDX-License-Identifier: UNLICENSED\r\npragma solidity ^0.8.12;\r\n\r\nimport './Delegated.sol';\r\nimport \"@openzeppelin/contracts/token/ERC20/ERC20.sol\";\r\nimport \"@openzeppelin/contracts/access/Ownable.sol\";\r\nimport '@openzeppelin/contracts/token/ERC721/IERC721.sol';\r\n\r\ncontract NftSwap is ERC20, Delegated {\r\n\r\n  constructor() ERC20(\"NftSwap Credit\", \"NFTC\") {\r\n  }\r\n\r\n  uint public totalCreditStaked = 0;\r\n  uint public totalShares = 0;\r\n  mapping(address => uint) public shares;\r\n\r\n  uint public constant PRECISION_FACTOR = 10**18;\r\n  uint sharePrice = PRECISION_FACTOR;\r\n\r\n  // fees for owner and stakers\r\n  uint public ownerFee = 100; //Basis Points\r\n  uint public stakersFee = 100;\r\n\r\n\r\n  event AddNft(address nftAddress, uint price);\r\n  event SetPrices(collection[]);\r\n  event DepositNfts(address indexed user, swap[] nfts);\r\n  event WithdrawNfts(address indexed user, swap[] nfts);\r\n  event SwapNfts(address indexed user, swap[] inboundNfts, swap[] outboundNfts);\r\n  event Stake(address indexed user, uint amount);\r\n  event Unstake(address indexed user, uint amount);\r\n  event SetOwnerFee(uint fee);\r\n  event SetStakersFee(uint fee);\r\n\r\n  struct collection {\r\n    address nftAddress;\r\n    uint price;\r\n  }\r\n\r\n  struct swap {\r\n    address nftAddress;\r\n    uint tokenId;\r\n  }\r\n\r\n  mapping (address => uint) internal prices; // uses contract address\r\n\r\n  function getPrice(address nftAddress) external view returns (uint) {\r\n    return prices[nftAddress];\r\n  }\r\n\r\n  function addNft(address nftAddress, uint price) external onlyDelegates {\r\n    prices[nftAddress] = price;\r\n    emit AddNft(nftAddress, price);\r\n  }\r\n\r\n  function setPrices(collection[] calldata newPrices) external onlyDelegates {\r\n    uint len = newPrices.length;\r\n    for(uint i=0; i < len; i++) {\r\n      prices[newPrices[i].nftAddress] = newPrices[i].price;\r\n    }\r\n    emit SetPrices(newPrices);\r\n  }\r\n\r\n  // exchange Nfts for nftSwapCredits\r\n  function depositNfts(swap[] calldata nfts) public {\r\n    uint total = 0;\r\n    uint len = nfts.length;\r\n    // transfer nfts from user to the contract, add NFTC based on value\r\n    for(uint i=0; i<len; i++) {\r\n      require(prices[nfts[i].nftAddress] > 0);\r\n      IERC721(nfts[i].nftAddress).transferFrom(msg.sender, address(this), nfts[i].tokenId);\r\n      total += prices[nfts[i].nftAddress];\r\n    }\r\n    // calculate cut for sender, owner, and stakers\r\n    uint ownerCut = (total*ownerFee)/10000;\r\n    uint stakersCut = (total*stakersFee)/10000;\r\n    uint senderCut = total - ownerCut - stakersCut;\r\n    // mint credits to sender\r\n    _mint(msg.sender, senderCut);\r\n    // mint credits to owner\r\n    _mint(owner(), ownerCut);\r\n    // increase share value for stakers\r\n    if(totalCreditStaked != 0) {\r\n      sharePrice *= 1 + (stakersCut/totalCreditStaked);\r\n    }\r\n    totalCreditStaked += stakersCut;\r\n    emit DepositNfts(msg.sender, nfts);\r\n  }\r\n\r\n  // exchange nftSwapCredits for NFTs\r\n  function withdrawNfts(swap[] calldata nfts) public {\r\n    uint len = nfts.length;\r\n    for(uint i=0; i<len; i++) {\r\n      uint nftPrice = prices[nfts[i].nftAddress];\r\n      // require sender to have enough nftSwapCredit in account\r\n      require(balanceOf(msg.sender) > nftPrice, \"Not enough credits in wallet\");\r\n      IERC721(nfts[i].nftAddress).transferFrom(address(this), msg.sender, nfts[i].tokenId);\r\n      // burns tokens\r\n      _burn(msg.sender, nftPrice);\r\n    }\r\n    emit WithdrawNfts(msg.sender, nfts);\r\n  }\r\n\r\n  // exchange Nfts for Nfts, leftover value is given in nftSwapCredits\r\n  function swapNfts(swap[] calldata inboundNfts, swap[] calldata outboundNfts) external {\r\n    depositNfts(inboundNfts);\r\n    withdrawNfts(outboundNfts);\r\n    emit SwapNfts(msg.sender, inboundNfts, outboundNfts);\r\n  }\r\n\r\n  function stake(uint amount) external {\r\n    transferFrom(msg.sender, address(this), amount);\r\n    // adds total credits staked\r\n    totalCreditStaked += amount;\r\n    uint sharesToReceive = calculateCreditToShare(amount);\r\n    totalShares += sharesToReceive;\r\n    shares[msg.sender] += sharesToReceive;\r\n    emit Stake(msg.sender, sharesToReceive);\r\n  }\r\n\r\n  function unstake(uint amount) external {\r\n    // checks if they have the amount of shares to unstake\r\n    uint sharesToUnstake = calculateCreditToShare(amount);\r\n    require(shares[msg.sender] >= sharesToUnstake, \"Not enough credits to unstake\");\r\n    transfer(msg.sender, amount);\r\n    totalShares -= sharesToUnstake;\r\n    shares[msg.sender] -= sharesToUnstake;\r\n    emit Unstake(msg.sender, sharesToUnstake);\r\n  }\r\n\r\n  function calculateCreditToShare(uint amount) internal view returns(uint) {\r\n    return amount/sharePrice;\r\n  }\r\n\r\n  function calculateShareToCredit(uint amount) internal view returns(uint) {\r\n    return amount*sharePrice;\r\n  }\r\n\r\n  function setOwnerFee(uint fee) external onlyDelegates {\r\n    ownerFee = fee;\r\n    emit SetOwnerFee(fee);\r\n  }\r\n\r\n  function setStakersFee(uint fee) external onlyDelegates {\r\n    stakersFee = fee;\r\n    emit SetStakersFee(fee);\r\n  }\r\n}",
  "sourcePath": "C:\\Users\\Alex-Desktop\\Desktop\\nftswap\\smart-contracts\\contracts\\NftSwap.sol",
  "compiler": {
    "name": "solc",
    "version": "0.8.12+commit.f00d7308.Emscripten.clang"
  },
  "schemaVersion": "3.4.5",
  "updatedAt": "2022-03-19T06:16:05.936Z",
  "networkType": "ethereum",
  "devdoc": {
    "kind": "dev",
    "methods": {
      "allowance(address,address)": {
        "details": "See {IERC20-allowance}."
      },
      "approve(address,uint256)": {
        "details": "See {IERC20-approve}. NOTE: If `amount` is the maximum `uint256`, the allowance is not updated on `transferFrom`. This is semantically equivalent to an infinite approval. Requirements: - `spender` cannot be the zero address."
      },
      "balanceOf(address)": {
        "details": "See {IERC20-balanceOf}."
      },
      "decimals()": {
        "details": "Returns the number of decimals used to get its user representation. For example, if `decimals` equals `2`, a balance of `505` tokens should be displayed to a user as `5.05` (`505 / 10 ** 2`). Tokens usually opt for a value of 18, imitating the relationship between Ether and Wei. This is the value {ERC20} uses, unless this function is overridden; NOTE: This information is only used for _display_ purposes: it in no way affects any of the arithmetic of the contract, including {IERC20-balanceOf} and {IERC20-transfer}."
      },
      "decreaseAllowance(address,uint256)": {
        "details": "Atomically decreases the allowance granted to `spender` by the caller. This is an alternative to {approve} that can be used as a mitigation for problems described in {IERC20-approve}. Emits an {Approval} event indicating the updated allowance. Requirements: - `spender` cannot be the zero address. - `spender` must have allowance for the caller of at least `subtractedValue`."
      },
      "increaseAllowance(address,uint256)": {
        "details": "Atomically increases the allowance granted to `spender` by the caller. This is an alternative to {approve} that can be used as a mitigation for problems described in {IERC20-approve}. Emits an {Approval} event indicating the updated allowance. Requirements: - `spender` cannot be the zero address."
      },
      "name()": {
        "details": "Returns the name of the token."
      },
      "owner()": {
        "details": "Returns the address of the current owner."
      },
      "renounceOwnership()": {
        "details": "Leaves the contract without owner. It will not be possible to call `onlyOwner` functions anymore. Can only be called by the current owner. NOTE: Renouncing ownership will leave the contract without an owner, thereby removing any functionality that is only available to the owner."
      },
      "symbol()": {
        "details": "Returns the symbol of the token, usually a shorter version of the name."
      },
      "totalSupply()": {
        "details": "See {IERC20-totalSupply}."
      },
      "transfer(address,uint256)": {
        "details": "See {IERC20-transfer}. Requirements: - `to` cannot be the zero address. - the caller must have a balance of at least `amount`."
      },
      "transferFrom(address,address,uint256)": {
        "details": "See {IERC20-transferFrom}. Emits an {Approval} event indicating the updated allowance. This is not required by the EIP. See the note at the beginning of {ERC20}. NOTE: Does not update the allowance if the current allowance is the maximum `uint256`. Requirements: - `from` and `to` cannot be the zero address. - `from` must have a balance of at least `amount`. - the caller must have allowance for ``from``'s tokens of at least `amount`."
      },
      "transferOwnership(address)": {
        "details": "Transfers ownership of the contract to a new account (`newOwner`). Can only be called by the current owner."
      }
    },
    "version": 1
  },
  "userdoc": {
    "kind": "user",
    "methods": {},
    "version": 1
  }
}