{
  "contractName": "NftSwap",
  "abi": [
    {
      "inputs": [],
      "stateMutability": "nonpayable",
      "type": "constructor"
    },
    {
      "anonymous": false,
      "inputs": [
        {
          "indexed": false,
          "internalType": "address",
          "name": "nftAddress",
          "type": "address"
        },
        {
          "indexed": false,
          "internalType": "uint256",
          "name": "price",
          "type": "uint256"
        }
      ],
      "name": "AddNft",
      "type": "event"
    },
    {
      "anonymous": false,
      "inputs": [
        {
          "indexed": true,
          "internalType": "address",
          "name": "owner",
          "type": "address"
        },
        {
          "indexed": true,
          "internalType": "address",
          "name": "spender",
          "type": "address"
        },
        {
          "indexed": false,
          "internalType": "uint256",
          "name": "value",
          "type": "uint256"
        }
      ],
      "name": "Approval",
      "type": "event"
    },
    {
      "anonymous": false,
      "inputs": [
        {
          "indexed": true,
          "internalType": "address",
          "name": "user",
          "type": "address"
        },
        {
          "components": [
            {
              "internalType": "address",
              "name": "nftAddress",
              "type": "address"
            },
            {
              "internalType": "uint256",
              "name": "tokenId",
              "type": "uint256"
            }
          ],
          "indexed": false,
          "internalType": "struct NftSwap.swap[]",
          "name": "nfts",
          "type": "tuple[]"
        }
      ],
      "name": "DepositNfts",
      "type": "event"
    },
    {
      "anonymous": false,
      "inputs": [
        {
          "indexed": true,
          "internalType": "address",
          "name": "previousOwner",
          "type": "address"
        },
        {
          "indexed": true,
          "internalType": "address",
          "name": "newOwner",
          "type": "address"
        }
      ],
      "name": "OwnershipTransferred",
      "type": "event"
    },
    {
      "anonymous": false,
      "inputs": [
        {
          "indexed": false,
          "internalType": "uint256",
          "name": "fee",
          "type": "uint256"
        }
      ],
      "name": "SetOwnerFee",
      "type": "event"
    },
    {
      "anonymous": false,
      "inputs": [
        {
          "components": [
            {
              "internalType": "address",
              "name": "nftAddress",
              "type": "address"
            },
            {
              "internalType": "uint256",
              "name": "price",
              "type": "uint256"
            }
          ],
          "indexed": false,
          "internalType": "struct NftSwap.collection[]",
          "name": "",
          "type": "tuple[]"
        }
      ],
      "name": "SetPrices",
      "type": "event"
    },
    {
      "anonymous": false,
      "inputs": [
        {
          "indexed": false,
          "internalType": "uint256",
          "name": "fee",
          "type": "uint256"
        }
      ],
      "name": "SetStakersFee",
      "type": "event"
    },
    {
      "anonymous": false,
      "inputs": [
        {
          "indexed": true,
          "internalType": "address",
          "name": "user",
          "type": "address"
        },
        {
          "indexed": false,
          "internalType": "uint256",
          "name": "amount",
          "type": "uint256"
        }
      ],
      "name": "Stake",
      "type": "event"
    },
    {
      "anonymous": false,
      "inputs": [
        {
          "indexed": true,
          "internalType": "address",
          "name": "user",
          "type": "address"
        },
        {
          "components": [
            {
              "internalType": "address",
              "name": "nftAddress",
              "type": "address"
            },
            {
              "internalType": "uint256",
              "name": "tokenId",
              "type": "uint256"
            }
          ],
          "indexed": false,
          "internalType": "struct NftSwap.swap[]",
          "name": "inboundNfts",
          "type": "tuple[]"
        },
        {
          "components": [
            {
              "internalType": "address",
              "name": "nftAddress",
              "type": "address"
            },
            {
              "internalType": "uint256",
              "name": "tokenId",
              "type": "uint256"
            }
          ],
          "indexed": false,
          "internalType": "struct NftSwap.swap[]",
          "name": "outboundNfts",
          "type": "tuple[]"
        }
      ],
      "name": "SwapNfts",
      "type": "event"
    },
    {
      "anonymous": false,
      "inputs": [
        {
          "indexed": true,
          "internalType": "address",
          "name": "from",
          "type": "address"
        },
        {
          "indexed": true,
          "internalType": "address",
          "name": "to",
          "type": "address"
        },
        {
          "indexed": false,
          "internalType": "uint256",
          "name": "value",
          "type": "uint256"
        }
      ],
      "name": "Transfer",
      "type": "event"
    },
    {
      "anonymous": false,
      "inputs": [
        {
          "indexed": true,
          "internalType": "address",
          "name": "user",
          "type": "address"
        },
        {
          "indexed": false,
          "internalType": "uint256",
          "name": "amount",
          "type": "uint256"
        }
      ],
      "name": "Unstake",
      "type": "event"
    },
    {
      "anonymous": false,
      "inputs": [
        {
          "indexed": true,
          "internalType": "address",
          "name": "user",
          "type": "address"
        },
        {
          "components": [
            {
              "internalType": "address",
              "name": "nftAddress",
              "type": "address"
            },
            {
              "internalType": "uint256",
              "name": "tokenId",
              "type": "uint256"
            }
          ],
          "indexed": false,
          "internalType": "struct NftSwap.swap[]",
          "name": "nfts",
          "type": "tuple[]"
        }
      ],
      "name": "WithdrawNfts",
      "type": "event"
    },
    {
      "inputs": [],
      "name": "PRECISION_FACTOR",
      "outputs": [
        {
          "internalType": "uint256",
          "name": "",
          "type": "uint256"
        }
      ],
      "stateMutability": "view",
      "type": "function",
      "constant": true
    },
    {
      "inputs": [
        {
          "internalType": "address",
          "name": "owner",
          "type": "address"
        },
        {
          "internalType": "address",
          "name": "spender",
          "type": "address"
        }
      ],
      "name": "allowance",
      "outputs": [
        {
          "internalType": "uint256",
          "name": "",
          "type": "uint256"
        }
      ],
      "stateMutability": "view",
      "type": "function",
      "constant": true
    },
    {
      "inputs": [
        {
          "internalType": "address",
          "name": "spender",
          "type": "address"
        },
        {
          "internalType": "uint256",
          "name": "amount",
          "type": "uint256"
        }
      ],
      "name": "approve",
      "outputs": [
        {
          "internalType": "bool",
          "name": "",
          "type": "bool"
        }
      ],
      "stateMutability": "nonpayable",
      "type": "function"
    },
    {
      "inputs": [
        {
          "internalType": "address",
          "name": "account",
          "type": "address"
        }
      ],
      "name": "balanceOf",
      "outputs": [
        {
          "internalType": "uint256",
          "name": "",
          "type": "uint256"
        }
      ],
      "stateMutability": "view",
      "type": "function",
      "constant": true
    },
    {
      "inputs": [],
      "name": "decimals",
      "outputs": [
        {
          "internalType": "uint8",
          "name": "",
          "type": "uint8"
        }
      ],
      "stateMutability": "view",
      "type": "function",
      "constant": true
    },
    {
      "inputs": [
        {
          "internalType": "address",
          "name": "spender",
          "type": "address"
        },
        {
          "internalType": "uint256",
          "name": "subtractedValue",
          "type": "uint256"
        }
      ],
      "name": "decreaseAllowance",
      "outputs": [
        {
          "internalType": "bool",
          "name": "",
          "type": "bool"
        }
      ],
      "stateMutability": "nonpayable",
      "type": "function"
    },
    {
      "inputs": [
        {
          "internalType": "address",
          "name": "spender",
          "type": "address"
        },
        {
          "internalType": "uint256",
          "name": "addedValue",
          "type": "uint256"
        }
      ],
      "name": "increaseAllowance",
      "outputs": [
        {
          "internalType": "bool",
          "name": "",
          "type": "bool"
        }
      ],
      "stateMutability": "nonpayable",
      "type": "function"
    },
    {
      "inputs": [
        {
          "internalType": "address",
          "name": "addr",
          "type": "address"
        }
      ],
      "name": "isDelegate",
      "outputs": [
        {
          "internalType": "bool",
          "name": "",
          "type": "bool"
        }
      ],
      "stateMutability": "view",
      "type": "function",
      "constant": true
    },
    {
      "inputs": [],
      "name": "name",
      "outputs": [
        {
          "internalType": "string",
          "name": "",
          "type": "string"
        }
      ],
      "stateMutability": "view",
      "type": "function",
      "constant": true
    },
    {
      "inputs": [],
      "name": "owner",
      "outputs": [
        {
          "internalType": "address",
          "name": "",
          "type": "address"
        }
      ],
      "stateMutability": "view",
      "type": "function",
      "constant": true
    },
    {
      "inputs": [],
      "name": "ownerFee",
      "outputs": [
        {
          "internalType": "uint256",
          "name": "",
          "type": "uint256"
        }
      ],
      "stateMutability": "view",
      "type": "function",
      "constant": true
    },
    {
      "inputs": [],
      "name": "renounceOwnership",
      "outputs": [],
      "stateMutability": "nonpayable",
      "type": "function"
    },
    {
      "inputs": [
        {
          "internalType": "address",
          "name": "addr",
          "type": "address"
        },
        {
          "internalType": "bool",
          "name": "isDelegate_",
          "type": "bool"
        }
      ],
      "name": "setDelegate",
      "outputs": [],
      "stateMutability": "nonpayable",
      "type": "function"
    },
    {
      "inputs": [],
      "name": "stakersFee",
      "outputs": [
        {
          "internalType": "uint256",
          "name": "",
          "type": "uint256"
        }
      ],
      "stateMutability": "view",
      "type": "function",
      "constant": true
    },
    {
      "inputs": [],
      "name": "symbol",
      "outputs": [
        {
          "internalType": "string",
          "name": "",
          "type": "string"
        }
      ],
      "stateMutability": "view",
      "type": "function",
      "constant": true
    },
    {
      "inputs": [],
      "name": "totalShares",
      "outputs": [
        {
          "internalType": "uint256",
          "name": "",
          "type": "uint256"
        }
      ],
      "stateMutability": "view",
      "type": "function",
      "constant": true
    },
    {
      "inputs": [],
      "name": "totalSupply",
      "outputs": [
        {
          "internalType": "uint256",
          "name": "",
          "type": "uint256"
        }
      ],
      "stateMutability": "view",
      "type": "function",
      "constant": true
    },
    {
      "inputs": [
        {
          "internalType": "address",
          "name": "to",
          "type": "address"
        },
        {
          "internalType": "uint256",
          "name": "amount",
          "type": "uint256"
        }
      ],
      "name": "transfer",
      "outputs": [
        {
          "internalType": "bool",
          "name": "",
          "type": "bool"
        }
      ],
      "stateMutability": "nonpayable",
      "type": "function"
    },
    {
      "inputs": [
        {
          "internalType": "address",
          "name": "from",
          "type": "address"
        },
        {
          "internalType": "address",
          "name": "to",
          "type": "address"
        },
        {
          "internalType": "uint256",
          "name": "amount",
          "type": "uint256"
        }
      ],
      "name": "transferFrom",
      "outputs": [
        {
          "internalType": "bool",
          "name": "",
          "type": "bool"
        }
      ],
      "stateMutability": "nonpayable",
      "type": "function"
    },
    {
      "inputs": [
        {
          "internalType": "address",
          "name": "newOwner",
          "type": "address"
        }
      ],
      "name": "transferOwnership",
      "outputs": [],
      "stateMutability": "nonpayable",
      "type": "function"
    },
    {
      "inputs": [
        {
          "internalType": "address",
          "name": "nftAddress",
          "type": "address"
        }
      ],
      "name": "getPrice",
      "outputs": [
        {
          "internalType": "uint256",
          "name": "",
          "type": "uint256"
        }
      ],
      "stateMutability": "view",
      "type": "function",
      "constant": true
    },
    {
      "inputs": [
        {
          "internalType": "address",
          "name": "nftAddress",
          "type": "address"
        },
        {
          "internalType": "uint256",
          "name": "price",
          "type": "uint256"
        }
      ],
      "name": "addNft",
      "outputs": [],
      "stateMutability": "nonpayable",
      "type": "function"
    },
    {
      "inputs": [
        {
          "components": [
            {
              "internalType": "address",
              "name": "nftAddress",
              "type": "address"
            },
            {
              "internalType": "uint256",
              "name": "price",
              "type": "uint256"
            }
          ],
          "internalType": "struct NftSwap.collection[]",
          "name": "newPrices",
          "type": "tuple[]"
        }
      ],
      "name": "setPrices",
      "outputs": [],
      "stateMutability": "nonpayable",
      "type": "function"
    },
    {
      "inputs": [
        {
          "components": [
            {
              "internalType": "address",
              "name": "nftAddress",
              "type": "address"
            },
            {
              "internalType": "uint256",
              "name": "tokenId",
              "type": "uint256"
            }
          ],
          "internalType": "struct NftSwap.swap[]",
          "name": "nfts",
          "type": "tuple[]"
        }
      ],
      "name": "depositNfts",
      "outputs": [],
      "stateMutability": "nonpayable",
      "type": "function"
    },
    {
      "inputs": [
        {
          "components": [
            {
              "internalType": "address",
              "name": "nftAddress",
              "type": "address"
            },
            {
              "internalType": "uint256",
              "name": "tokenId",
              "type": "uint256"
            }
          ],
          "internalType": "struct NftSwap.swap[]",
          "name": "nfts",
          "type": "tuple[]"
        }
      ],
      "name": "withdrawNfts",
      "outputs": [],
      "stateMutability": "nonpayable",
      "type": "function"
    },
    {
      "inputs": [
        {
          "components": [
            {
              "internalType": "address",
              "name": "nftAddress",
              "type": "address"
            },
            {
              "internalType": "uint256",
              "name": "tokenId",
              "type": "uint256"
            }
          ],
          "internalType": "struct NftSwap.swap[]",
          "name": "inboundNfts",
          "type": "tuple[]"
        },
        {
          "components": [
            {
              "internalType": "address",
              "name": "nftAddress",
              "type": "address"
            },
            {
              "internalType": "uint256",
              "name": "tokenId",
              "type": "uint256"
            }
          ],
          "internalType": "struct NftSwap.swap[]",
          "name": "outboundNfts",
          "type": "tuple[]"
        }
      ],
      "name": "swapNfts",
      "outputs": [],
      "stateMutability": "nonpayable",
      "type": "function"
    },
    {
      "inputs": [
        {
          "internalType": "uint256",
          "name": "amount",
          "type": "uint256"
        }
      ],
      "name": "stake",
      "outputs": [],
      "stateMutability": "nonpayable",
      "type": "function"
    },
    {
      "inputs": [
        {
          "internalType": "uint256",
          "name": "amount",
          "type": "uint256"
        }
      ],
      "name": "unstake",
      "outputs": [],
      "stateMutability": "nonpayable",
      "type": "function"
    },
    {
      "inputs": [
        {
          "internalType": "uint256",
          "name": "creditAmount",
          "type": "uint256"
        }
      ],
      "name": "calculateCreditToShare",
      "outputs": [
        {
          "internalType": "uint256",
          "name": "",
          "type": "uint256"
        }
      ],
      "stateMutability": "view",
      "type": "function",
      "constant": true
    },
    {
      "inputs": [
        {
          "internalType": "uint256",
          "name": "shareAmount",
          "type": "uint256"
        }
      ],
      "name": "calculateShareToCredit",
      "outputs": [
        {
          "internalType": "uint256",
          "name": "",
          "type": "uint256"
        }
      ],
      "stateMutability": "view",
      "type": "function",
      "constant": true
    },
    {
      "inputs": [],
      "name": "getSharePrice",
      "outputs": [
        {
          "internalType": "uint256",
          "name": "",
          "type": "uint256"
        }
      ],
      "stateMutability": "view",
      "type": "function",
      "constant": true
    },
    {
      "inputs": [
        {
          "internalType": "address",
          "name": "account",
          "type": "address"
        }
      ],
      "name": "getShares",
      "outputs": [
        {
          "internalType": "uint256",
          "name": "",
          "type": "uint256"
        }
      ],
      "stateMutability": "view",
      "type": "function",
      "constant": true
    },
    {
      "inputs": [
        {
          "internalType": "uint256",
          "name": "fee",
          "type": "uint256"
        }
      ],
      "name": "setOwnerFee",
      "outputs": [],
      "stateMutability": "nonpayable",
      "type": "function"
    },
    {
      "inputs": [
        {
          "internalType": "uint256",
          "name": "fee",
          "type": "uint256"
        }
      ],
      "name": "setStakersFee",
      "outputs": [],
      "stateMutability": "nonpayable",
      "type": "function"
    }
  ],
  "bytecode": "0x6080604052600060075560646009556064600a553480156200002057600080fd5b50604080518082018252600e81526d13999d14ddd85c0810dc99591a5d60921b6020808301918252835180850190945260048452634e46544360e01b908401528151919291620000739160039162000143565b5080516200008990600490602084019062000143565b505050620000a6620000a0620000ed60201b60201c565b620000f1565b600160066000620000bf6005546001600160a01b031690565b6001600160a01b031681526020810191909152604001600020805460ff191691151591909117905562000226565b3390565b600580546001600160a01b038381166001600160a01b0319831681179093556040519116919082907f8be0079c531659141344cd1fd0a4f28419497f9722a3daafe3b4186f6b6457e090600090a35050565b8280546200015190620001e9565b90600052602060002090601f016020900481019282620001755760008555620001c0565b82601f106200019057805160ff1916838001178555620001c0565b82800160010185558215620001c0579182015b82811115620001c0578251825591602001919060010190620001a3565b50620001ce929150620001d2565b5090565b5b80821115620001ce5760008155600101620001d3565b600181811c90821680620001fe57607f821691505b602082108114156200022057634e487b7160e01b600052602260045260246000fd5b50919050565b611c8280620002366000396000f3fe608060405234801561001057600080fd5b50600436106102065760003560e01c8063715018a61161011a578063a694fc3a116100ad578063d5b2a01a1161007c578063d5b2a01a14610445578063dd62ed3e1461044e578063f04da65b14610487578063f2fde38b146104b0578063fbf0ade1146104c357600080fd5b8063a694fc3a146103fd578063a9059cbb14610410578063c13156db14610423578063ccd34cd51461043657600080fd5b80639af335c8116100e95780639af335c8146103bb578063a315d7aa146103ce578063a3f36958146103d7578063a457c2d7146103ea57600080fd5b8063715018a61461037d5780638da5cb5b14610385578063905c18aa146103a057806395d89b41146103b357600080fd5b8063313ce5671161019d57806341976e091161016c57806341976e09146102fd5780634a994eef1461032657806356ea9200146103395780635b1dac601461034c57806370a082311461035457600080fd5b8063313ce567146102bf57806336e7b36c146102ce57806339509351146102e15780633a98ef39146102f457600080fd5b806323b872dd116101d957806323b872dd14610271578063261e3bb21461028457806328b0eb0f146102975780632e17de78146102ac57600080fd5b806306fdde031461020b5780630777962714610229578063095ea7b31461024c57806318160ddd1461025f575b600080fd5b6102136104d6565b6040516102209190611798565b60405180910390f35b61023c610237366004611804565b610568565b6040519015158152602001610220565b61023c61025a366004611826565b6105c1565b6002545b604051908152602001610220565b61023c61027f366004611850565b6105d9565b61026361029236600461188c565b6105fd565b6102aa6102a5366004611826565b610629565b005b6102aa6102ba36600461188c565b6106b0565b60405160128152602001610220565b6102aa6102dc3660046118f1565b61079d565b61023c6102ef366004611826565b610989565b61026360075481565b61026361030b366004611804565b6001600160a01b03166000908152600b602052604090205490565b6102aa610334366004611933565b6109c8565b6102aa61034736600461196f565b610a1d565b610263610a7e565b610263610362366004611804565b6001600160a01b031660009081526020819052604090205490565b6102aa610b0e565b6005546040516001600160a01b039091168152602001610220565b6102636103ae36600461188c565b610b44565b610213610b61565b6102aa6103c936600461188c565b610b70565b610263600a5481565b6102aa6103e53660046118f1565b610bdb565b61023c6103f8366004611826565b610cc9565b6102aa61040b36600461188c565b610d5b565b61023c61041e366004611826565b610de0565b6102aa6104313660046118f1565b610dee565b610263670de0b6b3a764000081565b61026360095481565b61026361045c3660046119db565b6001600160a01b03918216600090815260016020908152604080832093909416825291909152205490565b610263610495366004611804565b6001600160a01b031660009081526008602052604090205490565b6102aa6104be366004611804565b611047565b6102aa6104d136600461188c565b6110a0565b6060600380546104e590611a0e565b80601f016020809104026020016040519081016040528092919081815260200182805461051190611a0e565b801561055e5780601f106105335761010080835404028352916020019161055e565b820191906000526020600020905b81548152906001019060200180831161054157829003601f168201915b5050505050905090565b6005546000906001600160a01b0316331461059e5760405162461bcd60e51b815260040161059590611a49565b60405180910390fd5b506001600160a01b03811660009081526006602052604090205460ff165b919050565b6000336105cf818585611104565b5060019392505050565b6000336105e7858285611229565b6105f28585856112bb565b506001949350505050565b6000610607610a7e565b610619670de0b6b3a764000084611a94565b6106239190611ab3565b92915050565b3360009081526006602052604090205460ff166106585760405162461bcd60e51b815260040161059590611ad5565b6001600160a01b0382166000818152600b6020908152604091829020849055815192835282018390527f2e04cb047065feea07c5cd7af3f7a18d744c96791ad52415ffd3c4a9e22ff17e910160405180910390a15050565b60006106bb826105fd565b3360009081526008602052604090205490915081111561071d5760405162461bcd60e51b815260206004820152601d60248201527f4e6f7420656e6f756768206372656469747320746f20756e7374616b650000006044820152606401610595565b6107283033846112bb565b806007600082825461073a9190611aff565b9091555050336000908152600860205260408120805483929061075e908490611aff565b909155505060405181815233907f85082129d87b2fe11527cb1b3b7a520aeb5aa6913f88a3d8757fe40d1db02fdd906020015b60405180910390a25050565b8060005b81811015610940576000600b60008686858181106107c1576107c1611b16565b6107d79260206040909202019081019150611804565b6001600160a01b03166001600160a01b031681526020019081526020016000205490508061081a336001600160a01b031660009081526020819052604090205490565b116108675760405162461bcd60e51b815260206004820152601c60248201527f4e6f7420656e6f756768206372656469747320696e2077616c6c6574000000006044820152606401610595565b84848381811061087957610879611b16565b61088f9260206040909202019081019150611804565b6001600160a01b03166323b872dd30338888878181106108b1576108b1611b16565b6040805160e088901b6001600160e01b03191681526001600160a01b039687166004820152949095166024850152909302016020013560448201526064019050600060405180830381600087803b15801561090b57600080fd5b505af115801561091f573d6000803e3d6000fd5b5050505061092d3382611489565b508061093881611b2c565b9150506107a1565b50336001600160a01b03167f596404a44f5b6078f850adee2adaccc56a908772a7cdc256e946cbca60725211848460405161097c929190611ba4565b60405180910390a2505050565b3360008181526001602090815260408083206001600160a01b03871684529091528120549091906105cf90829086906109c3908790611bc0565b611104565b6005546001600160a01b031633146109f25760405162461bcd60e51b815260040161059590611a49565b6001600160a01b03919091166000908152600660205260409020805460ff1916911515919091179055565b610a278484610dee565b610a31828261079d565b336001600160a01b03167f8a6f883e7f9954987b34fefe2baac26dac80fdb1ff4c24a64f6ec36015fdc5d785858585604051610a709493929190611bd8565b60405180910390a250505050565b3060009081526020819052604081205481108015610a9e57506000600754115b15610ad85760075430600090815260208190526040902054610ac990670de0b6b3a764000090611a94565b610ad39190611ab3565b905090565b3060009081526020819052604090205415610b0157503060009081526020819052604090205490565b50670de0b6b3a764000090565b6005546001600160a01b03163314610b385760405162461bcd60e51b815260040161059590611a49565b610b4260006115cf565b565b6000670de0b6b3a7640000610b57610a7e565b6106199084611a94565b6060600480546104e590611a0e565b3360009081526006602052604090205460ff16610b9f5760405162461bcd60e51b815260040161059590611ad5565b600a8190556040518181527ffb55dc7b61b8c51d1ba03eb79318a0faf38a1c6256be9e06addb72a5d4ce4394906020015b60405180910390a150565b3360009081526006602052604090205460ff16610c0a5760405162461bcd60e51b815260040161059590611ad5565b8060005b81811015610c8a57838382818110610c2857610c28611b16565b90506040020160200135600b6000868685818110610c4857610c48611b16565b610c5e9260206040909202019081019150611804565b6001600160a01b0316815260208101919091526040016000205580610c8281611b2c565b915050610c0e565b507f22f4bcd7ff362f37f6972bcc6fb902af2e9b67be2fb88cfea1b37fcc82faf4228383604051610cbc929190611c0a565b60405180910390a1505050565b3360008181526001602090815260408083206001600160a01b038716845290915281205490919083811015610d4e5760405162461bcd60e51b815260206004820152602560248201527f45524332303a2064656372656173656420616c6c6f77616e63652062656c6f77604482015264207a65726f60d81b6064820152608401610595565b6105f28286868403611104565b6000610d66826105fd565b9050610d733330846112bb565b8060076000828254610d859190611bc0565b90915550503360009081526008602052604081208054839290610da9908490611bc0565b909155505060405181815233907febedb8b3c678666e7f36970bc8f57abf6d8fa2e828c0da91ea5b75bf68ed101a90602001610791565b6000336105cf8185856112bb565b600081815b81811015610f74576000600b6000878785818110610e1357610e13611b16565b610e299260206040909202019081019150611804565b6001600160a01b03166001600160a01b031681526020019081526020016000205411610e5457600080fd5b848482818110610e6657610e66611b16565b610e7c9260206040909202019081019150611804565b6001600160a01b03166323b872dd3330888886818110610e9e57610e9e611b16565b6040805160e088901b6001600160e01b03191681526001600160a01b039687166004820152949095166024850152909302016020013560448201526064019050600060405180830381600087803b158015610ef857600080fd5b505af1158015610f0c573d6000803e3d6000fd5b50505050600b6000868684818110610f2657610f26611b16565b610f3c9260206040909202019081019150611804565b6001600160a01b03168152602081019190915260400160002054610f609084611bc0565b925080610f6c81611b2c565b915050610df3565b50600061271060095484610f889190611a94565b610f929190611ab3565b90506000612710600a5485610fa79190611a94565b610fb19190611ab3565b9050600081610fc08487611aff565b610fca9190611aff565b9050610fd63382611621565b610ff1610feb6005546001600160a01b031690565b84611621565b610ffb3083611621565b336001600160a01b03167fa4d12430846bf9c9dddc072db3261eeb2ff13175f4d2905c55cb4941af66bf248888604051611036929190611ba4565b60405180910390a250505050505050565b6005546001600160a01b031633146110715760405162461bcd60e51b815260040161059590611a49565b6001600160a01b0381166000908152600660205260409020805460ff1916600117905561109d81611700565b50565b3360009081526006602052604090205460ff166110cf5760405162461bcd60e51b815260040161059590611ad5565b60098190556040518181527f72c5623f8d22f3997f6a7c3fb655eee4b71c167aaeab9539bee7713ce01e9b7990602001610bd0565b6001600160a01b0383166111665760405162461bcd60e51b8152602060048201526024808201527f45524332303a20617070726f76652066726f6d20746865207a65726f206164646044820152637265737360e01b6064820152608401610595565b6001600160a01b0382166111c75760405162461bcd60e51b815260206004820152602260248201527f45524332303a20617070726f766520746f20746865207a65726f206164647265604482015261737360f01b6064820152608401610595565b6001600160a01b0383811660008181526001602090815260408083209487168084529482529182902085905590518481527f8c5be1e5ebec7d5bd14f71427d1e84f3dd0314c0f7b2291e5b200ac8c7c3b92591015b60405180910390a3505050565b6001600160a01b0383811660009081526001602090815260408083209386168352929052205460001981146112b557818110156112a85760405162461bcd60e51b815260206004820152601d60248201527f45524332303a20696e73756666696369656e7420616c6c6f77616e63650000006044820152606401610595565b6112b58484848403611104565b50505050565b6001600160a01b03831661131f5760405162461bcd60e51b815260206004820152602560248201527f45524332303a207472616e736665722066726f6d20746865207a65726f206164604482015264647265737360d81b6064820152608401610595565b6001600160a01b0382166113815760405162461bcd60e51b815260206004820152602360248201527f45524332303a207472616e7366657220746f20746865207a65726f206164647260448201526265737360e81b6064820152608401610595565b6001600160a01b038316600090815260208190526040902054818110156113f95760405162461bcd60e51b815260206004820152602660248201527f45524332303a207472616e7366657220616d6f756e7420657863656564732062604482015265616c616e636560d01b6064820152608401610595565b6001600160a01b03808516600090815260208190526040808220858503905591851681529081208054849290611430908490611bc0565b92505081905550826001600160a01b0316846001600160a01b03167fddf252ad1be2c89b69c2b068fc378daa952ba7f163c4a11628f55a4df523b3ef8460405161147c91815260200190565b60405180910390a36112b5565b6001600160a01b0382166114e95760405162461bcd60e51b815260206004820152602160248201527f45524332303a206275726e2066726f6d20746865207a65726f206164647265736044820152607360f81b6064820152608401610595565b6001600160a01b0382166000908152602081905260409020548181101561155d5760405162461bcd60e51b815260206004820152602260248201527f45524332303a206275726e20616d6f756e7420657863656564732062616c616e604482015261636560f01b6064820152608401610595565b6001600160a01b038316600090815260208190526040812083830390556002805484929061158c908490611aff565b90915550506040518281526000906001600160a01b038516907fddf252ad1be2c89b69c2b068fc378daa952ba7f163c4a11628f55a4df523b3ef9060200161121c565b600580546001600160a01b038381166001600160a01b0319831681179093556040519116919082907f8be0079c531659141344cd1fd0a4f28419497f9722a3daafe3b4186f6b6457e090600090a35050565b6001600160a01b0382166116775760405162461bcd60e51b815260206004820152601f60248201527f45524332303a206d696e7420746f20746865207a65726f2061646472657373006044820152606401610595565b80600260008282546116899190611bc0565b90915550506001600160a01b038216600090815260208190526040812080548392906116b6908490611bc0565b90915550506040518181526001600160a01b038316906000907fddf252ad1be2c89b69c2b068fc378daa952ba7f163c4a11628f55a4df523b3ef9060200160405180910390a35050565b6005546001600160a01b0316331461172a5760405162461bcd60e51b815260040161059590611a49565b6001600160a01b03811661178f5760405162461bcd60e51b815260206004820152602660248201527f4f776e61626c653a206e6577206f776e657220697320746865207a65726f206160448201526564647265737360d01b6064820152608401610595565b61109d816115cf565b600060208083528351808285015260005b818110156117c5578581018301518582016040015282016117a9565b818111156117d7576000604083870101525b50601f01601f1916929092016040019392505050565b80356001600160a01b03811681146105bc57600080fd5b60006020828403121561181657600080fd5b61181f826117ed565b9392505050565b6000806040838503121561183957600080fd5b611842836117ed565b946020939093013593505050565b60008060006060848603121561186557600080fd5b61186e846117ed565b925061187c602085016117ed565b9150604084013590509250925092565b60006020828403121561189e57600080fd5b5035919050565b60008083601f8401126118b757600080fd5b50813567ffffffffffffffff8111156118cf57600080fd5b6020830191508360208260061b85010111156118ea57600080fd5b9250929050565b6000806020838503121561190457600080fd5b823567ffffffffffffffff81111561191b57600080fd5b611927858286016118a5565b90969095509350505050565b6000806040838503121561194657600080fd5b61194f836117ed565b91506020830135801515811461196457600080fd5b809150509250929050565b6000806000806040858703121561198557600080fd5b843567ffffffffffffffff8082111561199d57600080fd5b6119a9888389016118a5565b909650945060208701359150808211156119c257600080fd5b506119cf878288016118a5565b95989497509550505050565b600080604083850312156119ee57600080fd5b6119f7836117ed565b9150611a05602084016117ed565b90509250929050565b600181811c90821680611a2257607f821691505b60208210811415611a4357634e487b7160e01b600052602260045260246000fd5b50919050565b6020808252818101527f4f776e61626c653a2063616c6c6572206973206e6f7420746865206f776e6572604082015260600190565b634e487b7160e01b600052601160045260246000fd5b6000816000190483118215151615611aae57611aae611a7e565b500290565b600082611ad057634e487b7160e01b600052601260045260246000fd5b500490565b60208082526010908201526f496e76616c69642064656c656761746560801b604082015260600190565b600082821015611b1157611b11611a7e565b500390565b634e487b7160e01b600052603260045260246000fd5b6000600019821415611b4057611b40611a7e565b5060010190565b6001600160a01b03611b58826117ed565b168252602090810135910152565b81835260208301925060008160005b84811015611b9a57611b878683611b47565b6040958601959190910190600101611b75565b5093949350505050565b602081526000611bb8602083018486611b66565b949350505050565b60008219821115611bd357611bd3611a7e565b500190565b604081526000611bec604083018688611b66565b8281036020840152611bff818587611b66565b979650505050505050565b602080825281018290526000604080830185835b86811015611c4057611c308383611b47565b9183019190830190600101611c1e565b5090969550505050505056fea264697066735822122004e7f3cff874fdba4a4afa413d1572597832e70f98939df4328023450a18938c64736f6c634300080c0033",
  "immutableReferences": {},
  "source": "// SPDX-License-Identifier: UNLICENSED\r\npragma solidity ^0.8.12;\r\n\r\nimport './Delegated.sol';\r\nimport \"@openzeppelin/contracts/token/ERC20/ERC20.sol\";\r\nimport \"@openzeppelin/contracts/access/Ownable.sol\";\r\nimport '@openzeppelin/contracts/token/ERC721/IERC721.sol';\r\n\r\ncontract NftSwap is ERC20, Delegated {\r\n\r\n  constructor() ERC20(\"NftSwap Credit\", \"NFTC\") {\r\n  }\r\n\r\n  uint public totalShares = 0;\r\n  mapping(address => uint) private shares;\r\n\r\n  uint public constant PRECISION_FACTOR = 10**18;\r\n\r\n  // fees for owner and stakers\r\n  uint public ownerFee = 100; //Basis Points\r\n  uint public stakersFee = 100;\r\n\r\n  event AddNft(address nftAddress, uint price);\r\n  event SetPrices(collection[]);\r\n  event DepositNfts(address indexed user, swap[] nfts);\r\n  event WithdrawNfts(address indexed user, swap[] nfts);\r\n  event SwapNfts(address indexed user, swap[] inboundNfts, swap[] outboundNfts);\r\n  event Stake(address indexed user, uint amount);\r\n  event Unstake(address indexed user, uint amount);\r\n  event SetOwnerFee(uint fee);\r\n  event SetStakersFee(uint fee);\r\n\r\n  struct collection {\r\n    address nftAddress;\r\n    uint price;\r\n  }\r\n\r\n  struct swap {\r\n    address nftAddress;\r\n    uint tokenId;\r\n  }\r\n\r\n  mapping (address => uint) internal prices; // uses contract address\r\n\r\n  function getPrice(address nftAddress) external view returns (uint) {\r\n    return prices[nftAddress];\r\n  }\r\n\r\n  function addNft(address nftAddress, uint price) external onlyDelegates {\r\n    prices[nftAddress] = price;\r\n    emit AddNft(nftAddress, price);\r\n  }\r\n\r\n  function setPrices(collection[] calldata newPrices) external onlyDelegates {\r\n    uint len = newPrices.length;\r\n    for(uint i=0; i < len; i++) {\r\n      prices[newPrices[i].nftAddress] = newPrices[i].price;\r\n    }\r\n    emit SetPrices(newPrices);\r\n  }\r\n\r\n  // exchange Nfts for nftSwapCredits\r\n  function depositNfts(swap[] calldata nfts) public {\r\n    uint total = 0;\r\n    uint len = nfts.length;\r\n    // transfer nfts from user to the contract, add NFTC based on value\r\n    for(uint i=0; i<len; i++) {\r\n      require(prices[nfts[i].nftAddress] > 0);\r\n      IERC721(nfts[i].nftAddress).transferFrom(msg.sender, address(this), nfts[i].tokenId);\r\n      total += prices[nfts[i].nftAddress];\r\n    }\r\n    // calculate cut for sender, owner, and stakers\r\n    uint ownerCut = (total*ownerFee)/10000;\r\n    uint stakersCut = (total*stakersFee)/10000;\r\n    uint senderCut = total - ownerCut - stakersCut;\r\n    // mint credits to sender\r\n    _mint(msg.sender, senderCut);\r\n    // mint credits to owner\r\n    _mint(owner(), ownerCut);\r\n    // mint credits to staking contract\r\n    _mint(address(this), stakersCut);\r\n    emit DepositNfts(msg.sender, nfts);\r\n  }\r\n\r\n  // exchange nftSwapCredits for NFTs\r\n  function withdrawNfts(swap[] calldata nfts) public {\r\n    uint len = nfts.length;\r\n    for(uint i=0; i<len; i++) {\r\n      uint nftPrice = prices[nfts[i].nftAddress];\r\n      // require sender to have enough nftSwapCredit in account\r\n      require(balanceOf(msg.sender) > nftPrice, \"Not enough credits in wallet\");\r\n      IERC721(nfts[i].nftAddress).transferFrom(address(this), msg.sender, nfts[i].tokenId);\r\n      // burns tokens\r\n      _burn(msg.sender, nftPrice);\r\n    }\r\n    emit WithdrawNfts(msg.sender, nfts);\r\n  }\r\n\r\n  // exchange Nfts for Nfts, leftover value is given in nftSwapCredits\r\n  function swapNfts(swap[] calldata inboundNfts, swap[] calldata outboundNfts) external {\r\n    depositNfts(inboundNfts);\r\n    withdrawNfts(outboundNfts);\r\n    emit SwapNfts(msg.sender, inboundNfts, outboundNfts);\r\n  }\r\n\r\n  function stake(uint amount) external {\r\n    uint sharesToReceive = calculateCreditToShare(amount);\r\n    _transfer(msg.sender, address(this), amount);\r\n    totalShares += sharesToReceive;\r\n    shares[msg.sender] += sharesToReceive;\r\n    emit Stake(msg.sender, sharesToReceive); //change to amount\r\n  }\r\n\r\n  function unstake(uint amount) external {\r\n    // checks if they have the amount of shares to unstake\r\n    uint sharesToUnstake = calculateCreditToShare(amount);\r\n    require(shares[msg.sender] >= sharesToUnstake, \"Not enough credits to unstake\");\r\n    _transfer(address(this), msg.sender, amount);\r\n    totalShares -= sharesToUnstake;\r\n    shares[msg.sender] -= sharesToUnstake;\r\n    emit Unstake(msg.sender, sharesToUnstake); // change to amount\r\n  }\r\n\r\n  function calculateCreditToShare(uint creditAmount) public view returns(uint) {\r\n    return (creditAmount*PRECISION_FACTOR)/getSharePrice();\r\n  }\r\n\r\n  function calculateShareToCredit(uint shareAmount) public view returns(uint) {\r\n    return (shareAmount*getSharePrice())/PRECISION_FACTOR;\r\n  }\r\n\r\n  function getSharePrice() public view returns (uint) {\r\n    if(balanceOf(address(this)) > 0 && totalShares > 0) {\r\n      return balanceOf(address(this))*PRECISION_FACTOR/totalShares;\r\n    } else if(balanceOf(address(this)) > 0) {\r\n      return balanceOf(address(this));\r\n    } else {\r\n      return PRECISION_FACTOR;\r\n    }\r\n  }\r\n\r\n  function getShares(address account) external view returns(uint) {\r\n    return shares[account];\r\n  }\r\n\r\n  function setOwnerFee(uint fee) external onlyDelegates {\r\n    ownerFee = fee;\r\n    emit SetOwnerFee(fee);\r\n  }\r\n\r\n  function setStakersFee(uint fee) external onlyDelegates {\r\n    stakersFee = fee;\r\n    emit SetStakersFee(fee);\r\n  }\r\n}",
  "sourcePath": "C:\\Users\\Alex-Desktop\\Desktop\\nftswap\\smart-contracts\\contracts\\NftSwap.sol",
  "compiler": {
    "name": "solc",
    "version": "0.8.12+commit.f00d7308.Emscripten.clang"
  },
  "schemaVersion": "3.4.5",
  "updatedAt": "2022-03-20T23:41:23.737Z",
  "networkType": "ethereum",
  "devdoc": {
    "kind": "dev",
    "methods": {
      "allowance(address,address)": {
        "details": "See {IERC20-allowance}."
      },
      "approve(address,uint256)": {
        "details": "See {IERC20-approve}. NOTE: If `amount` is the maximum `uint256`, the allowance is not updated on `transferFrom`. This is semantically equivalent to an infinite approval. Requirements: - `spender` cannot be the zero address."
      },
      "balanceOf(address)": {
        "details": "See {IERC20-balanceOf}."
      },
      "decimals()": {
        "details": "Returns the number of decimals used to get its user representation. For example, if `decimals` equals `2`, a balance of `505` tokens should be displayed to a user as `5.05` (`505 / 10 ** 2`). Tokens usually opt for a value of 18, imitating the relationship between Ether and Wei. This is the value {ERC20} uses, unless this function is overridden; NOTE: This information is only used for _display_ purposes: it in no way affects any of the arithmetic of the contract, including {IERC20-balanceOf} and {IERC20-transfer}."
      },
      "decreaseAllowance(address,uint256)": {
        "details": "Atomically decreases the allowance granted to `spender` by the caller. This is an alternative to {approve} that can be used as a mitigation for problems described in {IERC20-approve}. Emits an {Approval} event indicating the updated allowance. Requirements: - `spender` cannot be the zero address. - `spender` must have allowance for the caller of at least `subtractedValue`."
      },
      "increaseAllowance(address,uint256)": {
        "details": "Atomically increases the allowance granted to `spender` by the caller. This is an alternative to {approve} that can be used as a mitigation for problems described in {IERC20-approve}. Emits an {Approval} event indicating the updated allowance. Requirements: - `spender` cannot be the zero address."
      },
      "name()": {
        "details": "Returns the name of the token."
      },
      "owner()": {
        "details": "Returns the address of the current owner."
      },
      "renounceOwnership()": {
        "details": "Leaves the contract without owner. It will not be possible to call `onlyOwner` functions anymore. Can only be called by the current owner. NOTE: Renouncing ownership will leave the contract without an owner, thereby removing any functionality that is only available to the owner."
      },
      "symbol()": {
        "details": "Returns the symbol of the token, usually a shorter version of the name."
      },
      "totalSupply()": {
        "details": "See {IERC20-totalSupply}."
      },
      "transfer(address,uint256)": {
        "details": "See {IERC20-transfer}. Requirements: - `to` cannot be the zero address. - the caller must have a balance of at least `amount`."
      },
      "transferFrom(address,address,uint256)": {
        "details": "See {IERC20-transferFrom}. Emits an {Approval} event indicating the updated allowance. This is not required by the EIP. See the note at the beginning of {ERC20}. NOTE: Does not update the allowance if the current allowance is the maximum `uint256`. Requirements: - `from` and `to` cannot be the zero address. - `from` must have a balance of at least `amount`. - the caller must have allowance for ``from``'s tokens of at least `amount`."
      },
      "transferOwnership(address)": {
        "details": "Transfers ownership of the contract to a new account (`newOwner`). Can only be called by the current owner."
      }
    },
    "version": 1
  },
  "userdoc": {
    "kind": "user",
    "methods": {},
    "version": 1
  }
}