{
  "contractName": "NftSwap",
  "abi": [
    {
      "inputs": [
        {
          "internalType": "address",
          "name": "nftSwapCredit20",
          "type": "address"
        }
      ],
      "stateMutability": "nonpayable",
      "type": "constructor"
    },
    {
      "anonymous": false,
      "inputs": [
        {
          "indexed": false,
          "internalType": "address",
          "name": "nftAddress",
          "type": "address"
        },
        {
          "indexed": false,
          "internalType": "uint256",
          "name": "price",
          "type": "uint256"
        }
      ],
      "name": "AddNft",
      "type": "event"
    },
    {
      "anonymous": false,
      "inputs": [
        {
          "indexed": true,
          "internalType": "address",
          "name": "user",
          "type": "address"
        },
        {
          "components": [
            {
              "internalType": "address",
              "name": "nftAddress",
              "type": "address"
            },
            {
              "internalType": "uint256",
              "name": "tokenId",
              "type": "uint256"
            }
          ],
          "indexed": false,
          "internalType": "struct NftSwap.swap[]",
          "name": "nfts",
          "type": "tuple[]"
        }
      ],
      "name": "DepositNfts",
      "type": "event"
    },
    {
      "anonymous": false,
      "inputs": [
        {
          "indexed": true,
          "internalType": "address",
          "name": "previousOwner",
          "type": "address"
        },
        {
          "indexed": true,
          "internalType": "address",
          "name": "newOwner",
          "type": "address"
        }
      ],
      "name": "OwnershipTransferred",
      "type": "event"
    },
    {
      "anonymous": false,
      "inputs": [
        {
          "indexed": false,
          "internalType": "uint256",
          "name": "fee",
          "type": "uint256"
        }
      ],
      "name": "SetOwnerFee",
      "type": "event"
    },
    {
      "anonymous": false,
      "inputs": [
        {
          "components": [
            {
              "internalType": "address",
              "name": "nftAddress",
              "type": "address"
            },
            {
              "internalType": "uint256",
              "name": "price",
              "type": "uint256"
            }
          ],
          "indexed": false,
          "internalType": "struct NftSwap.collection[]",
          "name": "",
          "type": "tuple[]"
        }
      ],
      "name": "SetPrices",
      "type": "event"
    },
    {
      "anonymous": false,
      "inputs": [
        {
          "indexed": false,
          "internalType": "uint256",
          "name": "fee",
          "type": "uint256"
        }
      ],
      "name": "SetStakersFee",
      "type": "event"
    },
    {
      "anonymous": false,
      "inputs": [
        {
          "indexed": true,
          "internalType": "address",
          "name": "user",
          "type": "address"
        },
        {
          "indexed": false,
          "internalType": "uint256",
          "name": "amount",
          "type": "uint256"
        }
      ],
      "name": "Stake",
      "type": "event"
    },
    {
      "anonymous": false,
      "inputs": [
        {
          "indexed": true,
          "internalType": "address",
          "name": "user",
          "type": "address"
        },
        {
          "components": [
            {
              "internalType": "address",
              "name": "nftAddress",
              "type": "address"
            },
            {
              "internalType": "uint256",
              "name": "tokenId",
              "type": "uint256"
            }
          ],
          "indexed": false,
          "internalType": "struct NftSwap.swap[]",
          "name": "inboundNfts",
          "type": "tuple[]"
        },
        {
          "components": [
            {
              "internalType": "address",
              "name": "nftAddress",
              "type": "address"
            },
            {
              "internalType": "uint256",
              "name": "tokenId",
              "type": "uint256"
            }
          ],
          "indexed": false,
          "internalType": "struct NftSwap.swap[]",
          "name": "outboundNfts",
          "type": "tuple[]"
        }
      ],
      "name": "SwapNfts",
      "type": "event"
    },
    {
      "anonymous": false,
      "inputs": [
        {
          "indexed": true,
          "internalType": "address",
          "name": "user",
          "type": "address"
        },
        {
          "indexed": false,
          "internalType": "uint256",
          "name": "amount",
          "type": "uint256"
        }
      ],
      "name": "Unstake",
      "type": "event"
    },
    {
      "anonymous": false,
      "inputs": [
        {
          "indexed": true,
          "internalType": "address",
          "name": "user",
          "type": "address"
        },
        {
          "components": [
            {
              "internalType": "address",
              "name": "nftAddress",
              "type": "address"
            },
            {
              "internalType": "uint256",
              "name": "tokenId",
              "type": "uint256"
            }
          ],
          "indexed": false,
          "internalType": "struct NftSwap.swap[]",
          "name": "nfts",
          "type": "tuple[]"
        }
      ],
      "name": "WithdrawNfts",
      "type": "event"
    },
    {
      "inputs": [],
      "name": "PRECISION_FACTOR",
      "outputs": [
        {
          "internalType": "uint256",
          "name": "",
          "type": "uint256"
        }
      ],
      "stateMutability": "view",
      "type": "function"
    },
    {
      "inputs": [
        {
          "internalType": "address",
          "name": "addr",
          "type": "address"
        }
      ],
      "name": "isDelegate",
      "outputs": [
        {
          "internalType": "bool",
          "name": "",
          "type": "bool"
        }
      ],
      "stateMutability": "view",
      "type": "function"
    },
    {
      "inputs": [],
      "name": "nftSwapCredit",
      "outputs": [
        {
          "internalType": "contract IERC20",
          "name": "",
          "type": "address"
        }
      ],
      "stateMutability": "view",
      "type": "function"
    },
    {
      "inputs": [],
      "name": "owner",
      "outputs": [
        {
          "internalType": "address",
          "name": "",
          "type": "address"
        }
      ],
      "stateMutability": "view",
      "type": "function"
    },
    {
      "inputs": [],
      "name": "ownerFee",
      "outputs": [
        {
          "internalType": "uint256",
          "name": "",
          "type": "uint256"
        }
      ],
      "stateMutability": "view",
      "type": "function"
    },
    {
      "inputs": [],
      "name": "renounceOwnership",
      "outputs": [],
      "stateMutability": "nonpayable",
      "type": "function"
    },
    {
      "inputs": [
        {
          "internalType": "address",
          "name": "addr",
          "type": "address"
        },
        {
          "internalType": "bool",
          "name": "isDelegate_",
          "type": "bool"
        }
      ],
      "name": "setDelegate",
      "outputs": [],
      "stateMutability": "nonpayable",
      "type": "function"
    },
    {
      "inputs": [
        {
          "internalType": "address",
          "name": "",
          "type": "address"
        }
      ],
      "name": "shares",
      "outputs": [
        {
          "internalType": "uint256",
          "name": "",
          "type": "uint256"
        }
      ],
      "stateMutability": "view",
      "type": "function"
    },
    {
      "inputs": [],
      "name": "stakersFee",
      "outputs": [
        {
          "internalType": "uint256",
          "name": "",
          "type": "uint256"
        }
      ],
      "stateMutability": "view",
      "type": "function"
    },
    {
      "inputs": [],
      "name": "totalCreditStaked",
      "outputs": [
        {
          "internalType": "uint256",
          "name": "",
          "type": "uint256"
        }
      ],
      "stateMutability": "view",
      "type": "function"
    },
    {
      "inputs": [],
      "name": "totalShares",
      "outputs": [
        {
          "internalType": "uint256",
          "name": "",
          "type": "uint256"
        }
      ],
      "stateMutability": "view",
      "type": "function"
    },
    {
      "inputs": [
        {
          "internalType": "address",
          "name": "newOwner",
          "type": "address"
        }
      ],
      "name": "transferOwnership",
      "outputs": [],
      "stateMutability": "nonpayable",
      "type": "function"
    },
    {
      "inputs": [
        {
          "internalType": "address",
          "name": "nftAddress",
          "type": "address"
        }
      ],
      "name": "getPrice",
      "outputs": [
        {
          "internalType": "uint256",
          "name": "",
          "type": "uint256"
        }
      ],
      "stateMutability": "view",
      "type": "function"
    },
    {
      "inputs": [
        {
          "internalType": "address",
          "name": "nftAddress",
          "type": "address"
        },
        {
          "internalType": "uint256",
          "name": "price",
          "type": "uint256"
        }
      ],
      "name": "addNft",
      "outputs": [],
      "stateMutability": "nonpayable",
      "type": "function"
    },
    {
      "inputs": [
        {
          "components": [
            {
              "internalType": "address",
              "name": "nftAddress",
              "type": "address"
            },
            {
              "internalType": "uint256",
              "name": "price",
              "type": "uint256"
            }
          ],
          "internalType": "struct NftSwap.collection[]",
          "name": "newPrices",
          "type": "tuple[]"
        }
      ],
      "name": "setPrices",
      "outputs": [],
      "stateMutability": "nonpayable",
      "type": "function"
    },
    {
      "inputs": [
        {
          "components": [
            {
              "internalType": "address",
              "name": "nftAddress",
              "type": "address"
            },
            {
              "internalType": "uint256",
              "name": "tokenId",
              "type": "uint256"
            }
          ],
          "internalType": "struct NftSwap.swap[]",
          "name": "nfts",
          "type": "tuple[]"
        }
      ],
      "name": "depositNfts",
      "outputs": [],
      "stateMutability": "nonpayable",
      "type": "function"
    },
    {
      "inputs": [
        {
          "components": [
            {
              "internalType": "address",
              "name": "nftAddress",
              "type": "address"
            },
            {
              "internalType": "uint256",
              "name": "tokenId",
              "type": "uint256"
            }
          ],
          "internalType": "struct NftSwap.swap[]",
          "name": "nfts",
          "type": "tuple[]"
        }
      ],
      "name": "withdrawNfts",
      "outputs": [],
      "stateMutability": "nonpayable",
      "type": "function"
    },
    {
      "inputs": [
        {
          "components": [
            {
              "internalType": "address",
              "name": "nftAddress",
              "type": "address"
            },
            {
              "internalType": "uint256",
              "name": "tokenId",
              "type": "uint256"
            }
          ],
          "internalType": "struct NftSwap.swap[]",
          "name": "inboundNfts",
          "type": "tuple[]"
        },
        {
          "components": [
            {
              "internalType": "address",
              "name": "nftAddress",
              "type": "address"
            },
            {
              "internalType": "uint256",
              "name": "tokenId",
              "type": "uint256"
            }
          ],
          "internalType": "struct NftSwap.swap[]",
          "name": "outboundNfts",
          "type": "tuple[]"
        }
      ],
      "name": "swapNfts",
      "outputs": [],
      "stateMutability": "nonpayable",
      "type": "function"
    },
    {
      "inputs": [
        {
          "internalType": "uint256",
          "name": "amount",
          "type": "uint256"
        }
      ],
      "name": "stake",
      "outputs": [],
      "stateMutability": "nonpayable",
      "type": "function"
    },
    {
      "inputs": [
        {
          "internalType": "uint256",
          "name": "amount",
          "type": "uint256"
        }
      ],
      "name": "unstake",
      "outputs": [],
      "stateMutability": "nonpayable",
      "type": "function"
    },
    {
      "inputs": [
        {
          "internalType": "uint256",
          "name": "fee",
          "type": "uint256"
        }
      ],
      "name": "setOwnerFee",
      "outputs": [],
      "stateMutability": "nonpayable",
      "type": "function"
    },
    {
      "inputs": [
        {
          "internalType": "uint256",
          "name": "fee",
          "type": "uint256"
        }
      ],
      "name": "setStakersFee",
      "outputs": [],
      "stateMutability": "nonpayable",
      "type": "function"
    }
  ],
  "bytecode": "0x60a060405260006002556000600355670de0b6b3a76400006005556064600655606460075534801561003057600080fd5b5060405161165238038061165283398101604081905261004f916100f3565b610058336100a3565b600180600061006f6000546001600160a01b031690565b6001600160a01b0390811682526020820192909252604001600020805460ff19169215159290921790915516608052610123565b600080546001600160a01b038381166001600160a01b0319831681178455604051919092169283917f8be0079c531659141344cd1fd0a4f28419497f9722a3daafe3b4186f6b6457e09190a35050565b60006020828403121561010557600080fd5b81516001600160a01b038116811461011c57600080fd5b9392505050565b6080516114ea610168600039600081816101740152818161048b015281816105e70152818161075801528181610a9001528181610d290152610da101526114ea6000f3fe608060405234801561001057600080fd5b50600436106101425760003560e01c80638da5cb5b116100b8578063c13156db1161007c578063c13156db146102b3578063ccd34cd5146102c6578063ce7c2ac2146102d5578063d5b2a01a146102f5578063f2fde38b146102fe578063fbf0ade11461031157600080fd5b80638da5cb5b146102605780639af335c814610271578063a315d7aa14610284578063a3f369581461028d578063a694fc3a146102a057600080fd5b80633a98ef391161010a5780633a98ef39146101e957806341976e09146102005780634a994eef1461022957806356ea92001461023c578063715018a61461024f5780638461fb821461025757600080fd5b806307779627146101475780631ab039a81461016f57806328b0eb0f146101ae5780632e17de78146101c357806336e7b36c146101d6575b600080fd5b61015a6101553660046110b3565b610324565b60405190151581526020015b60405180910390f35b6101967f000000000000000000000000000000000000000000000000000000000000000081565b6040516001600160a01b039091168152602001610166565b6101c16101bc3660046110d5565b61037b565b005b6101c16101d13660046110ff565b610402565b6101c16101e4366004611164565b610576565b6101f260035481565b604051908152602001610166565b6101f261020e3660046110b3565b6001600160a01b031660009081526008602052604090205490565b6101c16102373660046111b4565b610834565b6101c161024a3660046111eb565b610889565b6101c16108ea565b6101f260025481565b6000546001600160a01b0316610196565b6101c161027f3660046110ff565b610920565b6101f260075481565b6101c161029b366004611164565b61098b565b6101c16102ae3660046110ff565b610a79565b6101c16102c1366004611164565b610b9f565b6101f2670de0b6b3a764000081565b6101f26102e33660046110b3565b60046020526000908152604090205481565b6101f260065481565b6101c161030c3660046110b3565b610ede565b6101c161031f3660046110ff565b610f3a565b600080546001600160a01b031633146103585760405162461bcd60e51b815260040161034f90611257565b60405180910390fd5b506001600160a01b03811660009081526001602052604090205460ff165b919050565b3360009081526001602052604090205460ff166103aa5760405162461bcd60e51b815260040161034f9061128c565b6001600160a01b038216600081815260086020908152604091829020849055815192835282018390527f2e04cb047065feea07c5cd7af3f7a18d744c96791ad52415ffd3c4a9e22ff17e910160405180910390a15050565b600061040d82610f9e565b3360009081526004602052604090205490915081111561046f5760405162461bcd60e51b815260206004820152601d60248201527f4e6f7420656e6f756768206372656469747320746f20756e7374616b65000000604482015260640161034f565b60405163a9059cbb60e01b8152336004820152602481018390527f00000000000000000000000000000000000000000000000000000000000000006001600160a01b03169063a9059cbb906044016020604051808303816000875af11580156104dc573d6000803e3d6000fd5b505050506040513d601f19601f8201168201806040525081019061050091906112b6565b50806003600082825461051391906112e9565b909155505033600090815260046020526040812080548392906105379084906112e9565b909155505060405181815233907f85082129d87b2fe11527cb1b3b7a520aeb5aa6913f88a3d8757fe40d1db02fdd906020015b60405180910390a25050565b8060005b818110156107eb5760006008600086868581811061059a5761059a611300565b6105b092602060409092020190810191506110b3565b6001600160a01b039081168252602082019290925260409081016000205490516370a0823160e01b815233600482015290925082917f000000000000000000000000000000000000000000000000000000000000000016906370a0823190602401602060405180830381865afa15801561062e573d6000803e3d6000fd5b505050506040513d601f19601f820116820180604052508101906106529190611316565b1161069f5760405162461bcd60e51b815260206004820152601c60248201527f4e6f7420656e6f756768206372656469747320696e2077616c6c657400000000604482015260640161034f565b8484838181106106b1576106b1611300565b6106c792602060409092020190810191506110b3565b6001600160a01b03166323b872dd30338888878181106106e9576106e9611300565b905060400201602001356040518463ffffffff1660e01b81526004016107119392919061132f565b600060405180830381600087803b15801561072b57600080fd5b505af115801561073f573d6000803e3d6000fd5b50506040516323b872dd60e01b81526001600160a01b037f00000000000000000000000000000000000000000000000000000000000000001692506323b872dd91506107939033903090869060040161132f565b6020604051808303816000875af11580156107b2573d6000803e3d6000fd5b505050506040513d601f19601f820116820180604052508101906107d691906112b6565b505080806107e390611353565b91505061057a565b50336001600160a01b03167f596404a44f5b6078f850adee2adaccc56a908772a7cdc256e946cbca6072521184846040516108279291906113cb565b60405180910390a2505050565b6000546001600160a01b0316331461085e5760405162461bcd60e51b815260040161034f90611257565b6001600160a01b03919091166000908152600160205260409020805460ff1916911515919091179055565b6108938484610b9f565b61089d8282610576565b336001600160a01b03167f8a6f883e7f9954987b34fefe2baac26dac80fdb1ff4c24a64f6ec36015fdc5d7858585856040516108dc94939291906113e7565b60405180910390a250505050565b6000546001600160a01b031633146109145760405162461bcd60e51b815260040161034f90611257565b61091e6000610fb4565b565b3360009081526001602052604090205460ff1661094f5760405162461bcd60e51b815260040161034f9061128c565b60078190556040518181527ffb55dc7b61b8c51d1ba03eb79318a0faf38a1c6256be9e06addb72a5d4ce4394906020015b60405180910390a150565b3360009081526001602052604090205460ff166109ba5760405162461bcd60e51b815260040161034f9061128c565b8060005b81811015610a3a578383828181106109d8576109d8611300565b90506040020160200135600860008686858181106109f8576109f8611300565b610a0e92602060409092020190810191506110b3565b6001600160a01b0316815260208101919091526040016000205580610a3281611353565b9150506109be565b507f22f4bcd7ff362f37f6972bcc6fb902af2e9b67be2fb88cfea1b37fcc82faf4228383604051610a6c929190611419565b60405180910390a1505050565b6040516323b872dd60e01b81526001600160a01b037f000000000000000000000000000000000000000000000000000000000000000016906323b872dd90610ac99033903090869060040161132f565b6020604051808303816000875af1158015610ae8573d6000803e3d6000fd5b505050506040513d601f19601f82011682018060405250810190610b0c91906112b6565b508060026000828254610b1f919061145b565b9091555060009050610b3082610f9e565b90508060036000828254610b44919061145b565b90915550503360009081526004602052604081208054839290610b6890849061145b565b909155505060405181815233907febedb8b3c678666e7f36970bc8f57abf6d8fa2e828c0da91ea5b75bf68ed101a9060200161056a565b600081815b81811015610cb457848482818110610bbe57610bbe611300565b610bd492602060409092020190810191506110b3565b6001600160a01b03166323b872dd3330888886818110610bf657610bf6611300565b905060400201602001356040518463ffffffff1660e01b8152600401610c1e9392919061132f565b600060405180830381600087803b158015610c3857600080fd5b505af1158015610c4c573d6000803e3d6000fd5b5050505060086000868684818110610c6657610c66611300565b610c7c92602060409092020190810191506110b3565b6001600160a01b03168152602081019190915260400160002054610ca0908461145b565b925080610cac81611353565b915050610ba4565b50600061271060065484610cc89190611473565b610cd29190611492565b9050600061271060075485610ce79190611473565b610cf19190611492565b9050600081610d0084876112e9565b610d0a91906112e9565b60405163a9059cbb60e01b8152336004820152602481018290529091507f00000000000000000000000000000000000000000000000000000000000000006001600160a01b03169063a9059cbb906044016020604051808303816000875af1158015610d7a573d6000803e3d6000fd5b505050506040513d601f19601f82011682018060405250810190610d9e91906112b6565b507f00000000000000000000000000000000000000000000000000000000000000006001600160a01b031663a9059cbb610de06000546001600160a01b031690565b6040516001600160e01b031960e084901b1681526001600160a01b039091166004820152602481018690526044016020604051808303816000875af1158015610e2d573d6000803e3d6000fd5b505050506040513d601f19601f82011682018060405250810190610e5191906112b6565b50600254610e5f9083611492565b610e6a90600161145b565b60056000828254610e7b9190611473565b925050819055508160026000828254610e94919061145b565b909155505060405133907fa4d12430846bf9c9dddc072db3261eeb2ff13175f4d2905c55cb4941af66bf2490610ecd908a908a906113cb565b60405180910390a250505050505050565b6000546001600160a01b03163314610f085760405162461bcd60e51b815260040161034f90611257565b6001600160a01b0381166000908152600160208190526040909120805460ff19169091179055610f3781611004565b50565b3360009081526001602052604090205460ff16610f695760405162461bcd60e51b815260040161034f9061128c565b60068190556040518181527f72c5623f8d22f3997f6a7c3fb655eee4b71c167aaeab9539bee7713ce01e9b7990602001610980565b600060055482610fae9190611492565b92915050565b600080546001600160a01b038381166001600160a01b0319831681178455604051919092169283917f8be0079c531659141344cd1fd0a4f28419497f9722a3daafe3b4186f6b6457e09190a35050565b6000546001600160a01b0316331461102e5760405162461bcd60e51b815260040161034f90611257565b6001600160a01b0381166110935760405162461bcd60e51b815260206004820152602660248201527f4f776e61626c653a206e6577206f776e657220697320746865207a65726f206160448201526564647265737360d01b606482015260840161034f565b610f3781610fb4565b80356001600160a01b038116811461037657600080fd5b6000602082840312156110c557600080fd5b6110ce8261109c565b9392505050565b600080604083850312156110e857600080fd5b6110f18361109c565b946020939093013593505050565b60006020828403121561111157600080fd5b5035919050565b60008083601f84011261112a57600080fd5b50813567ffffffffffffffff81111561114257600080fd5b6020830191508360208260061b850101111561115d57600080fd5b9250929050565b6000806020838503121561117757600080fd5b823567ffffffffffffffff81111561118e57600080fd5b61119a85828601611118565b90969095509350505050565b8015158114610f3757600080fd5b600080604083850312156111c757600080fd5b6111d08361109c565b915060208301356111e0816111a6565b809150509250929050565b6000806000806040858703121561120157600080fd5b843567ffffffffffffffff8082111561121957600080fd5b61122588838901611118565b9096509450602087013591508082111561123e57600080fd5b5061124b87828801611118565b95989497509550505050565b6020808252818101527f4f776e61626c653a2063616c6c6572206973206e6f7420746865206f776e6572604082015260600190565b60208082526010908201526f496e76616c69642064656c656761746560801b604082015260600190565b6000602082840312156112c857600080fd5b81516110ce816111a6565b634e487b7160e01b600052601160045260246000fd5b6000828210156112fb576112fb6112d3565b500390565b634e487b7160e01b600052603260045260246000fd5b60006020828403121561132857600080fd5b5051919050565b6001600160a01b039384168152919092166020820152604081019190915260600190565b6000600019821415611367576113676112d3565b5060010190565b6001600160a01b0361137f8261109c565b168252602090810135910152565b81835260208301925060008160005b848110156113c1576113ae868361136e565b604095860195919091019060010161139c565b5093949350505050565b6020815260006113df60208301848661138d565b949350505050565b6040815260006113fb60408301868861138d565b828103602084015261140e81858761138d565b979650505050505050565b602080825281018290526000604080830185835b8681101561144f5761143f838361136e565b918301919083019060010161142d565b50909695505050505050565b6000821982111561146e5761146e6112d3565b500190565b600081600019048311821515161561148d5761148d6112d3565b500290565b6000826114af57634e487b7160e01b600052601260045260246000fd5b50049056fea26469706673582212209b71a8c37b43f101965a977e2def0e2b326b3a7d04b844e3418ac2f247776a1064736f6c634300080c0033",
  "immutableReferences": {
    "1072": [
      {
        "length": 32,
        "start": 372
      },
      {
        "length": 32,
        "start": 1163
      },
      {
        "length": 32,
        "start": 1511
      },
      {
        "length": 32,
        "start": 1880
      },
      {
        "length": 32,
        "start": 2704
      },
      {
        "length": 32,
        "start": 3369
      },
      {
        "length": 32,
        "start": 3489
      }
    ]
  },
  "source": "// SPDX-License-Identifier: UNLICENSED\r\npragma solidity ^0.8.12;\r\n\r\nimport './Delegated.sol';\r\nimport '@openzeppelin/contracts/token/ERC20/IERC20.sol';\r\nimport '@openzeppelin/contracts/token/ERC721/IERC721.sol';\r\n\r\ncontract NftSwap is Delegated {\r\n\r\n  IERC20 public immutable nftSwapCredit;\r\n\r\n  constructor(address nftSwapCredit20) {\r\n    nftSwapCredit = IERC20(nftSwapCredit20);\r\n  }\r\n\r\n  uint public totalCreditStaked = 0;\r\n  uint public totalShares = 0;\r\n  mapping(address => uint) public shares;\r\n\r\n  uint public constant PRECISION_FACTOR = 10**18;\r\n  uint sharePrice = PRECISION_FACTOR;\r\n\r\n  // fees for owner and stakers\r\n  uint public ownerFee = 100; //Basis Points\r\n  uint public stakersFee = 100;\r\n\r\n\r\n  event AddNft(address nftAddress, uint price);\r\n  event SetPrices(collection[]);\r\n  event DepositNfts(address indexed user, swap[] nfts);\r\n  event WithdrawNfts(address indexed user, swap[] nfts);\r\n  event SwapNfts(address indexed user, swap[] inboundNfts, swap[] outboundNfts);\r\n  event Stake(address indexed user, uint amount);\r\n  event Unstake(address indexed user, uint amount);\r\n  event SetOwnerFee(uint fee);\r\n  event SetStakersFee(uint fee);\r\n\r\n  struct collection {\r\n    address nftAddress;\r\n    uint price;\r\n  }\r\n\r\n  struct swap {\r\n    address nftAddress;\r\n    uint tokenId;\r\n  }\r\n\r\n  mapping (address => uint) internal prices; // uses contract address\r\n\r\n  function getPrice(address nftAddress) external view returns (uint) {\r\n    return prices[nftAddress];\r\n  }\r\n\r\n  function addNft(address nftAddress, uint price) external onlyDelegates {\r\n    prices[nftAddress] = price;\r\n    emit AddNft(nftAddress, price);\r\n  }\r\n\r\n  function setPrices(collection[] calldata newPrices) external onlyDelegates {\r\n    uint len = newPrices.length;\r\n    for(uint i=0; i < len; i++) {\r\n      prices[newPrices[i].nftAddress] = newPrices[i].price;\r\n    }\r\n    emit SetPrices(newPrices);\r\n  }\r\n\r\n  // exchange Nfts for nftSwapCredits\r\n  function depositNfts(swap[] calldata nfts) public {\r\n    uint total = 0;\r\n    uint len = nfts.length;\r\n    // transfer nfts from user to the contract, add NFTC based on value\r\n    for(uint i=0; i<len; i++) {\r\n      IERC721(nfts[i].nftAddress).transferFrom(msg.sender, address(this), nfts[i].tokenId);\r\n      total += prices[nfts[i].nftAddress];\r\n    }\r\n    // calculate cut for sender, owner, and stakers\r\n    uint ownerCut = (total*ownerFee)/10000;\r\n    uint stakersCut = (total*stakersFee)/10000;\r\n    uint senderCut = total - ownerCut - stakersCut;\r\n    // send credit to sender\r\n    nftSwapCredit.transfer(msg.sender, senderCut);\r\n    // send credit to owner\r\n    nftSwapCredit.transfer(owner(), ownerCut);\r\n    // increase share value for stakers\r\n    sharePrice *= 1 + (stakersCut/totalCreditStaked);\r\n    totalCreditStaked += stakersCut;\r\n    emit DepositNfts(msg.sender, nfts);\r\n  }\r\n\r\n  // exchange nftSwapCredits for NFTs\r\n  function withdrawNfts(swap[] calldata nfts) public {\r\n    uint len = nfts.length;\r\n    for(uint i=0; i<len; i++) {\r\n      uint nftPrice = prices[nfts[i].nftAddress];\r\n      // require sender to have enough nftSwapCredit in account\r\n      require(nftSwapCredit.balanceOf(msg.sender) > nftPrice, \"Not enough credits in wallet\");\r\n      IERC721(nfts[i].nftAddress).transferFrom(address(this), msg.sender, nfts[i].tokenId);\r\n      nftSwapCredit.transferFrom(msg.sender, address(this), nftPrice);\r\n    }\r\n    emit WithdrawNfts(msg.sender, nfts);\r\n  }\r\n\r\n  // exchange Nfts for Nfts, leftover value is given in nftSwapCredits\r\n  function swapNfts(swap[] calldata inboundNfts, swap[] calldata outboundNfts) external {\r\n    depositNfts(inboundNfts);\r\n    withdrawNfts(outboundNfts);\r\n    emit SwapNfts(msg.sender, inboundNfts, outboundNfts);\r\n  }\r\n\r\n  function stake(uint amount) external {\r\n    nftSwapCredit.transferFrom(msg.sender, address(this), amount);\r\n    // adds total credits staked\r\n    totalCreditStaked += amount;\r\n    uint sharesToReceive = calculateCreditToShare(amount);\r\n    totalShares += sharesToReceive;\r\n    shares[msg.sender] += sharesToReceive;\r\n    emit Stake(msg.sender, sharesToReceive);\r\n  }\r\n\r\n  function unstake(uint amount) external {\r\n    // checks if they have the amount of shares to unstake\r\n    uint sharesToUnstake = calculateCreditToShare(amount);\r\n    require(shares[msg.sender] >= sharesToUnstake, \"Not enough credits to unstake\");\r\n    nftSwapCredit.transfer(msg.sender, amount);\r\n    totalShares -= sharesToUnstake;\r\n    shares[msg.sender] -= sharesToUnstake;\r\n    emit Unstake(msg.sender, sharesToUnstake);\r\n  }\r\n\r\n  function calculateCreditToShare(uint amount) internal view returns(uint) {\r\n    return amount/sharePrice;\r\n  }\r\n\r\n  function calculateShareToCredit(uint amount) internal view returns(uint) {\r\n    return amount*sharePrice;\r\n  }\r\n\r\n  function setOwnerFee(uint fee) external onlyDelegates {\r\n    ownerFee = fee;\r\n    emit SetOwnerFee(fee);\r\n  }\r\n\r\n  function setStakersFee(uint fee) external onlyDelegates {\r\n    stakersFee = fee;\r\n    emit SetStakersFee(fee);\r\n  }\r\n}",
  "sourcePath": "C:\\Users\\Alex-Desktop\\Desktop\\nftswap\\smart-contracts\\contracts\\NftSwap.sol",
  "compiler": {
    "name": "solc",
    "version": "0.8.12+commit.f00d7308.Emscripten.clang"
  },
  "schemaVersion": "3.4.5",
  "updatedAt": "2022-03-19T01:28:50.560Z",
  "devdoc": {
    "kind": "dev",
    "methods": {
      "owner()": {
        "details": "Returns the address of the current owner."
      },
      "renounceOwnership()": {
        "details": "Leaves the contract without owner. It will not be possible to call `onlyOwner` functions anymore. Can only be called by the current owner. NOTE: Renouncing ownership will leave the contract without an owner, thereby removing any functionality that is only available to the owner."
      },
      "transferOwnership(address)": {
        "details": "Transfers ownership of the contract to a new account (`newOwner`). Can only be called by the current owner."
      }
    },
    "version": 1
  },
  "userdoc": {
    "kind": "user",
    "methods": {},
    "version": 1
  }
}